{
  "contractName": "Batch",
  "abi": [
    {
      "inputs": [
        {
          "internalType": "address",
          "name": "_tokenAddress",
          "type": "address"
        },
        {
          "internalType": "address",
          "name": "_usdt",
          "type": "address"
        }
      ],
      "stateMutability": "nonpayable",
      "type": "constructor"
    },
    {
      "anonymous": false,
      "inputs": [
        {
          "indexed": true,
          "internalType": "bytes32",
          "name": "role",
          "type": "bytes32"
        },
        {
          "indexed": true,
          "internalType": "bytes32",
          "name": "previousAdminRole",
          "type": "bytes32"
        },
        {
          "indexed": true,
          "internalType": "bytes32",
          "name": "newAdminRole",
          "type": "bytes32"
        }
      ],
      "name": "RoleAdminChanged",
      "type": "event"
    },
    {
      "anonymous": false,
      "inputs": [
        {
          "indexed": true,
          "internalType": "bytes32",
          "name": "role",
          "type": "bytes32"
        },
        {
          "indexed": true,
          "internalType": "address",
          "name": "account",
          "type": "address"
        },
        {
          "indexed": true,
          "internalType": "address",
          "name": "sender",
          "type": "address"
        }
      ],
      "name": "RoleGranted",
      "type": "event"
    },
    {
      "anonymous": false,
      "inputs": [
        {
          "indexed": true,
          "internalType": "bytes32",
          "name": "role",
          "type": "bytes32"
        },
        {
          "indexed": true,
          "internalType": "address",
          "name": "account",
          "type": "address"
        },
        {
          "indexed": true,
          "internalType": "address",
          "name": "sender",
          "type": "address"
        }
      ],
      "name": "RoleRevoked",
      "type": "event"
    },
    {
      "inputs": [],
      "name": "DEFAULT_ADMIN_ROLE",
      "outputs": [
        {
          "internalType": "bytes32",
          "name": "",
          "type": "bytes32"
        }
      ],
      "stateMutability": "view",
      "type": "function",
      "constant": true
    },
    {
      "inputs": [
        {
          "internalType": "uint256",
          "name": "",
          "type": "uint256"
        }
      ],
      "name": "allCollections",
      "outputs": [
        {
          "internalType": "address",
          "name": "owner",
          "type": "address"
        },
        {
          "internalType": "string",
          "name": "name",
          "type": "string"
        },
        {
          "internalType": "uint256",
          "name": "size",
          "type": "uint256"
        },
        {
          "internalType": "uint256",
          "name": "totalPrice",
          "type": "uint256"
        },
        {
          "internalType": "uint256",
          "name": "publishedAt",
          "type": "uint256"
        },
        {
          "internalType": "uint256",
          "name": "collateralAmount",
          "type": "uint256"
        },
        {
          "internalType": "bool",
          "name": "acceptCollateral",
          "type": "bool"
        },
        {
          "internalType": "uint256",
          "name": "soldCount",
          "type": "uint256"
        },
        {
          "internalType": "uint256",
          "name": "nftsCount",
          "type": "uint256"
        }
      ],
      "stateMutability": "view",
      "type": "function",
      "constant": true
    },
    {
      "inputs": [
        {
          "internalType": "uint256",
          "name": "",
          "type": "uint256"
        }
      ],
      "name": "allNFTs",
      "outputs": [
        {
          "internalType": "address",
          "name": "tokenAddress",
          "type": "address"
        },
        {
          "internalType": "uint256",
          "name": "tokenId",
          "type": "uint256"
        },
        {
          "internalType": "address",
          "name": "owner",
          "type": "address"
        },
        {
          "internalType": "uint256",
          "name": "price",
          "type": "uint256"
        },
        {
          "internalType": "uint256",
          "name": "collectionId",
          "type": "uint256"
        },
        {
          "internalType": "uint256",
          "name": "diamondTokenAmount",
          "type": "uint256"
        },
        {
          "internalType": "bool",
          "name": "collateralLocked",
          "type": "bool"
        },
        {
          "internalType": "bool",
          "name": "collateralReturned",
          "type": "bool"
        },
        {
          "internalType": "uint256",
          "name": "collectionIndex",
          "type": "uint256"
        }
      ],
      "stateMutability": "view",
      "type": "function",
      "constant": true
    },
    {
      "inputs": [
        {
          "internalType": "uint256",
          "name": "",
          "type": "uint256"
        },
        {
          "internalType": "uint256",
          "name": "",
          "type": "uint256"
        }
      ],
      "name": "collaborators",
      "outputs": [
        {
          "internalType": "address",
          "name": "",
          "type": "address"
        }
      ],
      "stateMutability": "view",
      "type": "function",
      "constant": true
    },
    {
      "inputs": [],
      "name": "collateralToken",
      "outputs": [
        {
          "internalType": "contract IERC20",
          "name": "",
          "type": "address"
        }
      ],
      "stateMutability": "view",
      "type": "function",
      "constant": true
    },
    {
      "inputs": [],
      "name": "collateralTokenPrice",
      "outputs": [
        {
          "internalType": "uint256",
          "name": "",
          "type": "uint256"
        }
      ],
      "stateMutability": "view",
      "type": "function",
      "constant": true
    },
    {
      "inputs": [],
      "name": "collectionCounter",
      "outputs": [
        {
          "internalType": "uint256",
          "name": "",
          "type": "uint256"
        }
      ],
      "stateMutability": "view",
      "type": "function",
      "constant": true
    },
    {
      "inputs": [
        {
          "internalType": "uint256",
          "name": "",
          "type": "uint256"
        }
      ],
      "name": "collectionsNftCount",
      "outputs": [
        {
          "internalType": "uint256",
          "name": "",
          "type": "uint256"
        }
      ],
      "stateMutability": "view",
      "type": "function",
      "constant": true
    },
    {
      "inputs": [],
      "name": "diamondERC20token",
      "outputs": [
        {
          "internalType": "contract IDiamondToken",
          "name": "",
          "type": "address"
        }
      ],
      "stateMutability": "view",
      "type": "function",
      "constant": true
    },
    {
      "inputs": [],
      "name": "diamondTokenPrice",
      "outputs": [
        {
          "internalType": "uint256",
          "name": "",
          "type": "uint256"
        }
      ],
      "stateMutability": "view",
      "type": "function",
      "constant": true
    },
    {
      "inputs": [
        {
          "internalType": "bytes32",
          "name": "role",
          "type": "bytes32"
        }
      ],
      "name": "getRoleAdmin",
      "outputs": [
        {
          "internalType": "bytes32",
          "name": "",
          "type": "bytes32"
        }
      ],
      "stateMutability": "view",
      "type": "function",
      "constant": true
    },
    {
      "inputs": [
        {
          "internalType": "bytes32",
          "name": "role",
          "type": "bytes32"
        },
        {
          "internalType": "address",
          "name": "account",
          "type": "address"
        }
      ],
      "name": "grantRole",
      "outputs": [],
      "stateMutability": "nonpayable",
      "type": "function"
    },
    {
      "inputs": [
        {
          "internalType": "bytes32",
          "name": "role",
          "type": "bytes32"
        },
        {
          "internalType": "address",
          "name": "account",
          "type": "address"
        }
      ],
      "name": "hasRole",
      "outputs": [
        {
          "internalType": "bool",
          "name": "",
          "type": "bool"
        }
      ],
      "stateMutability": "view",
      "type": "function",
      "constant": true
    },
    {
      "inputs": [
        {
          "internalType": "uint256",
          "name": "",
          "type": "uint256"
        },
        {
          "internalType": "address",
          "name": "",
          "type": "address"
        }
      ],
      "name": "isCollaborator",
      "outputs": [
        {
          "internalType": "bool",
          "name": "",
          "type": "bool"
        }
      ],
      "stateMutability": "view",
      "type": "function",
      "constant": true
    },
    {
      "inputs": [],
      "name": "minimumCollectionSize",
      "outputs": [
        {
          "internalType": "uint256",
          "name": "",
          "type": "uint256"
        }
      ],
      "stateMutability": "view",
      "type": "function",
      "constant": true
    },
    {
      "inputs": [],
      "name": "nftCounter",
      "outputs": [
        {
          "internalType": "uint256",
          "name": "",
          "type": "uint256"
        }
      ],
      "stateMutability": "view",
      "type": "function",
      "constant": true
    },
    {
      "inputs": [
        {
          "internalType": "address",
          "name": "",
          "type": "address"
        },
        {
          "internalType": "uint256",
          "name": "",
          "type": "uint256"
        }
      ],
      "name": "nftTokenIndex",
      "outputs": [
        {
          "internalType": "uint256",
          "name": "",
          "type": "uint256"
        }
      ],
      "stateMutability": "view",
      "type": "function",
      "constant": true
    },
    {
      "inputs": [
        {
          "internalType": "uint256",
          "name": "",
          "type": "uint256"
        },
        {
          "internalType": "uint256",
          "name": "",
          "type": "uint256"
        }
      ],
      "name": "nftsByCollectionId",
      "outputs": [
        {
          "internalType": "address",
          "name": "tokenAddress",
          "type": "address"
        },
        {
          "internalType": "uint256",
          "name": "tokenId",
          "type": "uint256"
        },
        {
          "internalType": "address",
          "name": "owner",
          "type": "address"
        },
        {
          "internalType": "uint256",
          "name": "price",
          "type": "uint256"
        },
        {
          "internalType": "uint256",
          "name": "collectionId",
          "type": "uint256"
        },
        {
          "internalType": "uint256",
          "name": "diamondTokenAmount",
          "type": "uint256"
        },
        {
          "internalType": "bool",
          "name": "collateralLocked",
          "type": "bool"
        },
        {
          "internalType": "bool",
          "name": "collateralReturned",
          "type": "bool"
        },
        {
          "internalType": "uint256",
          "name": "collectionIndex",
          "type": "uint256"
        }
      ],
      "stateMutability": "view",
      "type": "function",
      "constant": true
    },
    {
      "inputs": [],
      "name": "pricePrecesion",
      "outputs": [
        {
          "internalType": "uint256",
          "name": "",
          "type": "uint256"
        }
      ],
      "stateMutability": "view",
      "type": "function",
      "constant": true
    },
    {
      "inputs": [
        {
          "internalType": "bytes32",
          "name": "role",
          "type": "bytes32"
        },
        {
          "internalType": "address",
          "name": "account",
          "type": "address"
        }
      ],
      "name": "renounceRole",
      "outputs": [],
      "stateMutability": "nonpayable",
      "type": "function"
    },
    {
      "inputs": [
        {
          "internalType": "bytes32",
          "name": "role",
          "type": "bytes32"
        },
        {
          "internalType": "address",
          "name": "account",
          "type": "address"
        }
      ],
      "name": "revokeRole",
      "outputs": [],
      "stateMutability": "nonpayable",
      "type": "function"
    },
    {
      "inputs": [
        {
          "internalType": "bytes4",
          "name": "interfaceId",
          "type": "bytes4"
        }
      ],
      "name": "supportsInterface",
      "outputs": [
        {
          "internalType": "bool",
          "name": "",
          "type": "bool"
        }
      ],
      "stateMutability": "view",
      "type": "function",
      "constant": true
    },
    {
      "inputs": [
        {
          "internalType": "address",
          "name": "",
          "type": "address"
        },
        {
          "internalType": "uint256",
          "name": "",
          "type": "uint256"
        }
      ],
      "name": "usersCollection",
      "outputs": [
        {
          "internalType": "uint256",
          "name": "",
          "type": "uint256"
        }
      ],
      "stateMutability": "view",
      "type": "function",
      "constant": true
    },
    {
      "inputs": [
        {
          "internalType": "address",
          "name": "",
          "type": "address"
        },
        {
          "internalType": "uint256",
          "name": "",
          "type": "uint256"
        }
      ],
      "name": "usersNFT",
      "outputs": [
        {
          "internalType": "uint256",
          "name": "",
          "type": "uint256"
        }
      ],
      "stateMutability": "view",
      "type": "function",
      "constant": true
    },
    {
      "inputs": [
        {
          "internalType": "contract IERC20",
          "name": "_token",
          "type": "address"
        }
      ],
      "name": "setCollateralToken",
      "outputs": [],
      "stateMutability": "nonpayable",
      "type": "function"
    },
    {
      "inputs": [
        {
          "internalType": "contract IDiamondToken",
          "name": "_token",
          "type": "address"
        }
      ],
      "name": "setNativeToken",
      "outputs": [],
      "stateMutability": "nonpayable",
      "type": "function"
    },
    {
      "inputs": [
        {
          "internalType": "uint256",
          "name": "_size",
          "type": "uint256"
        }
      ],
      "name": "setCollectionSize",
      "outputs": [],
      "stateMutability": "nonpayable",
      "type": "function"
    },
    {
      "inputs": [
        {
          "internalType": "string",
          "name": "name_",
          "type": "string"
        },
        {
          "internalType": "uint256",
          "name": "size_",
          "type": "uint256"
        },
        {
          "internalType": "bool",
          "name": "acceptCollateral_",
          "type": "bool"
        },
        {
          "internalType": "address[]",
          "name": "collaborators_",
          "type": "address[]"
        }
      ],
      "name": "createCollection",
      "outputs": [],
      "stateMutability": "nonpayable",
      "type": "function"
    },
    {
      "inputs": [
        {
          "internalType": "uint256",
          "name": "_price",
          "type": "uint256"
        }
      ],
      "name": "setDiamondTokenPrice",
      "outputs": [],
      "stateMutability": "nonpayable",
      "type": "function"
    },
    {
      "inputs": [],
      "name": "getDiamondTokenPrice",
      "outputs": [
        {
          "internalType": "uint256",
          "name": "",
          "type": "uint256"
        }
      ],
      "stateMutability": "view",
      "type": "function",
      "constant": true
    },
    {
      "inputs": [
        {
          "internalType": "uint256",
          "name": "_price",
          "type": "uint256"
        }
      ],
      "name": "setCollateralTokenPrice",
      "outputs": [],
      "stateMutability": "nonpayable",
      "type": "function"
    },
    {
      "inputs": [],
      "name": "getCollateralTokenPrice",
      "outputs": [
        {
          "internalType": "uint256",
          "name": "",
          "type": "uint256"
        }
      ],
      "stateMutability": "view",
      "type": "function",
      "constant": true
    },
    {
      "inputs": [
        {
          "internalType": "uint256",
          "name": "_amount",
          "type": "uint256"
        }
      ],
      "name": "amountDmgTokenOut",
      "outputs": [
        {
          "internalType": "uint256",
          "name": "",
          "type": "uint256"
        }
      ],
      "stateMutability": "view",
      "type": "function",
      "constant": true
    },
    {
      "inputs": [
        {
          "internalType": "address",
          "name": "tokenAddress_",
          "type": "address"
        },
        {
          "internalType": "uint256",
          "name": "tokenId_",
          "type": "uint256"
        },
        {
          "internalType": "uint256",
          "name": "collectionId_",
          "type": "uint256"
        },
        {
          "internalType": "uint256",
          "name": "price_",
          "type": "uint256"
        }
      ],
      "name": "addNFTToCollection",
      "outputs": [],
      "stateMutability": "nonpayable",
      "type": "function"
    },
    {
      "inputs": [
        {
          "internalType": "address",
          "name": "tokenAddress_",
          "type": "address"
        },
        {
          "internalType": "uint256",
          "name": "nftId_",
          "type": "uint256"
        },
        {
          "internalType": "uint256",
          "name": "collectionId_",
          "type": "uint256"
        }
      ],
      "name": "removeNFTFromCollection",
      "outputs": [],
      "stateMutability": "nonpayable",
      "type": "function"
    },
    {
      "inputs": [
        {
          "internalType": "address",
          "name": "",
          "type": "address"
        },
        {
          "internalType": "address",
          "name": "",
          "type": "address"
        },
        {
          "internalType": "uint256",
          "name": "",
          "type": "uint256"
        },
        {
          "internalType": "bytes",
          "name": "",
          "type": "bytes"
        }
      ],
      "name": "onERC721Received",
      "outputs": [
        {
          "internalType": "bytes4",
          "name": "",
          "type": "bytes4"
        }
      ],
      "stateMutability": "nonpayable",
      "type": "function"
    }
  ],
  "bytecode": "0x60806040523480156200001157600080fd5b506040516200456b3803806200456b8339818101604052810190620000379190620002ab565b6200005b6000801b6200004f6200011b60201b60201c565b6200012360201b60201c565b60006001819055506000600281905550600560038190555062989680600481905550620f4240600581905550620f424060068190555081600860006101000a81548173ffffffffffffffffffffffffffffffffffffffff021916908373ffffffffffffffffffffffffffffffffffffffff16021790555080600760006101000a81548173ffffffffffffffffffffffffffffffffffffffff021916908373ffffffffffffffffffffffffffffffffffffffff16021790555050506200033a565b600033905090565b6200013582826200013960201b60201c565b5050565b6200014b82826200022a60201b60201c565b6200022657600160008084815260200190815260200160002060000160008373ffffffffffffffffffffffffffffffffffffffff1673ffffffffffffffffffffffffffffffffffffffff16815260200190815260200160002060006101000a81548160ff021916908315150217905550620001cb6200011b60201b60201c565b73ffffffffffffffffffffffffffffffffffffffff168173ffffffffffffffffffffffffffffffffffffffff16837f2f8788117e7eff1d82e926ec794901d17c78024a50270940304540a733656f0d60405160405180910390a45b5050565b600080600084815260200190815260200160002060000160008373ffffffffffffffffffffffffffffffffffffffff1673ffffffffffffffffffffffffffffffffffffffff16815260200190815260200160002060009054906101000a900460ff16905092915050565b600081519050620002a58162000320565b92915050565b60008060408385031215620002bf57600080fd5b6000620002cf8582860162000294565b9250506020620002e28582860162000294565b9150509250929050565b6000620002f98262000300565b9050919050565b600073ffffffffffffffffffffffffffffffffffffffff82169050919050565b6200032b81620002ec565b81146200033757600080fd5b50565b614221806200034a6000396000f3fe608060405234801561001057600080fd5b506004361061021c5760003560e01c806391d1485411610125578063c5da1e7e116100ad578063e5c056031161007c578063e5c0560314610679578063ee52a6f0146106a9578063ee5be91f146106d9578063f195341e14610709578063f728bc04146107395761021c565b8063c5da1e7e146105e9578063d0e3cd6314610607578063d547741f1461063f578063e574609e1461065b5761021c565b8063aca8ffe7116100f4578063aca8ffe71461053f578063acc72bea1461055b578063b2016bd414610577578063b510eccf14610595578063bf162d67146105b15761021c565b806391d14854146104a3578063a1c61982146104d3578063a1f7132d14610503578063a217fddf146105215761021c565b80633b7d2cca116101a8578063666181a911610177578063666181a91461041357806369a13b551461042f5780636da1e1021461044d5780638aea3ce1146104695780638d8d3933146104875761021c565b80633b7d2cca1461038b5780633ddc99eb146103bb5780634b9346c3146103d75780635187a82d146103f55761021c565b806315143950116101ef57806315143950146102cd578063167ef495146102eb578063248a9ca3146103235780632f2ff15d1461035357806336568abe1461036f5761021c565b806301ffc9a7146102215780630da2fbe0146102515780631123927b14610281578063150b7a021461029d575b600080fd5b61023b600480360381019061023691906132e3565b610757565b6040516102489190613adb565b60405180910390f35b61026b600480360381019061026691906133f6565b6107d1565b6040516102789190613cc4565b60405180910390f35b61029b600480360381019061029691906131f2565b6107e9565b005b6102b760048036038101906102b291906130ec565b610df9565b6040516102c49190613b11565b60405180910390f35b6102d5610e0d565b6040516102e29190613cc4565b60405180910390f35b610305600480360381019061030091906133f6565b610e17565b60405161031a99989796959493929190613991565b60405180910390f35b61033d6004803603810190610338919061327e565b610f1a565b60405161034a9190613af6565b60405180910390f35b61036d600480360381019061036891906132a7565b610f39565b005b610389600480360381019061038491906132a7565b610f62565b005b6103a560048036038101906103a091906133f6565b610fe5565b6040516103b29190613cc4565b60405180910390f35b6103d560048036038101906103d091906131a3565b611027565b005b6103df611190565b6040516103ec9190613cc4565b60405180910390f35b6103fd611196565b60405161040a9190613cc4565b60405180910390f35b61042d60048036038101906104289190613335565b61119c565b005b610437611233565b6040516104449190613cc4565b60405180910390f35b6104676004803603810190610462919061330c565b611239565b005b6104716112d0565b60405161047e9190613cc4565b60405180910390f35b6104a1600480360381019061049c91906133f6565b6112d6565b005b6104bd60048036038101906104b891906132a7565b6112e0565b6040516104ca9190613adb565b60405180910390f35b6104ed60048036038101906104e89190613167565b61134a565b6040516104fa9190613cc4565b60405180910390f35b61050b61137b565b6040516105189190613cc4565b60405180910390f35b610529611381565b6040516105369190613af6565b60405180910390f35b610559600480360381019061055491906133f6565b611388565b005b610575600480360381019061057091906133f6565b6113e5565b005b61057f6113ef565b60405161058c9190613b47565b60405180910390f35b6105af60048036038101906105aa919061335e565b611415565b005b6105cb60048036038101906105c691906133f6565b611744565b6040516105e099989796959493929190613a4e565b60405180910390f35b6105f16117fc565b6040516105fe9190613cc4565b60405180910390f35b610621600480360381019061061c9190613484565b611806565b60405161063699989796959493929190613a4e565b60405180910390f35b610659600480360381019061065491906132a7565b6118cb565b005b6106636118f4565b6040516106709190613cc4565b60405180910390f35b610693600480360381019061068e9190613448565b6118fa565b6040516106a09190613adb565b60405180910390f35b6106c360048036038101906106be9190613167565b611929565b6040516106d09190613cc4565b60405180910390f35b6106f360048036038101906106ee9190613167565b61195a565b6040516107009190613cc4565b60405180910390f35b610723600480360381019061071e9190613484565b61197f565b604051610730919061393f565b60405180910390f35b6107416119cd565b60405161074e9190613b2c565b60405180910390f35b60007f7965db0b000000000000000000000000000000000000000000000000000000007bffffffffffffffffffffffffffffffffffffffffffffffffffffffff1916827bffffffffffffffffffffffffffffffffffffffffffffffffffffffff191614806107ca57506107c9826119f3565b5b9050919050565b600f6020528060005260406000206000915090505481565b6000600c600084815260200190815260200160002090506108276001600f600086815260200190815260200160002054611a5d90919063ffffffff16565b600f600085815260200190815260200160002081905550610846611a73565b73ffffffffffffffffffffffffffffffffffffffff168573ffffffffffffffffffffffffffffffffffffffff16636352211e866040518263ffffffff1660e01b81526004016108959190613cc4565b60206040518083038186803b1580156108ad57600080fd5b505afa1580156108c1573d6000803e3d6000fd5b505050506040513d601f19601f820116820180604052508101906108e591906130c3565b73ffffffffffffffffffffffffffffffffffffffff161461093b576040517f08c379a000000000000000000000000000000000000000000000000000000000815260040161093290613bc4565b60405180910390fd5b610943611a73565b73ffffffffffffffffffffffffffffffffffffffff168160000160009054906101000a900473ffffffffffffffffffffffffffffffffffffffff1673ffffffffffffffffffffffffffffffffffffffff161480610a015750600e600084815260200190815260200160002060006109b8611a73565b73ffffffffffffffffffffffffffffffffffffffff1673ffffffffffffffffffffffffffffffffffffffff16815260200190815260200160002060009054906101000a900460ff165b610a40576040517f08c379a0000000000000000000000000000000000000000000000000000000008152600401610a3790613c44565b60405180910390fd5b8060020154600f60008581526020019081526020016000205410610a99576040517f08c379a0000000000000000000000000000000000000000000000000000000008152600401610a9090613c04565b60405180910390fd5b6000610ab7600654610aa9610e0d565b611a7b90919063ffffffff16565b90506000610ace8285611a7b90919063ffffffff16565b905080600760009054906101000a900473ffffffffffffffffffffffffffffffffffffffff1673ffffffffffffffffffffffffffffffffffffffff166370a08231336040518263ffffffff1660e01b8152600401610b2c919061393f565b60206040518083038186803b158015610b4457600080fd5b505afa158015610b58573d6000803e3d6000fd5b505050506040513d601f19601f82011682018060405250810190610b7c919061341f565b1015610bbd576040517f08c379a0000000000000000000000000000000000000000000000000000000008152600401610bb490613c24565b60405180910390fd5b610bd4848460030154611a5d90919063ffffffff16565b8360030181905550600083600801549050610bfd60018560080154611a5d90919063ffffffff16565b84600801819055506000600154905084600c60008981526020019081526020016000206000820160009054906101000a900473ffffffffffffffffffffffffffffffffffffffff168160000160006101000a81548173ffffffffffffffffffffffffffffffffffffffff021916908373ffffffffffffffffffffffffffffffffffffffff1602179055506001820181600101908054610c9b90614002565b610ca6929190612bfe565b50600282015481600201556003820154816003015560048201548160040155600582015481600501556006820160009054906101000a900460ff168160060160006101000a81548160ff0219169083151502179055506007820154816007015560088201548160080155905050600760009054906101000a900473ffffffffffffffffffffffffffffffffffffffff1673ffffffffffffffffffffffffffffffffffffffff166323b872dd3330866040518463ffffffff1660e01b8152600401610d729392919061395a565b602060405180830381600087803b158015610d8c57600080fd5b505af1158015610da0573d6000803e3d6000fd5b505050506040513d601f19601f82011682018060405250810190610dc49190613255565b50610dda60018054611a5d90919063ffffffff16565b600181905550610dee898989898587611a91565b505050505050505050565b600063150b7a0260e01b9050949350505050565b6000600554905090565b600c6020528060005260406000206000915090508060000160009054906101000a900473ffffffffffffffffffffffffffffffffffffffff1690806001018054610e6090614002565b80601f0160208091040260200160405190810160405280929190818152602001828054610e8c90614002565b8015610ed95780601f10610eae57610100808354040283529160200191610ed9565b820191906000526020600020905b815481529060010190602001808311610ebc57829003601f168201915b5050505050908060020154908060030154908060040154908060050154908060060160009054906101000a900460ff16908060070154908060080154905089565b6000806000838152602001908152602001600020600101549050919050565b610f4282610f1a565b610f5381610f4e611a73565b611fa6565b610f5d8383612043565b505050565b610f6a611a73565b73ffffffffffffffffffffffffffffffffffffffff168173ffffffffffffffffffffffffffffffffffffffff1614610fd7576040517f08c379a0000000000000000000000000000000000000000000000000000000008152600401610fce90613ca4565b60405180910390fd5b610fe18282612123565b5050565b600080611004600654610ff66117fc565b611a7b90919063ffffffff16565b9050600061101b8285611a7b90919063ffffffff16565b90508092505050919050565b6000600b60008573ffffffffffffffffffffffffffffffffffffffff1673ffffffffffffffffffffffffffffffffffffffff16815260200190815260200160002060008481526020019081526020016000205490506000600982815481106110b8577f4e487b7100000000000000000000000000000000000000000000000000000000600052603260045260246000fd5b90600052602060002090600802019050600860009054906101000a900473ffffffffffffffffffffffffffffffffffffffff1673ffffffffffffffffffffffffffffffffffffffff166323b872dd333084600501546040518463ffffffff1660e01b815260040161112b9392919061395a565b602060405180830381600087803b15801561114557600080fd5b505af1158015611159573d6000803e3d6000fd5b505050506040513d601f19601f8201168201806040525081019061117d9190613255565b50611189858585612204565b5050505050565b60065481565b60025481565b6111b06000801b6111ab611a73565b6112e0565b6111ef576040517f08c379a00000000000000000000000000000000000000000000000000000000081526004016111e690613be4565b60405180910390fd5b80600760006101000a81548173ffffffffffffffffffffffffffffffffffffffff021916908373ffffffffffffffffffffffffffffffffffffffff16021790555050565b60045481565b61124d6000801b611248611a73565b6112e0565b61128c576040517f08c379a000000000000000000000000000000000000000000000000000000000815260040161128390613be4565b60405180910390fd5b80600860006101000a81548173ffffffffffffffffffffffffffffffffffffffff021916908373ffffffffffffffffffffffffffffffffffffffff16021790555050565b60055481565b8060058190555050565b600080600084815260200190815260200160002060000160008373ffffffffffffffffffffffffffffffffffffffff1673ffffffffffffffffffffffffffffffffffffffff16815260200190815260200160002060009054906101000a900460ff16905092915050565b6011602052816000526040600020818154811061136657600080fd5b90600052602060002001600091509150505481565b60035481565b6000801b81565b61139c6000801b611397611a73565b6112e0565b6113db576040517f08c379a00000000000000000000000000000000000000000000000000000000081526004016113d290613be4565b60405180910390fd5b8060038190555050565b8060048190555050565b600760009054906101000a900473ffffffffffffffffffffffffffffffffffffffff1681565b60035484101561145a576040517f08c379a000000000000000000000000000000000000000000000000000000000815260040161145190613b84565b60405180910390fd5b611462612c8b565b33816000019073ffffffffffffffffffffffffffffffffffffffff16908173ffffffffffffffffffffffffffffffffffffffff16815250508581602001819052508481604001818152505060008160600181815250506000816080018181525050600081610100018181525050838160c00190151590811515815250506114f56001600254611a5d90919063ffffffff16565b6002819055506000600254905081600c600083815260200190815260200160002060008201518160000160006101000a81548173ffffffffffffffffffffffffffffffffffffffff021916908373ffffffffffffffffffffffffffffffffffffffff1602179055506020820151816001019080519060200190611579929190612cef565b5060408201518160020155606082015181600301556080820151816004015560a0820151816005015560c08201518160060160006101000a81548160ff02191690831515021790555060e082015181600701556101008201518160080155905050601160003373ffffffffffffffffffffffffffffffffffffffff1673ffffffffffffffffffffffffffffffffffffffff1681526020019081526020016000208190806001815401808255809150506001900390600052602060002001600090919091909150558383600d60008481526020019081526020016000209190611662929190612d75565b5060005b8484905081101561173a576001600e600084815260200190815260200160002060008787858181106116c1577f4e487b7100000000000000000000000000000000000000000000000000000000600052603260045260246000fd5b90506020020160208101906116d6919061309a565b73ffffffffffffffffffffffffffffffffffffffff1673ffffffffffffffffffffffffffffffffffffffff16815260200190815260200160002060006101000a81548160ff021916908315150217905550808061173290614034565b915050611666565b5050505050505050565b6009818154811061175457600080fd5b90600052602060002090600802016000915090508060000160009054906101000a900473ffffffffffffffffffffffffffffffffffffffff16908060010154908060020160009054906101000a900473ffffffffffffffffffffffffffffffffffffffff16908060030154908060040154908060050154908060060160009054906101000a900460ff16908060060160019054906101000a900460ff16908060070154905089565b6000600454905090565b6010602052816000526040600020818154811061182257600080fd5b9060005260206000209060080201600091509150508060000160009054906101000a900473ffffffffffffffffffffffffffffffffffffffff16908060010154908060020160009054906101000a900473ffffffffffffffffffffffffffffffffffffffff16908060030154908060040154908060050154908060060160009054906101000a900460ff16908060060160019054906101000a900460ff16908060070154905089565b6118d482610f1a565b6118e5816118e0611a73565b611fa6565b6118ef8383612123565b505050565b60015481565b600e6020528160005260406000206020528060005260406000206000915091509054906101000a900460ff1681565b600a602052816000526040600020818154811061194557600080fd5b90600052602060002001600091509150505481565b600b602052816000526040600020602052806000526040600020600091509150505481565b600d602052816000526040600020818154811061199b57600080fd5b906000526020600020016000915091509054906101000a900473ffffffffffffffffffffffffffffffffffffffff1681565b600860009054906101000a900473ffffffffffffffffffffffffffffffffffffffff1681565b60007f01ffc9a7000000000000000000000000000000000000000000000000000000007bffffffffffffffffffffffffffffffffffffffffffffffffffffffff1916827bffffffffffffffffffffffffffffffffffffffffffffffffffffffff1916149050919050565b60008183611a6b9190613d97565b905092915050565b600033905090565b60008183611a899190613ded565b905092915050565b8573ffffffffffffffffffffffffffffffffffffffff166342842e0e3330886040518463ffffffff1660e01b8152600401611ace9392919061395a565b600060405180830381600087803b158015611ae857600080fd5b505af1158015611afc573d6000803e3d6000fd5b50505050611b08612e15565b86816000019073ffffffffffffffffffffffffffffffffffffffff16908173ffffffffffffffffffffffffffffffffffffffff16815250508581602001818152505033816040019073ffffffffffffffffffffffffffffffffffffffff16908173ffffffffffffffffffffffffffffffffffffffff1681525050848160800181815250508381606001818152505081816101000181815250506000611bbf600654611bb16117fc565b611a7b90919063ffffffff16565b90506000611bd68287611a7b90919063ffffffff16565b9050600860009054906101000a900473ffffffffffffffffffffffffffffffffffffffff1673ffffffffffffffffffffffffffffffffffffffff166340c10f1933836040518363ffffffff1660e01b8152600401611c35929190613a25565b600060405180830381600087803b158015611c4f57600080fd5b505af1158015611c63573d6000803e3d6000fd5b50505050808360a0018181525050600983908060018154018082558091505060019003906000526020600020906008020160009091909190915060008201518160000160006101000a81548173ffffffffffffffffffffffffffffffffffffffff021916908373ffffffffffffffffffffffffffffffffffffffff1602179055506020820151816001015560408201518160020160006101000a81548173ffffffffffffffffffffffffffffffffffffffff021916908373ffffffffffffffffffffffffffffffffffffffff160217905550606082015181600301556080820151816004015560a0820151816005015560c08201518160060160006101000a81548160ff02191690831515021790555060e08201518160060160016101000a81548160ff021916908315150217905550610100820151816007015550506010600088815260200190815260200160002083908060018154018082558091505060019003906000526020600020906008020160009091909190915060008201518160000160006101000a81548173ffffffffffffffffffffffffffffffffffffffff021916908373ffffffffffffffffffffffffffffffffffffffff1602179055506020820151816001015560408201518160020160006101000a81548173ffffffffffffffffffffffffffffffffffffffff021916908373ffffffffffffffffffffffffffffffffffffffff160217905550606082015181600301556080820151816004015560a0820151816005015560c08201518160060160006101000a81548160ff02191690831515021790555060e08201518160060160016101000a81548160ff02191690831515021790555061010082015181600701555050600a60003373ffffffffffffffffffffffffffffffffffffffff1673ffffffffffffffffffffffffffffffffffffffff16815260200190815260200160002085908060018154018082558091505060019003906000526020600020016000909190919091505584600b60008b73ffffffffffffffffffffffffffffffffffffffff1673ffffffffffffffffffffffffffffffffffffffff16815260200190815260200160002060008a815260200190815260200160002081905550505050505050505050565b611fb082826112e0565b61203f57611fd58173ffffffffffffffffffffffffffffffffffffffff1660146128ee565b611fe38360001c60206128ee565b604051602001611ff4929190613905565b6040516020818303038152906040526040517f08c379a00000000000000000000000000000000000000000000000000000000081526004016120369190613b62565b60405180910390fd5b5050565b61204d82826112e0565b61211f57600160008084815260200190815260200160002060000160008373ffffffffffffffffffffffffffffffffffffffff1673ffffffffffffffffffffffffffffffffffffffff16815260200190815260200160002060006101000a81548160ff0219169083151502179055506120c4611a73565b73ffffffffffffffffffffffffffffffffffffffff168173ffffffffffffffffffffffffffffffffffffffff16837f2f8788117e7eff1d82e926ec794901d17c78024a50270940304540a733656f0d60405160405180910390a45b5050565b61212d82826112e0565b1561220057600080600084815260200190815260200160002060000160008373ffffffffffffffffffffffffffffffffffffffff1673ffffffffffffffffffffffffffffffffffffffff16815260200190815260200160002060006101000a81548160ff0219169083151502179055506121a5611a73565b73ffffffffffffffffffffffffffffffffffffffff168173ffffffffffffffffffffffffffffffffffffffff16837ff6391f5c32d9c69d2a47ea670b442974b53935d1edc7fd64eb21e047a839171b60405160405180910390a45b5050565b6000600c600083815260200190815260200160002090506000600b60008673ffffffffffffffffffffffffffffffffffffffff1673ffffffffffffffffffffffffffffffffffffffff16815260200190815260200160002060008581526020019081526020016000205490506000600982815481106122ac577f4e487b7100000000000000000000000000000000000000000000000000000000600052603260045260246000fd5b906000526020600020906008020190506122c4611a73565b73ffffffffffffffffffffffffffffffffffffffff1660098381548110612314577f4e487b7100000000000000000000000000000000000000000000000000000000600052603260045260246000fd5b906000526020600020906008020160020160009054906101000a900473ffffffffffffffffffffffffffffffffffffffff1673ffffffffffffffffffffffffffffffffffffffff1614806123be575061236b611a73565b73ffffffffffffffffffffffffffffffffffffffff168360000160009054906101000a900473ffffffffffffffffffffffffffffffffffffffff1673ffffffffffffffffffffffffffffffffffffffff16145b6123fd576040517f08c379a00000000000000000000000000000000000000000000000000000000081526004016123f490613c64565b60405180910390fd5b8360098381548110612438577f4e487b7100000000000000000000000000000000000000000000000000000000600052603260045260246000fd5b9060005260206000209060080201600401541461248a576040517f08c379a000000000000000000000000000000000000000000000000000000000815260040161248190613c84565b60405180910390fd5b6124ec600983815481106124c7577f4e487b7100000000000000000000000000000000000000000000000000000000600052603260045260246000fd5b9060005260206000209060080201600301548460030154612be890919063ffffffff16565b836003018190555061250c60018460080154612be890919063ffffffff16565b836008018190555082600c60008681526020019081526020016000206000820160009054906101000a900473ffffffffffffffffffffffffffffffffffffffff168160000160006101000a81548173ffffffffffffffffffffffffffffffffffffffff021916908373ffffffffffffffffffffffffffffffffffffffff16021790555060018201816001019080546125a390614002565b6125ae929190612bfe565b50600282015481600201556003820154816003015560048201548160040155600582015481600501556006820160009054906101000a900460ff168160060160006101000a81548160ff0219169083151502179055506007820154816007015560088201548160080155905050600060098381548110612657577f4e487b7100000000000000000000000000000000000000000000000000000000600052603260045260246000fd5b9060005260206000209060080201600401819055508573ffffffffffffffffffffffffffffffffffffffff166342842e0e308360020160009054906101000a900473ffffffffffffffffffffffffffffffffffffffff16886040518463ffffffff1660e01b81526004016126cd9392919061395a565b600060405180830381600087803b1580156126e757600080fd5b505af11580156126fb573d6000803e3d6000fd5b5050505060098281548110612739577f4e487b7100000000000000000000000000000000000000000000000000000000600052603260045260246000fd5b9060005260206000209060080201600080820160006101000a81549073ffffffffffffffffffffffffffffffffffffffff021916905560018201600090556002820160006101000a81549073ffffffffffffffffffffffffffffffffffffffff02191690556003820160009055600482016000905560058201600090556006820160006101000a81549060ff02191690556006820160016101000a81549060ff02191690556007820160009055505060106000858152602001908152602001600020816007015481548110612837577f4e487b7100000000000000000000000000000000000000000000000000000000600052603260045260246000fd5b9060005260206000209060080201600080820160006101000a81549073ffffffffffffffffffffffffffffffffffffffff021916905560018201600090556002820160006101000a81549073ffffffffffffffffffffffffffffffffffffffff02191690556003820160009055600482016000905560058201600090556006820160006101000a81549060ff02191690556006820160016101000a81549060ff021916905560078201600090555050505050505050565b6060600060028360026129019190613e1e565b61290b9190613d97565b67ffffffffffffffff81111561294a577f4e487b7100000000000000000000000000000000000000000000000000000000600052604160045260246000fd5b6040519080825280601f01601f19166020018201604052801561297c5781602001600182028036833780820191505090505b5090507f3000000000000000000000000000000000000000000000000000000000000000816000815181106129da577f4e487b7100000000000000000000000000000000000000000000000000000000600052603260045260246000fd5b60200101907effffffffffffffffffffffffffffffffffffffffffffffffffffffffffffff1916908160001a9053507f780000000000000000000000000000000000000000000000000000000000000081600181518110612a64577f4e487b7100000000000000000000000000000000000000000000000000000000600052603260045260246000fd5b60200101907effffffffffffffffffffffffffffffffffffffffffffffffffffffffffffff1916908160001a90535060006001846002612aa49190613e1e565b612aae9190613d97565b90505b6001811115612b9a577f3031323334353637383961626364656600000000000000000000000000000000600f861660108110612b16577f4e487b7100000000000000000000000000000000000000000000000000000000600052603260045260246000fd5b1a60f81b828281518110612b53577f4e487b7100000000000000000000000000000000000000000000000000000000600052603260045260246000fd5b60200101907effffffffffffffffffffffffffffffffffffffffffffffffffffffffffffff1916908160001a905350600485901c945080612b9390613fd8565b9050612ab1565b5060008414612bde576040517f08c379a0000000000000000000000000000000000000000000000000000000008152600401612bd590613ba4565b60405180910390fd5b8091505092915050565b60008183612bf69190613e78565b905092915050565b828054612c0a90614002565b90600052602060002090601f016020900481019282612c2c5760008555612c7a565b82601f10612c3d5780548555612c7a565b82800160010185558215612c7a57600052602060002091601f016020900482015b82811115612c79578254825591600101919060010190612c5e565b5b509050612c879190612e91565b5090565b604051806101200160405280600073ffffffffffffffffffffffffffffffffffffffff168152602001606081526020016000815260200160008152602001600081526020016000815260200160001515815260200160008152602001600081525090565b828054612cfb90614002565b90600052602060002090601f016020900481019282612d1d5760008555612d64565b82601f10612d3657805160ff1916838001178555612d64565b82800160010185558215612d64579182015b82811115612d63578251825591602001919060010190612d48565b5b509050612d719190612e91565b5090565b828054828255906000526020600020908101928215612e04579160200282015b82811115612e0357823573ffffffffffffffffffffffffffffffffffffffff168260006101000a81548173ffffffffffffffffffffffffffffffffffffffff021916908373ffffffffffffffffffffffffffffffffffffffff16021790555091602001919060010190612d95565b5b509050612e119190612e91565b5090565b604051806101200160405280600073ffffffffffffffffffffffffffffffffffffffff16815260200160008152602001600073ffffffffffffffffffffffffffffffffffffffff168152602001600081526020016000815260200160008152602001600015158152602001600015158152602001600081525090565b5b80821115612eaa576000816000905550600101612e92565b5090565b6000612ec1612ebc84613d10565b613cdf565b905082815260208101848484011115612ed957600080fd5b612ee4848285613f96565b509392505050565b6000612eff612efa84613d40565b613cdf565b905082815260208101848484011115612f1757600080fd5b612f22848285613f96565b509392505050565b600081359050612f398161414a565b92915050565b600081519050612f4e8161414a565b92915050565b60008083601f840112612f6657600080fd5b8235905067ffffffffffffffff811115612f7f57600080fd5b602083019150836020820283011115612f9757600080fd5b9250929050565b600081359050612fad81614161565b92915050565b600081519050612fc281614161565b92915050565b600081359050612fd781614178565b92915050565b600081359050612fec8161418f565b92915050565b600082601f83011261300357600080fd5b8135613013848260208601612eae565b91505092915050565b60008135905061302b816141a6565b92915050565b600081359050613040816141bd565b92915050565b600082601f83011261305757600080fd5b8135613067848260208601612eec565b91505092915050565b60008135905061307f816141d4565b92915050565b600081519050613094816141d4565b92915050565b6000602082840312156130ac57600080fd5b60006130ba84828501612f2a565b91505092915050565b6000602082840312156130d557600080fd5b60006130e384828501612f3f565b91505092915050565b6000806000806080858703121561310257600080fd5b600061311087828801612f2a565b945050602061312187828801612f2a565b935050604061313287828801613070565b925050606085013567ffffffffffffffff81111561314f57600080fd5b61315b87828801612ff2565b91505092959194509250565b6000806040838503121561317a57600080fd5b600061318885828601612f2a565b925050602061319985828601613070565b9150509250929050565b6000806000606084860312156131b857600080fd5b60006131c686828701612f2a565b93505060206131d786828701613070565b92505060406131e886828701613070565b9150509250925092565b6000806000806080858703121561320857600080fd5b600061321687828801612f2a565b945050602061322787828801613070565b935050604061323887828801613070565b925050606061324987828801613070565b91505092959194509250565b60006020828403121561326757600080fd5b600061327584828501612fb3565b91505092915050565b60006020828403121561329057600080fd5b600061329e84828501612fc8565b91505092915050565b600080604083850312156132ba57600080fd5b60006132c885828601612fc8565b92505060206132d985828601612f2a565b9150509250929050565b6000602082840312156132f557600080fd5b600061330384828501612fdd565b91505092915050565b60006020828403121561331e57600080fd5b600061332c8482850161301c565b91505092915050565b60006020828403121561334757600080fd5b600061335584828501613031565b91505092915050565b60008060008060006080868803121561337657600080fd5b600086013567ffffffffffffffff81111561339057600080fd5b61339c88828901613046565b95505060206133ad88828901613070565b94505060406133be88828901612f9e565b935050606086013567ffffffffffffffff8111156133db57600080fd5b6133e788828901612f54565b92509250509295509295909350565b60006020828403121561340857600080fd5b600061341684828501613070565b91505092915050565b60006020828403121561343157600080fd5b600061343f84828501613085565b91505092915050565b6000806040838503121561345b57600080fd5b600061346985828601613070565b925050602061347a85828601612f2a565b9150509250929050565b6000806040838503121561349757600080fd5b60006134a585828601613070565b92505060206134b685828601613070565b9150509250929050565b6134c981613eac565b82525050565b6134d881613ebe565b82525050565b6134e781613eca565b82525050565b6134f681613ed4565b82525050565b61350581613f4e565b82525050565b61351481613f72565b82525050565b600061352582613d70565b61352f8185613d7b565b935061353f818560208601613fa5565b61354881614139565b840191505092915050565b600061355e82613d70565b6135688185613d8c565b9350613578818560208601613fa5565b80840191505092915050565b6000613591600e83613d7b565b91507f53697a6520746f6f20736d616c6c0000000000000000000000000000000000006000830152602082019050919050565b60006135d1602083613d7b565b91507f537472696e67733a20686578206c656e67746820696e73756666696369656e746000830152602082019050919050565b6000613611601683613d7b565b91507f4f6e6c79204e4654206f776e65722063616e20616464000000000000000000006000830152602082019050919050565b6000613651601f83613d7b565b91507f41727468506f6f6c3a20596f7520617265206e6f74207468652061646d696e006000830152602082019050919050565b6000613691600f83613d7b565b91507f636f6c6c656374696f6e2066756c6c00000000000000000000000000000000006000830152602082019050919050565b60006136d1602083613d7b565b91507f4e6f7420656e6f756768206f6620636f6c6c61746572616c2062616c616e63656000830152602082019050919050565b6000613711602683613d7b565b91507f4e6565647320636f6c6c656374696f6e206f776e6572206f7220636f6c6c616260008301527f6f7261746f7200000000000000000000000000000000000000000000000000006020830152604082019050919050565b6000613777602d83613d7b565b91507f4f6e6c79204e4654206f776e6572206f7220636f6c6c656374696f6e206f776e60008301527f65722063616e2072656d6f7665000000000000000000000000000000000000006020830152604082019050919050565b60006137dd601583613d7b565b91507f4e4654206e6f7420696e20636f6c6c656374696f6e00000000000000000000006000830152602082019050919050565b600061381d601783613d8c565b91507f416363657373436f6e74726f6c3a206163636f756e74200000000000000000006000830152601782019050919050565b600061385d601183613d8c565b91507f206973206d697373696e6720726f6c65200000000000000000000000000000006000830152601182019050919050565b600061389d602f83613d7b565b91507f416363657373436f6e74726f6c3a2063616e206f6e6c792072656e6f756e636560008301527f20726f6c657320666f722073656c6600000000000000000000000000000000006020830152604082019050919050565b6138ff81613f44565b82525050565b600061391082613810565b915061391c8285613553565b915061392782613850565b91506139338284613553565b91508190509392505050565b600060208201905061395460008301846134c0565b92915050565b600060608201905061396f60008301866134c0565b61397c60208301856134c0565b61398960408301846138f6565b949350505050565b6000610120820190506139a7600083018c6134c0565b81810360208301526139b9818b61351a565b90506139c8604083018a6138f6565b6139d560608301896138f6565b6139e260808301886138f6565b6139ef60a08301876138f6565b6139fc60c08301866134cf565b613a0960e08301856138f6565b613a176101008301846138f6565b9a9950505050505050505050565b6000604082019050613a3a60008301856134c0565b613a4760208301846138f6565b9392505050565b600061012082019050613a64600083018c6134c0565b613a71602083018b6138f6565b613a7e604083018a6134c0565b613a8b60608301896138f6565b613a9860808301886138f6565b613aa560a08301876138f6565b613ab260c08301866134cf565b613abf60e08301856134cf565b613acd6101008301846138f6565b9a9950505050505050505050565b6000602082019050613af060008301846134cf565b92915050565b6000602082019050613b0b60008301846134de565b92915050565b6000602082019050613b2660008301846134ed565b92915050565b6000602082019050613b4160008301846134fc565b92915050565b6000602082019050613b5c600083018461350b565b92915050565b60006020820190508181036000830152613b7c818461351a565b905092915050565b60006020820190508181036000830152613b9d81613584565b9050919050565b60006020820190508181036000830152613bbd816135c4565b9050919050565b60006020820190508181036000830152613bdd81613604565b9050919050565b60006020820190508181036000830152613bfd81613644565b9050919050565b60006020820190508181036000830152613c1d81613684565b9050919050565b60006020820190508181036000830152613c3d816136c4565b9050919050565b60006020820190508181036000830152613c5d81613704565b9050919050565b60006020820190508181036000830152613c7d8161376a565b9050919050565b60006020820190508181036000830152613c9d816137d0565b9050919050565b60006020820190508181036000830152613cbd81613890565b9050919050565b6000602082019050613cd960008301846138f6565b92915050565b6000604051905081810181811067ffffffffffffffff82111715613d0657613d0561410a565b5b8060405250919050565b600067ffffffffffffffff821115613d2b57613d2a61410a565b5b601f19601f8301169050602081019050919050565b600067ffffffffffffffff821115613d5b57613d5a61410a565b5b601f19601f8301169050602081019050919050565b600081519050919050565b600082825260208201905092915050565b600081905092915050565b6000613da282613f44565b9150613dad83613f44565b9250827fffffffffffffffffffffffffffffffffffffffffffffffffffffffffffffffff03821115613de257613de161407d565b5b828201905092915050565b6000613df882613f44565b9150613e0383613f44565b925082613e1357613e126140ac565b5b828204905092915050565b6000613e2982613f44565b9150613e3483613f44565b9250817fffffffffffffffffffffffffffffffffffffffffffffffffffffffffffffffff0483118215151615613e6d57613e6c61407d565b5b828202905092915050565b6000613e8382613f44565b9150613e8e83613f44565b925082821015613ea157613ea061407d565b5b828203905092915050565b6000613eb782613f24565b9050919050565b60008115159050919050565b6000819050919050565b60007fffffffff0000000000000000000000000000000000000000000000000000000082169050919050565b6000613f0b82613eac565b9050919050565b6000613f1d82613eac565b9050919050565b600073ffffffffffffffffffffffffffffffffffffffff82169050919050565b6000819050919050565b6000613f5982613f60565b9050919050565b6000613f6b82613f24565b9050919050565b6000613f7d82613f84565b9050919050565b6000613f8f82613f24565b9050919050565b82818337600083830152505050565b60005b83811015613fc3578082015181840152602081019050613fa8565b83811115613fd2576000848401525b50505050565b6000613fe382613f44565b91506000821415613ff757613ff661407d565b5b600182039050919050565b6000600282049050600182168061401a57607f821691505b6020821081141561402e5761402d6140db565b5b50919050565b600061403f82613f44565b91507fffffffffffffffffffffffffffffffffffffffffffffffffffffffffffffffff8214156140725761407161407d565b5b600182019050919050565b7f4e487b7100000000000000000000000000000000000000000000000000000000600052601160045260246000fd5b7f4e487b7100000000000000000000000000000000000000000000000000000000600052601260045260246000fd5b7f4e487b7100000000000000000000000000000000000000000000000000000000600052602260045260246000fd5b7f4e487b7100000000000000000000000000000000000000000000000000000000600052604160045260246000fd5b6000601f19601f8301169050919050565b61415381613eac565b811461415e57600080fd5b50565b61416a81613ebe565b811461417557600080fd5b50565b61418181613eca565b811461418c57600080fd5b50565b61419881613ed4565b81146141a357600080fd5b50565b6141af81613f00565b81146141ba57600080fd5b50565b6141c681613f12565b81146141d157600080fd5b50565b6141dd81613f44565b81146141e857600080fd5b5056fea264697066735822122007d1d33e71d3f4851c0e2527f41bad086c1228f615ef19e5596b6b78036da67364736f6c63430008000033",
  "immutableReferences": {},
  "source": "// SPDX-License-Identifier: MIT\npragma solidity ^0.8.0;\n\n//import \"@openzeppelin/contracts/token/ERC721/extensions/ERC721URIStorage.sol\";\nimport \"@openzeppelin/contracts/token/ERC721/IERC721.sol\";\nimport \"@openzeppelin/contracts/utils/Counters.sol\";\nimport \"@openzeppelin/contracts/access/AccessControl.sol\";\nimport \"@openzeppelin/contracts/token/ERC721/IERC721Receiver.sol\";\nimport {SafeMath} from \"./utils/SafeMath.sol\";\nimport \"./interfaces/IERC20.sol\";\nimport \"./interfaces/IDiamondToken.sol\";\n\ncontract Batch is IERC721Receiver, AccessControl {\n    using SafeMath for uint256;\n\n    // declaring variables\n    uint256 public nftCounter;\n    uint256 public collectionCounter;\n    uint256 public minimumCollectionSize;\n    uint256 public diamondTokenPrice;\n    uint256 public collateralTokenPrice;\n    uint256 public pricePrecesion;\n\n    IERC20 public collateralToken;\n    IDiamondToken public diamondERC20token;\n    \n    // declaring struct\n    struct Collection {\n        address owner;\n        string name;\n        uint256 size;\n        uint256 totalPrice;\n        uint256 publishedAt;  // time that published.\n        uint256 collateralAmount;\n        bool acceptCollateral;\n        uint256 soldCount;\n        uint256 nftsCount;\n    }\n\n    struct NFT {\n        address tokenAddress;\n        uint256 tokenId;\n        address owner;\n        uint256 price;\n        uint256 collectionId;\n        uint256 diamondTokenAmount;\n        bool collateralLocked;\n        bool collateralReturned;\n        uint256 collectionIndex;\n    }\n\n    // This keeps record of all the NFT\n    NFT[] public allNFTs; \n    //mapping(uint256 => NFT) public allNFTs;\n    // This keeps record of a address(users nft) nft\n    mapping(address => uint256[]) public usersNFT;\n    // users address to tokenID to nftID (map users address to tokenID and NFT struct)\n    mapping(address => mapping(uint256 => uint256)) public nftTokenIndex;\n    //mapping(uint256 => mapping(uint256 => uint256)) public nftTokenIndex;\n    // all collection\n    mapping(uint256 => Collection) public allCollections; \n    // collectionId => collaborators ( All collaborators of a collection )\n    mapping(uint256 => address[]) public collaborators;\n    // collections collaborators \n    mapping(uint256 => mapping(address => bool)) public isCollaborator;\n    // Number of NFTs count in an collection\n    mapping(uint256 => uint256) public collectionsNftCount;\n    //  Nfts in an collection (collectionid to nfts)\n    mapping(uint256 => NFT[]) public nftsByCollectionId;\n    // users collection\n    mapping(address => uint256[]) public usersCollection;\n    //mapping(address )\n\n    \n    /* This is an moifier that makes sure only deployer of these contract can trigger\n    important functions */\n    modifier onlyAdmin() {\n        require(\n            hasRole(DEFAULT_ADMIN_ROLE, _msgSender()),\n            'ArthPool: You are not the admin'\n        );\n        _;\n    }\n\n    /*\n        In Constructor we are setting the admin, default values\n    */\n    constructor(\n        address _tokenAddress, \n        address _usdt\n    ) {\n        _setupRole(DEFAULT_ADMIN_ROLE, _msgSender());\n        nftCounter = 0;\n        collectionCounter = 0;\n        minimumCollectionSize = 5;\n        diamondTokenPrice = 10000000;\n        collateralTokenPrice = 1000000;\n        pricePrecesion = 1e6;\n\n        diamondERC20token = IDiamondToken(_tokenAddress);\n        collateralToken = IERC20(_usdt);\n    }\n\n    // setter to set the collateral token address ( By default its Mock USDT)\n    function setCollateralToken(IERC20 _token) public onlyAdmin {\n        collateralToken = _token;\n    }\n\n    // setter to set the native erc20 token address ( By default its Mock USDT)\n    function setNativeToken(IDiamondToken _token) public onlyAdmin {\n        diamondERC20token = _token;\n    }\n\n    // setter for minimum size of the collection\n    function setCollectionSize(uint256 _size) public onlyAdmin {\n        minimumCollectionSize = _size;\n    }\n\n    /*\n        here we are making the boxes which will hold nfts. \n        params :-\n            name - Name of the collection\n            size - Size of the collection\n            acceptCollatearal - Boolean field declared if the collection\n               requires collateral token in order to mint global Diamond erc20 Token\n            collaborators - array of all the collaborators of the collection\n    */\n    function createCollection(\n        string memory name_,\n        uint256 size_,\n        bool acceptCollateral_,\n        address[] calldata collaborators_\n    ) public {\n        require(size_ >= minimumCollectionSize, \"Size too small\");\n        \n        // Setting up the struct Collection values \n        Collection memory collection;\n        collection.owner = msg.sender;\n        collection.name = name_;\n        collection.size = size_;\n        collection.totalPrice = 0;\n        collection.publishedAt = 0;\n        collection.nftsCount = 0;\n        collection.acceptCollateral = acceptCollateral_;\n\n        // Incrementing the collection counter id\n        collectionCounter = collectionCounter.add(1);\n        uint256 collectionId = collectionCounter;\n        \n        // Storing the collection in a mapping with refernce to collection id\n        allCollections[collectionId] = collection;\n        // saving all the collections of a user with respect to his address\n        usersCollection[msg.sender].push(collectionId);\n        // saving all the collaborators\n        collaborators[collectionId] = collaborators_;\n\n        // looping through all the collaborators and setting there boolean feild\n        for (uint256 i = 0; i < collaborators_.length; i++) {\n            isCollaborator[collectionId][collaborators_[i]] = true;\n        }\n    }\n\n    /* \n        depositing NFT into an collection ( This is an private function which \n        will be called by an public function)\n        params :- \n            tokenaddress - token address of the nft\n    */\n    function setDiamondTokenPrice(uint256 _price) public {\n        diamondTokenPrice = _price;\n    }\n\n    function getDiamondTokenPrice() public view returns(uint256){\n       return diamondTokenPrice;\n    }\n\n    function setCollateralTokenPrice(uint256 _price) public {\n        collateralTokenPrice = _price;\n    }\n\n    function getCollateralTokenPrice() public view returns(uint256){\n        return collateralTokenPrice;\n    }\n\n    function amountDmgTokenOut(uint256 _amount) public view returns(uint256){\n        uint256 _diamondTokenPrice = getDiamondTokenPrice().div(pricePrecesion);\n        uint256 diamondTokenOut = _amount.div(_diamondTokenPrice);\n        return diamondTokenOut;\n    }\n\n    function _depositNFT(\n        address tokenAddress_,\n        uint256 tokenId_,\n        uint256 collectionId_, \n        uint256 price_,\n        uint256 nftsIndex_,\n        uint256 collectionIndex_\n    ) private {\n        IERC721(tokenAddress_).safeTransferFrom(msg.sender, address(this), tokenId_);\n\n        NFT memory nft;\n        nft.tokenAddress = tokenAddress_;\n        nft.tokenId = tokenId_;\n        nft.owner = msg.sender;\n        nft.collectionId = collectionId_;\n        nft.price = price_;\n        nft.collectionIndex = collectionIndex_;\n        \n        // transfering Diamond Token\n        uint256 _diamondTokenPrice = getDiamondTokenPrice().div(pricePrecesion);\n        uint256 diamondTokenOut = price_.div(_diamondTokenPrice);\n        diamondERC20token.mint(msg.sender, diamondTokenOut);\n\n        // Stroing the number of diamond token a person should return while reedeming NFT\n        nft.diamondTokenAmount = diamondTokenOut;\n\n        // Push to nftsByCollectionId.\n        allNFTs.push(nft);\n        nftsByCollectionId[collectionId_].push(nft);\n        usersNFT[msg.sender].push(nftsIndex_);\n\n        nftTokenIndex[tokenAddress_][tokenId_] = nftsIndex_;\n    }\n\n    function addNFTToCollection(\n        address tokenAddress_, \n        uint256 tokenId_, \n        uint256 collectionId_, \n        uint256 price_\n    ) public {\n        Collection storage collection = allCollections[collectionId_];\n        // number of nfts in a collection\n        collectionsNftCount[collectionId_] = collectionsNftCount[collectionId_].add(1);    \n        \n        require(IERC721(tokenAddress_).ownerOf(tokenId_) == _msgSender(), \"Only NFT owner can add\");\n        require(collection.owner == _msgSender() ||\n                isCollaborator[collectionId_][_msgSender()], \"Needs collection owner or collaborator\");\n        require(collectionsNftCount[collectionId_] < collection.size,\n                \"collection full\");\n        \n        uint256 _collateralTokenPrice = getCollateralTokenPrice().div(pricePrecesion);\n        uint256 collateralAmount = price_.div(_collateralTokenPrice);\n        require(collateralToken.balanceOf(msg.sender) >= collateralAmount, \"Not enough of collateral balance\");\n\n        collection.totalPrice = collection.totalPrice.add(price_);\n        uint256 _collectionIndex = collection.nftsCount;\n        collection.nftsCount = collection.nftsCount.add(1);\n        uint256 _nftsIndex = nftCounter;\n        allCollections[collectionId_] = collection;\n\n        // transfering the collateral token\n        collateralToken.transferFrom(msg.sender, address(this), collateralAmount);\n\n        // depositing the nft into the collection\n        nftCounter = nftCounter.add(1);\n        _depositNFT(\n            tokenAddress_, \n            tokenId_, \n            collectionId_, \n            price_,\n            _nftsIndex,\n            _collectionIndex\n        );\n    }\n\n    // Unused Function only for reference\n    function _withdrawNFT(\n        address who_, \n        uint256 nftId_\n    ) private {\n        allNFTs[nftId_].owner = address(0);\n        allNFTs[nftId_].collectionId = 0;\n\n        address tokenAddress = allNFTs[nftId_].tokenAddress;\n        uint256 tokenId = allNFTs[nftId_].tokenId;\n\n        IERC721(tokenAddress).safeTransferFrom(address(this), who_, tokenId);\n    }\n\n    function _removeNFTFromCollection(\n        address tokenAddress_,\n        uint256 nftId_, \n        uint256 collectionId_\n    ) private {\n        Collection storage collection = allCollections[collectionId_];\n        uint256 _nftsIndex = nftTokenIndex[tokenAddress_][nftId_];\n        NFT storage nft = allNFTs[_nftsIndex];\n\n        require(allNFTs[_nftsIndex].owner == _msgSender() ||\n                collection.owner == _msgSender(),\n                \"Only NFT owner or collection owner can remove\");\n        require(allNFTs[_nftsIndex].collectionId == collectionId_, \"NFT not in collection\");\n\n        collection.totalPrice = collection.totalPrice.sub(allNFTs[_nftsIndex].price);\n        collection.nftsCount = collection.nftsCount.sub(1);\n        allCollections[collectionId_] = collection;\n        //nftCounter = nftCounter.sub(1);\n        allNFTs[_nftsIndex].collectionId = 0;\n\n        // Returning the erc721 token back\n        IERC721(tokenAddress_).safeTransferFrom(address(this), nft.owner, nftId_);\n\n        delete allNFTs[_nftsIndex];\n        delete nftsByCollectionId[collectionId_][nft.collectionIndex];\n    }\n\n    function removeNFTFromCollection(address tokenAddress_, uint256 nftId_, uint256 collectionId_) public {\n        uint256 _nftsIndex = nftTokenIndex[tokenAddress_][nftId_];\n        NFT storage nft = allNFTs[_nftsIndex];\n        \n        // Person has to return the amount of diamond token back\n        IERC20(diamondERC20token).transferFrom(msg.sender, address(this), nft.diamondTokenAmount);\n\n        _removeNFTFromCollection(tokenAddress_, nftId_, collectionId_);\n    }\n\n    function onERC721Received(address, address, uint256, bytes memory) public virtual override returns (bytes4) {\n        return this.onERC721Received.selector;\n    }\n}",
  "sourcePath": "/Users/newsgate/Work/RFT-Batch-NFT/src/contracts/batch.sol",
  "compiler": {
    "name": "solc",
    "version": "0.8.0+commit.c7dfd78e.Emscripten.clang"
  },
  "schemaVersion": "3.3.3",
  "updatedAt": "2021-07-04T14:51:37.579Z",
  "networkType": "ethereum",
  "devdoc": {
    "kind": "dev",
    "methods": {
      "getRoleAdmin(bytes32)": {
        "details": "Returns the admin role that controls `role`. See {grantRole} and {revokeRole}. To change a role's admin, use {_setRoleAdmin}."
      },
      "grantRole(bytes32,address)": {
        "details": "Grants `role` to `account`. If `account` had not been already granted `role`, emits a {RoleGranted} event. Requirements: - the caller must have ``role``'s admin role."
      },
      "hasRole(bytes32,address)": {
        "details": "Returns `true` if `account` has been granted `role`."
      },
      "renounceRole(bytes32,address)": {
        "details": "Revokes `role` from the calling account. Roles are often managed via {grantRole} and {revokeRole}: this function's purpose is to provide a mechanism for accounts to lose their privileges if they are compromised (such as when a trusted device is misplaced). If the calling account had been granted `role`, emits a {RoleRevoked} event. Requirements: - the caller must be `account`."
      },
      "revokeRole(bytes32,address)": {
        "details": "Revokes `role` from `account`. If `account` had been granted `role`, emits a {RoleRevoked} event. Requirements: - the caller must have ``role``'s admin role."
      },
      "supportsInterface(bytes4)": {
        "details": "See {IERC165-supportsInterface}."
      }
    },
    "version": 1
  },
  "userdoc": {
    "kind": "user",
    "methods": {},
    "version": 1
  }
}