{
  "contractName": "Batch",
  "abi": [
    {
      "inputs": [
        {
          "internalType": "contract IERC20",
          "name": "_tokenAddress",
          "type": "address"
        },
        {
          "internalType": "contract IERC20",
          "name": "_usdt",
          "type": "address"
        }
      ],
      "stateMutability": "nonpayable",
      "type": "constructor"
    },
    {
      "anonymous": false,
      "inputs": [
        {
          "indexed": true,
          "internalType": "bytes32",
          "name": "role",
          "type": "bytes32"
        },
        {
          "indexed": true,
          "internalType": "bytes32",
          "name": "previousAdminRole",
          "type": "bytes32"
        },
        {
          "indexed": true,
          "internalType": "bytes32",
          "name": "newAdminRole",
          "type": "bytes32"
        }
      ],
      "name": "RoleAdminChanged",
      "type": "event"
    },
    {
      "anonymous": false,
      "inputs": [
        {
          "indexed": true,
          "internalType": "bytes32",
          "name": "role",
          "type": "bytes32"
        },
        {
          "indexed": true,
          "internalType": "address",
          "name": "account",
          "type": "address"
        },
        {
          "indexed": true,
          "internalType": "address",
          "name": "sender",
          "type": "address"
        }
      ],
      "name": "RoleGranted",
      "type": "event"
    },
    {
      "anonymous": false,
      "inputs": [
        {
          "indexed": true,
          "internalType": "bytes32",
          "name": "role",
          "type": "bytes32"
        },
        {
          "indexed": true,
          "internalType": "address",
          "name": "account",
          "type": "address"
        },
        {
          "indexed": true,
          "internalType": "address",
          "name": "sender",
          "type": "address"
        }
      ],
      "name": "RoleRevoked",
      "type": "event"
    },
    {
      "inputs": [],
      "name": "DEFAULT_ADMIN_ROLE",
      "outputs": [
        {
          "internalType": "bytes32",
          "name": "",
          "type": "bytes32"
        }
      ],
      "stateMutability": "view",
      "type": "function",
      "constant": true
    },
    {
      "inputs": [
        {
          "internalType": "uint256",
          "name": "",
          "type": "uint256"
        }
      ],
      "name": "allCollections",
      "outputs": [
        {
          "internalType": "address",
          "name": "owner",
          "type": "address"
        },
        {
          "internalType": "string",
          "name": "name",
          "type": "string"
        },
        {
          "internalType": "uint256",
          "name": "size",
          "type": "uint256"
        },
        {
          "internalType": "uint256",
          "name": "totalPrice",
          "type": "uint256"
        },
        {
          "internalType": "uint256",
          "name": "publishedAt",
          "type": "uint256"
        },
        {
          "internalType": "uint256",
          "name": "collateralAmount",
          "type": "uint256"
        },
        {
          "internalType": "bool",
          "name": "acceptCollateral",
          "type": "bool"
        },
        {
          "internalType": "uint256",
          "name": "soldCount",
          "type": "uint256"
        },
        {
          "internalType": "uint256",
          "name": "nftsCount",
          "type": "uint256"
        }
      ],
      "stateMutability": "view",
      "type": "function",
      "constant": true
    },
    {
      "inputs": [
        {
          "internalType": "uint256",
          "name": "",
          "type": "uint256"
        }
      ],
      "name": "allNFTs",
      "outputs": [
        {
          "internalType": "address",
          "name": "tokenAddress",
          "type": "address"
        },
        {
          "internalType": "uint256",
          "name": "tokenId",
          "type": "uint256"
        },
        {
          "internalType": "address",
          "name": "owner",
          "type": "address"
        },
        {
          "internalType": "uint256",
          "name": "price",
          "type": "uint256"
        },
        {
          "internalType": "uint256",
          "name": "collectionId",
          "type": "uint256"
        },
        {
          "internalType": "bool",
          "name": "collateralLocked",
          "type": "bool"
        },
        {
          "internalType": "bool",
          "name": "collateralReturned",
          "type": "bool"
        },
        {
          "internalType": "uint256",
          "name": "collectionIndex",
          "type": "uint256"
        }
      ],
      "stateMutability": "view",
      "type": "function",
      "constant": true
    },
    {
      "inputs": [
        {
          "internalType": "uint256",
          "name": "",
          "type": "uint256"
        },
        {
          "internalType": "uint256",
          "name": "",
          "type": "uint256"
        }
      ],
      "name": "collaborators",
      "outputs": [
        {
          "internalType": "address",
          "name": "",
          "type": "address"
        }
      ],
      "stateMutability": "view",
      "type": "function",
      "constant": true
    },
    {
      "inputs": [],
      "name": "collateralToken",
      "outputs": [
        {
          "internalType": "contract IERC20",
          "name": "",
          "type": "address"
        }
      ],
      "stateMutability": "view",
      "type": "function",
      "constant": true
    },
    {
      "inputs": [],
      "name": "collectionCounter",
      "outputs": [
        {
          "internalType": "uint256",
          "name": "",
          "type": "uint256"
        }
      ],
      "stateMutability": "view",
      "type": "function",
      "constant": true
    },
    {
      "inputs": [
        {
          "internalType": "uint256",
          "name": "",
          "type": "uint256"
        }
      ],
      "name": "collectionsNftCount",
      "outputs": [
        {
          "internalType": "uint256",
          "name": "",
          "type": "uint256"
        }
      ],
      "stateMutability": "view",
      "type": "function",
      "constant": true
    },
    {
      "inputs": [],
      "name": "diamondERC20token",
      "outputs": [
        {
          "internalType": "contract IERC20",
          "name": "",
          "type": "address"
        }
      ],
      "stateMutability": "view",
      "type": "function",
      "constant": true
    },
    {
      "inputs": [
        {
          "internalType": "bytes32",
          "name": "role",
          "type": "bytes32"
        }
      ],
      "name": "getRoleAdmin",
      "outputs": [
        {
          "internalType": "bytes32",
          "name": "",
          "type": "bytes32"
        }
      ],
      "stateMutability": "view",
      "type": "function",
      "constant": true
    },
    {
      "inputs": [
        {
          "internalType": "bytes32",
          "name": "role",
          "type": "bytes32"
        },
        {
          "internalType": "address",
          "name": "account",
          "type": "address"
        }
      ],
      "name": "grantRole",
      "outputs": [],
      "stateMutability": "nonpayable",
      "type": "function"
    },
    {
      "inputs": [
        {
          "internalType": "bytes32",
          "name": "role",
          "type": "bytes32"
        },
        {
          "internalType": "address",
          "name": "account",
          "type": "address"
        }
      ],
      "name": "hasRole",
      "outputs": [
        {
          "internalType": "bool",
          "name": "",
          "type": "bool"
        }
      ],
      "stateMutability": "view",
      "type": "function",
      "constant": true
    },
    {
      "inputs": [
        {
          "internalType": "uint256",
          "name": "",
          "type": "uint256"
        },
        {
          "internalType": "address",
          "name": "",
          "type": "address"
        }
      ],
      "name": "isCollaborator",
      "outputs": [
        {
          "internalType": "bool",
          "name": "",
          "type": "bool"
        }
      ],
      "stateMutability": "view",
      "type": "function",
      "constant": true
    },
    {
      "inputs": [],
      "name": "minimumCollectionSize",
      "outputs": [
        {
          "internalType": "uint256",
          "name": "",
          "type": "uint256"
        }
      ],
      "stateMutability": "view",
      "type": "function",
      "constant": true
    },
    {
      "inputs": [],
      "name": "nftCounter",
      "outputs": [
        {
          "internalType": "uint256",
          "name": "",
          "type": "uint256"
        }
      ],
      "stateMutability": "view",
      "type": "function",
      "constant": true
    },
    {
      "inputs": [
        {
          "internalType": "address",
          "name": "",
          "type": "address"
        },
        {
          "internalType": "uint256",
          "name": "",
          "type": "uint256"
        }
      ],
      "name": "nftTokenIndex",
      "outputs": [
        {
          "internalType": "uint256",
          "name": "",
          "type": "uint256"
        }
      ],
      "stateMutability": "view",
      "type": "function",
      "constant": true
    },
    {
      "inputs": [
        {
          "internalType": "uint256",
          "name": "",
          "type": "uint256"
        },
        {
          "internalType": "uint256",
          "name": "",
          "type": "uint256"
        }
      ],
      "name": "nftsByCollectionId",
      "outputs": [
        {
          "internalType": "address",
          "name": "tokenAddress",
          "type": "address"
        },
        {
          "internalType": "uint256",
          "name": "tokenId",
          "type": "uint256"
        },
        {
          "internalType": "address",
          "name": "owner",
          "type": "address"
        },
        {
          "internalType": "uint256",
          "name": "price",
          "type": "uint256"
        },
        {
          "internalType": "uint256",
          "name": "collectionId",
          "type": "uint256"
        },
        {
          "internalType": "bool",
          "name": "collateralLocked",
          "type": "bool"
        },
        {
          "internalType": "bool",
          "name": "collateralReturned",
          "type": "bool"
        },
        {
          "internalType": "uint256",
          "name": "collectionIndex",
          "type": "uint256"
        }
      ],
      "stateMutability": "view",
      "type": "function",
      "constant": true
    },
    {
      "inputs": [
        {
          "internalType": "bytes32",
          "name": "role",
          "type": "bytes32"
        },
        {
          "internalType": "address",
          "name": "account",
          "type": "address"
        }
      ],
      "name": "renounceRole",
      "outputs": [],
      "stateMutability": "nonpayable",
      "type": "function"
    },
    {
      "inputs": [
        {
          "internalType": "bytes32",
          "name": "role",
          "type": "bytes32"
        },
        {
          "internalType": "address",
          "name": "account",
          "type": "address"
        }
      ],
      "name": "revokeRole",
      "outputs": [],
      "stateMutability": "nonpayable",
      "type": "function"
    },
    {
      "inputs": [
        {
          "internalType": "bytes4",
          "name": "interfaceId",
          "type": "bytes4"
        }
      ],
      "name": "supportsInterface",
      "outputs": [
        {
          "internalType": "bool",
          "name": "",
          "type": "bool"
        }
      ],
      "stateMutability": "view",
      "type": "function",
      "constant": true
    },
    {
      "inputs": [
        {
          "internalType": "address",
          "name": "",
          "type": "address"
        },
        {
          "internalType": "uint256",
          "name": "",
          "type": "uint256"
        }
      ],
      "name": "usersCollection",
      "outputs": [
        {
          "internalType": "uint256",
          "name": "",
          "type": "uint256"
        }
      ],
      "stateMutability": "view",
      "type": "function",
      "constant": true
    },
    {
      "inputs": [
        {
          "internalType": "address",
          "name": "",
          "type": "address"
        },
        {
          "internalType": "uint256",
          "name": "",
          "type": "uint256"
        }
      ],
      "name": "usersNFT",
      "outputs": [
        {
          "internalType": "uint256",
          "name": "",
          "type": "uint256"
        }
      ],
      "stateMutability": "view",
      "type": "function",
      "constant": true
    },
    {
      "inputs": [
        {
          "internalType": "contract IERC20",
          "name": "_token",
          "type": "address"
        }
      ],
      "name": "setCollateralToken",
      "outputs": [],
      "stateMutability": "nonpayable",
      "type": "function"
    },
    {
      "inputs": [
        {
          "internalType": "contract IERC20",
          "name": "_token",
          "type": "address"
        }
      ],
      "name": "setNativeToken",
      "outputs": [],
      "stateMutability": "nonpayable",
      "type": "function"
    },
    {
      "inputs": [
        {
          "internalType": "uint256",
          "name": "_size",
          "type": "uint256"
        }
      ],
      "name": "setCollectionSize",
      "outputs": [],
      "stateMutability": "nonpayable",
      "type": "function"
    },
    {
      "inputs": [
        {
          "internalType": "string",
          "name": "name_",
          "type": "string"
        },
        {
          "internalType": "uint256",
          "name": "size_",
          "type": "uint256"
        },
        {
          "internalType": "bool",
          "name": "acceptCollateral_",
          "type": "bool"
        },
        {
          "internalType": "address[]",
          "name": "collaborators_",
          "type": "address[]"
        }
      ],
      "name": "createCollection",
      "outputs": [],
      "stateMutability": "nonpayable",
      "type": "function"
    },
    {
      "inputs": [
        {
          "internalType": "address",
          "name": "tokenAddress_",
          "type": "address"
        },
        {
          "internalType": "uint256",
          "name": "tokenId_",
          "type": "uint256"
        },
        {
          "internalType": "uint256",
          "name": "collectionId_",
          "type": "uint256"
        },
        {
          "internalType": "uint256",
          "name": "price_",
          "type": "uint256"
        }
      ],
      "name": "addNFTToCollection",
      "outputs": [],
      "stateMutability": "nonpayable",
      "type": "function"
    },
    {
      "inputs": [
        {
          "internalType": "address",
          "name": "tokenAddress_",
          "type": "address"
        },
        {
          "internalType": "uint256",
          "name": "nftId_",
          "type": "uint256"
        },
        {
          "internalType": "uint256",
          "name": "collectionId_",
          "type": "uint256"
        }
      ],
      "name": "removeNFTFromCollection",
      "outputs": [],
      "stateMutability": "nonpayable",
      "type": "function"
    },
    {
      "inputs": [
        {
          "internalType": "address",
          "name": "",
          "type": "address"
        },
        {
          "internalType": "address",
          "name": "",
          "type": "address"
        },
        {
          "internalType": "uint256",
          "name": "",
          "type": "uint256"
        },
        {
          "internalType": "bytes",
          "name": "",
          "type": "bytes"
        }
      ],
      "name": "onERC721Received",
      "outputs": [
        {
          "internalType": "bytes4",
          "name": "",
          "type": "bytes4"
        }
      ],
      "stateMutability": "nonpayable",
      "type": "function"
    }
  ],
  "bytecode": "0x60806040523480156200001157600080fd5b5060405162003d2c38038062003d2c83398181016040528101906200003791906200028d565b6200005b6000801b6200004f620000fd60201b60201c565b6200010560201b60201c565b60006001819055506000600281905550600560038190555081600560006101000a81548173ffffffffffffffffffffffffffffffffffffffff021916908373ffffffffffffffffffffffffffffffffffffffff16021790555080600460006101000a81548173ffffffffffffffffffffffffffffffffffffffff021916908373ffffffffffffffffffffffffffffffffffffffff160217905550505062000330565b600033905090565b6200011782826200011b60201b60201c565b5050565b6200012d82826200020c60201b60201c565b6200020857600160008084815260200190815260200160002060000160008373ffffffffffffffffffffffffffffffffffffffff1673ffffffffffffffffffffffffffffffffffffffff16815260200190815260200160002060006101000a81548160ff021916908315150217905550620001ad620000fd60201b60201c565b73ffffffffffffffffffffffffffffffffffffffff168173ffffffffffffffffffffffffffffffffffffffff16837f2f8788117e7eff1d82e926ec794901d17c78024a50270940304540a733656f0d60405160405180910390a45b5050565b600080600084815260200190815260200160002060000160008373ffffffffffffffffffffffffffffffffffffffff1673ffffffffffffffffffffffffffffffffffffffff16815260200190815260200160002060009054906101000a900460ff16905092915050565b600081519050620002878162000316565b92915050565b60008060408385031215620002a157600080fd5b6000620002b18582860162000276565b9250506020620002c48582860162000276565b9150509250929050565b6000620002db82620002f6565b9050919050565b6000620002ef82620002ce565b9050919050565b600073ffffffffffffffffffffffffffffffffffffffff82169050919050565b6200032181620002e2565b81146200032d57600080fd5b50565b6139ec80620003406000396000f3fe608060405234801561001057600080fd5b50600436106101c45760003560e01c8063a1f7132d116100f9578063d547741f11610097578063ee52a6f011610071578063ee52a6f014610551578063ee5be91f14610581578063f195341e146105b1578063f728bc04146105e1576101c4565b8063d547741f146104e7578063e574609e14610503578063e5c0560314610521576101c4565b8063b2016bd4116100d3578063b2016bd41461043f578063b510eccf1461045d578063bf162d6714610479578063d0e3cd63146104b0576101c4565b8063a1f7132d146103e7578063a217fddf14610405578063aca8ffe714610423576101c4565b806336568abe11610166578063666181a911610140578063666181a91461034f5780636da1e1021461036b57806391d1485414610387578063a1c61982146103b7576101c4565b806336568abe146102f95780633ddc99eb146103155780635187a82d14610331576101c4565b8063150b7a02116101a2578063150b7a0214610245578063167ef49514610275578063248a9ca3146102ad5780632f2ff15d146102dd576101c4565b806301ffc9a7146101c95780630da2fbe0146101f95780631123927b14610229575b600080fd5b6101e360048036038101906101de9190612c6f565b6105ff565b6040516101f0919061338e565b60405180910390f35b610213600480360381019061020e9190612d59565b610679565b604051610220919061353c565b60405180910390f35b610243600480360381019061023e9190612ba7565b610691565b005b61025f600480360381019061025a9190612aa1565b610ac9565b60405161026c91906133c4565b60405180910390f35b61028f600480360381019061028a9190612d59565b610add565b6040516102a49998979695949392919061327c565b60405180910390f35b6102c760048036038101906102c29190612c0a565b610be0565b6040516102d491906133a9565b60405180910390f35b6102f760048036038101906102f29190612c33565b610bff565b005b610313600480360381019061030e9190612c33565b610c28565b005b61032f600480360381019061032a9190612b58565b610cab565b005b610339610cbb565b604051610346919061353c565b60405180910390f35b61036960048036038101906103649190612c98565b610cc1565b005b61038560048036038101906103809190612c98565b610d58565b005b6103a1600480360381019061039c9190612c33565b610def565b6040516103ae919061338e565b60405180910390f35b6103d160048036038101906103cc9190612b1c565b610e59565b6040516103de919061353c565b60405180910390f35b6103ef610e8a565b6040516103fc919061353c565b60405180910390f35b61040d610e90565b60405161041a91906133a9565b60405180910390f35b61043d60048036038101906104389190612d59565b610e97565b005b610447610ef4565b60405161045491906133df565b60405180910390f35b61047760048036038101906104729190612cc1565b610f1a565b005b610493600480360381019061048e9190612d59565b611249565b6040516104a7989796959493929190613310565b60405180910390f35b6104ca60048036038101906104c59190612dbe565b6112fb565b6040516104de989796959493929190613310565b60405180910390f35b61050160048036038101906104fc9190612c33565b6113ba565b005b61050b6113e3565b604051610518919061353c565b60405180910390f35b61053b60048036038101906105369190612d82565b6113e9565b604051610548919061338e565b60405180910390f35b61056b60048036038101906105669190612b1c565b611418565b604051610578919061353c565b60405180910390f35b61059b60048036038101906105969190612b1c565b611449565b6040516105a8919061353c565b60405180910390f35b6105cb60048036038101906105c69190612dbe565b61146e565b6040516105d8919061322a565b60405180910390f35b6105e96114bc565b6040516105f691906133df565b60405180910390f35b60007f7965db0b000000000000000000000000000000000000000000000000000000007bffffffffffffffffffffffffffffffffffffffffffffffffffffffff1916827bffffffffffffffffffffffffffffffffffffffffffffffffffffffff191614806106725750610671826114e2565b5b9050919050565b600c6020528060005260406000206000915090505481565b60006009600084815260200190815260200160002090506106cf6001600c60008681526020019081526020016000205461154c90919063ffffffff16565b600c6000858152602001908152602001600020819055506106ee611562565b73ffffffffffffffffffffffffffffffffffffffff168573ffffffffffffffffffffffffffffffffffffffff16636352211e866040518263ffffffff1660e01b815260040161073d919061353c565b60206040518083038186803b15801561075557600080fd5b505afa158015610769573d6000803e3d6000fd5b505050506040513d601f19601f8201168201806040525081019061078d9190612a78565b73ffffffffffffffffffffffffffffffffffffffff16146107e3576040517f08c379a00000000000000000000000000000000000000000000000000000000081526004016107da9061345c565b60405180910390fd5b6107eb611562565b73ffffffffffffffffffffffffffffffffffffffff168160000160009054906101000a900473ffffffffffffffffffffffffffffffffffffffff1673ffffffffffffffffffffffffffffffffffffffff1614806108a95750600b60008481526020019081526020016000206000610860611562565b73ffffffffffffffffffffffffffffffffffffffff1673ffffffffffffffffffffffffffffffffffffffff16815260200190815260200160002060009054906101000a900460ff165b6108e8576040517f08c379a00000000000000000000000000000000000000000000000000000000081526004016108df906134bc565b60405180910390fd5b8060020154600c60008581526020019081526020016000205410610941576040517f08c379a00000000000000000000000000000000000000000000000000000000081526004016109389061349c565b60405180910390fd5b61095882826003015461154c90919063ffffffff16565b81600301819055506000816008015490506109816001836008015461154c90919063ffffffff16565b82600801819055506000600154905082600960008781526020019081526020016000206000820160009054906101000a900473ffffffffffffffffffffffffffffffffffffffff168160000160006101000a81548173ffffffffffffffffffffffffffffffffffffffff021916908373ffffffffffffffffffffffffffffffffffffffff1602179055506001820181600101908054610a1f90613813565b610a2a9291906125f9565b50600282015481600201556003820154816003015560048201548160040155600582015481600501556006820160009054906101000a900460ff168160060160006101000a81548160ff0219169083151502179055506007820154816007015560088201548160080155905050610aac6001805461154c90919063ffffffff16565b600181905550610ac087878787858761156a565b50505050505050565b600063150b7a0260e01b9050949350505050565b60096020528060005260406000206000915090508060000160009054906101000a900473ffffffffffffffffffffffffffffffffffffffff1690806001018054610b2690613813565b80601f0160208091040260200160405190810160405280929190818152602001828054610b5290613813565b8015610b9f5780601f10610b7457610100808354040283529160200191610b9f565b820191906000526020600020905b815481529060010190602001808311610b8257829003601f168201915b5050505050908060020154908060030154908060040154908060050154908060060160009054906101000a900460ff16908060070154908060080154905089565b6000806000838152602001908152602001600020600101549050919050565b610c0882610be0565b610c1981610c14611562565b611996565b610c238383611a33565b505050565b610c30611562565b73ffffffffffffffffffffffffffffffffffffffff168173ffffffffffffffffffffffffffffffffffffffff1614610c9d576040517f08c379a0000000000000000000000000000000000000000000000000000000008152600401610c949061351c565b60405180910390fd5b610ca78282611b13565b5050565b610cb6838383611bf4565b505050565b60025481565b610cd56000801b610cd0611562565b610def565b610d14576040517f08c379a0000000000000000000000000000000000000000000000000000000008152600401610d0b9061347c565b60405180910390fd5b80600460006101000a81548173ffffffffffffffffffffffffffffffffffffffff021916908373ffffffffffffffffffffffffffffffffffffffff16021790555050565b610d6c6000801b610d67611562565b610def565b610dab576040517f08c379a0000000000000000000000000000000000000000000000000000000008152600401610da29061347c565b60405180910390fd5b80600560006101000a81548173ffffffffffffffffffffffffffffffffffffffff021916908373ffffffffffffffffffffffffffffffffffffffff16021790555050565b600080600084815260200190815260200160002060000160008373ffffffffffffffffffffffffffffffffffffffff1673ffffffffffffffffffffffffffffffffffffffff16815260200190815260200160002060009054906101000a900460ff16905092915050565b600e6020528160005260406000208181548110610e7557600080fd5b90600052602060002001600091509150505481565b60035481565b6000801b81565b610eab6000801b610ea6611562565b610def565b610eea576040517f08c379a0000000000000000000000000000000000000000000000000000000008152600401610ee19061347c565b60405180910390fd5b8060038190555050565b600460009054906101000a900473ffffffffffffffffffffffffffffffffffffffff1681565b600354841015610f5f576040517f08c379a0000000000000000000000000000000000000000000000000000000008152600401610f569061341c565b60405180910390fd5b610f67612686565b33816000019073ffffffffffffffffffffffffffffffffffffffff16908173ffffffffffffffffffffffffffffffffffffffff16815250508581602001819052508481604001818152505060008160600181815250506000816080018181525050600081610100018181525050838160c0019015159081151581525050610ffa600160025461154c90919063ffffffff16565b60028190555060006002549050816009600083815260200190815260200160002060008201518160000160006101000a81548173ffffffffffffffffffffffffffffffffffffffff021916908373ffffffffffffffffffffffffffffffffffffffff160217905550602082015181600101908051906020019061107e9291906126ea565b5060408201518160020155606082015181600301556080820151816004015560a0820151816005015560c08201518160060160006101000a81548160ff02191690831515021790555060e082015181600701556101008201518160080155905050600e60003373ffffffffffffffffffffffffffffffffffffffff1673ffffffffffffffffffffffffffffffffffffffff1681526020019081526020016000208190806001815401808255809150506001900390600052602060002001600090919091909150558383600a60008481526020019081526020016000209190611167929190612770565b5060005b8484905081101561123f576001600b600084815260200190815260200160002060008787858181106111c6577f4e487b7100000000000000000000000000000000000000000000000000000000600052603260045260246000fd5b90506020020160208101906111db9190612a4f565b73ffffffffffffffffffffffffffffffffffffffff1673ffffffffffffffffffffffffffffffffffffffff16815260200190815260200160002060006101000a81548160ff021916908315150217905550808061123790613845565b91505061116b565b5050505050505050565b6006818154811061125957600080fd5b90600052602060002090600702016000915090508060000160009054906101000a900473ffffffffffffffffffffffffffffffffffffffff16908060010154908060020160009054906101000a900473ffffffffffffffffffffffffffffffffffffffff16908060030154908060040154908060050160009054906101000a900460ff16908060050160019054906101000a900460ff16908060060154905088565b600d602052816000526040600020818154811061131757600080fd5b9060005260206000209060070201600091509150508060000160009054906101000a900473ffffffffffffffffffffffffffffffffffffffff16908060010154908060020160009054906101000a900473ffffffffffffffffffffffffffffffffffffffff16908060030154908060040154908060050160009054906101000a900460ff16908060050160019054906101000a900460ff16908060060154905088565b6113c382610be0565b6113d4816113cf611562565b611996565b6113de8383611b13565b505050565b60015481565b600b6020528160005260406000206020528060005260406000206000915091509054906101000a900460ff1681565b6007602052816000526040600020818154811061143457600080fd5b90600052602060002001600091509150505481565b6008602052816000526040600020602052806000526040600020600091509150505481565b600a602052816000526040600020818154811061148a57600080fd5b906000526020600020016000915091509054906101000a900473ffffffffffffffffffffffffffffffffffffffff1681565b600560009054906101000a900473ffffffffffffffffffffffffffffffffffffffff1681565b60007f01ffc9a7000000000000000000000000000000000000000000000000000000007bffffffffffffffffffffffffffffffffffffffffffffffffffffffff1916827bffffffffffffffffffffffffffffffffffffffffffffffffffffffff1916149050919050565b6000818361155a919061360f565b905092915050565b600033905090565b8573ffffffffffffffffffffffffffffffffffffffff166342842e0e3330886040518463ffffffff1660e01b81526004016115a793929190613245565b600060405180830381600087803b1580156115c157600080fd5b505af11580156115d5573d6000803e3d6000fd5b505050506115e1612810565b86816000019073ffffffffffffffffffffffffffffffffffffffff16908173ffffffffffffffffffffffffffffffffffffffff16815250508581602001818152505033816040019073ffffffffffffffffffffffffffffffffffffffff16908173ffffffffffffffffffffffffffffffffffffffff16815250508481608001818152505083816060018181525050818160e0018181525050600681908060018154018082558091505060019003906000526020600020906007020160009091909190915060008201518160000160006101000a81548173ffffffffffffffffffffffffffffffffffffffff021916908373ffffffffffffffffffffffffffffffffffffffff1602179055506020820151816001015560408201518160020160006101000a81548173ffffffffffffffffffffffffffffffffffffffff021916908373ffffffffffffffffffffffffffffffffffffffff160217905550606082015181600301556080820151816004015560a08201518160050160006101000a81548160ff02191690831515021790555060c08201518160050160016101000a81548160ff02191690831515021790555060e082015181600601555050600d600086815260200190815260200160002081908060018154018082558091505060019003906000526020600020906007020160009091909190915060008201518160000160006101000a81548173ffffffffffffffffffffffffffffffffffffffff021916908373ffffffffffffffffffffffffffffffffffffffff1602179055506020820151816001015560408201518160020160006101000a81548173ffffffffffffffffffffffffffffffffffffffff021916908373ffffffffffffffffffffffffffffffffffffffff160217905550606082015181600301556080820151816004015560a08201518160050160006101000a81548160ff02191690831515021790555060c08201518160050160016101000a81548160ff02191690831515021790555060e082015181600601555050600760003373ffffffffffffffffffffffffffffffffffffffff1673ffffffffffffffffffffffffffffffffffffffff16815260200190815260200160002083908060018154018082558091505060019003906000526020600020016000909190919091505582600860008973ffffffffffffffffffffffffffffffffffffffff1673ffffffffffffffffffffffffffffffffffffffff16815260200190815260200160002060008881526020019081526020016000208190555050505050505050565b6119a08282610def565b611a2f576119c58173ffffffffffffffffffffffffffffffffffffffff1660146122e9565b6119d38360001c60206122e9565b6040516020016119e49291906131f0565b6040516020818303038152906040526040517f08c379a0000000000000000000000000000000000000000000000000000000008152600401611a2691906133fa565b60405180910390fd5b5050565b611a3d8282610def565b611b0f57600160008084815260200190815260200160002060000160008373ffffffffffffffffffffffffffffffffffffffff1673ffffffffffffffffffffffffffffffffffffffff16815260200190815260200160002060006101000a81548160ff021916908315150217905550611ab4611562565b73ffffffffffffffffffffffffffffffffffffffff168173ffffffffffffffffffffffffffffffffffffffff16837f2f8788117e7eff1d82e926ec794901d17c78024a50270940304540a733656f0d60405160405180910390a45b5050565b611b1d8282610def565b15611bf057600080600084815260200190815260200160002060000160008373ffffffffffffffffffffffffffffffffffffffff1673ffffffffffffffffffffffffffffffffffffffff16815260200190815260200160002060006101000a81548160ff021916908315150217905550611b95611562565b73ffffffffffffffffffffffffffffffffffffffff168173ffffffffffffffffffffffffffffffffffffffff16837ff6391f5c32d9c69d2a47ea670b442974b53935d1edc7fd64eb21e047a839171b60405160405180910390a45b5050565b60006009600083815260200190815260200160002090506000600860008673ffffffffffffffffffffffffffffffffffffffff1673ffffffffffffffffffffffffffffffffffffffff1681526020019081526020016000206000858152602001908152602001600020549050600060068281548110611c9c577f4e487b7100000000000000000000000000000000000000000000000000000000600052603260045260246000fd5b90600052602060002090600702019050611cb4611562565b73ffffffffffffffffffffffffffffffffffffffff1660068381548110611d04577f4e487b7100000000000000000000000000000000000000000000000000000000600052603260045260246000fd5b906000526020600020906007020160020160009054906101000a900473ffffffffffffffffffffffffffffffffffffffff1673ffffffffffffffffffffffffffffffffffffffff161480611dae5750611d5b611562565b73ffffffffffffffffffffffffffffffffffffffff168360000160009054906101000a900473ffffffffffffffffffffffffffffffffffffffff1673ffffffffffffffffffffffffffffffffffffffff16145b611ded576040517f08c379a0000000000000000000000000000000000000000000000000000000008152600401611de4906134dc565b60405180910390fd5b8360068381548110611e28577f4e487b7100000000000000000000000000000000000000000000000000000000600052603260045260246000fd5b90600052602060002090600702016004015414611e7a576040517f08c379a0000000000000000000000000000000000000000000000000000000008152600401611e71906134fc565b60405180910390fd5b611edc60068381548110611eb7577f4e487b7100000000000000000000000000000000000000000000000000000000600052603260045260246000fd5b90600052602060002090600702016003015484600301546125e390919063ffffffff16565b8360030181905550611efc600184600801546125e390919063ffffffff16565b836008018190555082600960008681526020019081526020016000206000820160009054906101000a900473ffffffffffffffffffffffffffffffffffffffff168160000160006101000a81548173ffffffffffffffffffffffffffffffffffffffff021916908373ffffffffffffffffffffffffffffffffffffffff1602179055506001820181600101908054611f9390613813565b611f9e9291906125f9565b50600282015481600201556003820154816003015560048201548160040155600582015481600501556006820160009054906101000a900460ff168160060160006101000a81548160ff0219169083151502179055506007820154816007015560088201548160080155905050612020600180546125e390919063ffffffff16565b600181905550600060068381548110612062577f4e487b7100000000000000000000000000000000000000000000000000000000600052603260045260246000fd5b9060005260206000209060070201600401819055508573ffffffffffffffffffffffffffffffffffffffff166342842e0e308360020160009054906101000a900473ffffffffffffffffffffffffffffffffffffffff16886040518463ffffffff1660e01b81526004016120d893929190613245565b600060405180830381600087803b1580156120f257600080fd5b505af1158015612106573d6000803e3d6000fd5b5050505060068281548110612144577f4e487b7100000000000000000000000000000000000000000000000000000000600052603260045260246000fd5b9060005260206000209060070201600080820160006101000a81549073ffffffffffffffffffffffffffffffffffffffff021916905560018201600090556002820160006101000a81549073ffffffffffffffffffffffffffffffffffffffff0219169055600382016000905560048201600090556005820160006101000a81549060ff02191690556005820160016101000a81549060ff021916905560068201600090555050600d600085815260200190815260200160002081600601548154811061223a577f4e487b7100000000000000000000000000000000000000000000000000000000600052603260045260246000fd5b9060005260206000209060070201600080820160006101000a81549073ffffffffffffffffffffffffffffffffffffffff021916905560018201600090556002820160006101000a81549073ffffffffffffffffffffffffffffffffffffffff0219169055600382016000905560048201600090556005820160006101000a81549060ff02191690556005820160016101000a81549060ff021916905560068201600090555050505050505050565b6060600060028360026122fc9190613665565b612306919061360f565b67ffffffffffffffff811115612345577f4e487b7100000000000000000000000000000000000000000000000000000000600052604160045260246000fd5b6040519080825280601f01601f1916602001820160405280156123775781602001600182028036833780820191505090505b5090507f3000000000000000000000000000000000000000000000000000000000000000816000815181106123d5577f4e487b7100000000000000000000000000000000000000000000000000000000600052603260045260246000fd5b60200101907effffffffffffffffffffffffffffffffffffffffffffffffffffffffffffff1916908160001a9053507f78000000000000000000000000000000000000000000000000000000000000008160018151811061245f577f4e487b7100000000000000000000000000000000000000000000000000000000600052603260045260246000fd5b60200101907effffffffffffffffffffffffffffffffffffffffffffffffffffffffffffff1916908160001a9053506000600184600261249f9190613665565b6124a9919061360f565b90505b6001811115612595577f3031323334353637383961626364656600000000000000000000000000000000600f861660108110612511577f4e487b7100000000000000000000000000000000000000000000000000000000600052603260045260246000fd5b1a60f81b82828151811061254e577f4e487b7100000000000000000000000000000000000000000000000000000000600052603260045260246000fd5b60200101907effffffffffffffffffffffffffffffffffffffffffffffffffffffffffffff1916908160001a905350600485901c94508061258e906137e9565b90506124ac565b50600084146125d9576040517f08c379a00000000000000000000000000000000000000000000000000000000081526004016125d09061343c565b60405180910390fd5b8091505092915050565b600081836125f191906136bf565b905092915050565b82805461260590613813565b90600052602060002090601f0160209004810192826126275760008555612675565b82601f106126385780548555612675565b8280016001018555821561267557600052602060002091601f016020900482015b82811115612674578254825591600101919060010190612659565b5b5090506126829190612885565b5090565b604051806101200160405280600073ffffffffffffffffffffffffffffffffffffffff168152602001606081526020016000815260200160008152602001600081526020016000815260200160001515815260200160008152602001600081525090565b8280546126f690613813565b90600052602060002090601f016020900481019282612718576000855561275f565b82601f1061273157805160ff191683800117855561275f565b8280016001018555821561275f579182015b8281111561275e578251825591602001919060010190612743565b5b50905061276c9190612885565b5090565b8280548282559060005260206000209081019282156127ff579160200282015b828111156127fe57823573ffffffffffffffffffffffffffffffffffffffff168260006101000a81548173ffffffffffffffffffffffffffffffffffffffff021916908373ffffffffffffffffffffffffffffffffffffffff16021790555091602001919060010190612790565b5b50905061280c9190612885565b5090565b604051806101000160405280600073ffffffffffffffffffffffffffffffffffffffff16815260200160008152602001600073ffffffffffffffffffffffffffffffffffffffff1681526020016000815260200160008152602001600015158152602001600015158152602001600081525090565b5b8082111561289e576000816000905550600101612886565b5090565b60006128b56128b084613588565b613557565b9050828152602081018484840111156128cd57600080fd5b6128d88482856137a7565b509392505050565b60006128f36128ee846135b8565b613557565b90508281526020810184848401111561290b57600080fd5b6129168482856137a7565b509392505050565b60008135905061292d8161392c565b92915050565b6000815190506129428161392c565b92915050565b60008083601f84011261295a57600080fd5b8235905067ffffffffffffffff81111561297357600080fd5b60208301915083602082028301111561298b57600080fd5b9250929050565b6000813590506129a181613943565b92915050565b6000813590506129b68161395a565b92915050565b6000813590506129cb81613971565b92915050565b600082601f8301126129e257600080fd5b81356129f28482602086016128a2565b91505092915050565b600081359050612a0a81613988565b92915050565b600082601f830112612a2157600080fd5b8135612a318482602086016128e0565b91505092915050565b600081359050612a498161399f565b92915050565b600060208284031215612a6157600080fd5b6000612a6f8482850161291e565b91505092915050565b600060208284031215612a8a57600080fd5b6000612a9884828501612933565b91505092915050565b60008060008060808587031215612ab757600080fd5b6000612ac58782880161291e565b9450506020612ad68782880161291e565b9350506040612ae787828801612a3a565b925050606085013567ffffffffffffffff811115612b0457600080fd5b612b10878288016129d1565b91505092959194509250565b60008060408385031215612b2f57600080fd5b6000612b3d8582860161291e565b9250506020612b4e85828601612a3a565b9150509250929050565b600080600060608486031215612b6d57600080fd5b6000612b7b8682870161291e565b9350506020612b8c86828701612a3a565b9250506040612b9d86828701612a3a565b9150509250925092565b60008060008060808587031215612bbd57600080fd5b6000612bcb8782880161291e565b9450506020612bdc87828801612a3a565b9350506040612bed87828801612a3a565b9250506060612bfe87828801612a3a565b91505092959194509250565b600060208284031215612c1c57600080fd5b6000612c2a848285016129a7565b91505092915050565b60008060408385031215612c4657600080fd5b6000612c54858286016129a7565b9250506020612c658582860161291e565b9150509250929050565b600060208284031215612c8157600080fd5b6000612c8f848285016129bc565b91505092915050565b600060208284031215612caa57600080fd5b6000612cb8848285016129fb565b91505092915050565b600080600080600060808688031215612cd957600080fd5b600086013567ffffffffffffffff811115612cf357600080fd5b612cff88828901612a10565b9550506020612d1088828901612a3a565b9450506040612d2188828901612992565b935050606086013567ffffffffffffffff811115612d3e57600080fd5b612d4a88828901612948565b92509250509295509295909350565b600060208284031215612d6b57600080fd5b6000612d7984828501612a3a565b91505092915050565b60008060408385031215612d9557600080fd5b6000612da385828601612a3a565b9250506020612db48582860161291e565b9150509250929050565b60008060408385031215612dd157600080fd5b6000612ddf85828601612a3a565b9250506020612df085828601612a3a565b9150509250929050565b612e03816136f3565b82525050565b612e1281613705565b82525050565b612e2181613711565b82525050565b612e308161371b565b82525050565b612e3f81613783565b82525050565b6000612e50826135e8565b612e5a81856135f3565b9350612e6a8185602086016137b6565b612e738161391b565b840191505092915050565b6000612e89826135e8565b612e938185613604565b9350612ea38185602086016137b6565b80840191505092915050565b6000612ebc600e836135f3565b91507f53697a6520746f6f20736d616c6c0000000000000000000000000000000000006000830152602082019050919050565b6000612efc6020836135f3565b91507f537472696e67733a20686578206c656e67746820696e73756666696369656e746000830152602082019050919050565b6000612f3c6016836135f3565b91507f4f6e6c79204e4654206f776e65722063616e20616464000000000000000000006000830152602082019050919050565b6000612f7c601f836135f3565b91507f41727468506f6f6c3a20596f7520617265206e6f74207468652061646d696e006000830152602082019050919050565b6000612fbc600f836135f3565b91507f636f6c6c656374696f6e2066756c6c00000000000000000000000000000000006000830152602082019050919050565b6000612ffc6026836135f3565b91507f4e6565647320636f6c6c656374696f6e206f776e6572206f7220636f6c6c616260008301527f6f7261746f7200000000000000000000000000000000000000000000000000006020830152604082019050919050565b6000613062602d836135f3565b91507f4f6e6c79204e4654206f776e6572206f7220636f6c6c656374696f6e206f776e60008301527f65722063616e2072656d6f7665000000000000000000000000000000000000006020830152604082019050919050565b60006130c86015836135f3565b91507f4e4654206e6f7420696e20636f6c6c656374696f6e00000000000000000000006000830152602082019050919050565b6000613108601783613604565b91507f416363657373436f6e74726f6c3a206163636f756e74200000000000000000006000830152601782019050919050565b6000613148601183613604565b91507f206973206d697373696e6720726f6c65200000000000000000000000000000006000830152601182019050919050565b6000613188602f836135f3565b91507f416363657373436f6e74726f6c3a2063616e206f6e6c792072656e6f756e636560008301527f20726f6c657320666f722073656c6600000000000000000000000000000000006020830152604082019050919050565b6131ea81613779565b82525050565b60006131fb826130fb565b91506132078285612e7e565b91506132128261313b565b915061321e8284612e7e565b91508190509392505050565b600060208201905061323f6000830184612dfa565b92915050565b600060608201905061325a6000830186612dfa565b6132676020830185612dfa565b61327460408301846131e1565b949350505050565b600061012082019050613292600083018c612dfa565b81810360208301526132a4818b612e45565b90506132b3604083018a6131e1565b6132c060608301896131e1565b6132cd60808301886131e1565b6132da60a08301876131e1565b6132e760c0830186612e09565b6132f460e08301856131e1565b6133026101008301846131e1565b9a9950505050505050505050565b600061010082019050613326600083018b612dfa565b613333602083018a6131e1565b6133406040830189612dfa565b61334d60608301886131e1565b61335a60808301876131e1565b61336760a0830186612e09565b61337460c0830185612e09565b61338160e08301846131e1565b9998505050505050505050565b60006020820190506133a36000830184612e09565b92915050565b60006020820190506133be6000830184612e18565b92915050565b60006020820190506133d96000830184612e27565b92915050565b60006020820190506133f46000830184612e36565b92915050565b600060208201905081810360008301526134148184612e45565b905092915050565b6000602082019050818103600083015261343581612eaf565b9050919050565b6000602082019050818103600083015261345581612eef565b9050919050565b6000602082019050818103600083015261347581612f2f565b9050919050565b6000602082019050818103600083015261349581612f6f565b9050919050565b600060208201905081810360008301526134b581612faf565b9050919050565b600060208201905081810360008301526134d581612fef565b9050919050565b600060208201905081810360008301526134f581613055565b9050919050565b60006020820190508181036000830152613515816130bb565b9050919050565b600060208201905081810360008301526135358161317b565b9050919050565b600060208201905061355160008301846131e1565b92915050565b6000604051905081810181811067ffffffffffffffff8211171561357e5761357d6138ec565b5b8060405250919050565b600067ffffffffffffffff8211156135a3576135a26138ec565b5b601f19601f8301169050602081019050919050565b600067ffffffffffffffff8211156135d3576135d26138ec565b5b601f19601f8301169050602081019050919050565b600081519050919050565b600082825260208201905092915050565b600081905092915050565b600061361a82613779565b915061362583613779565b9250827fffffffffffffffffffffffffffffffffffffffffffffffffffffffffffffffff0382111561365a5761365961388e565b5b828201905092915050565b600061367082613779565b915061367b83613779565b9250817fffffffffffffffffffffffffffffffffffffffffffffffffffffffffffffffff04831182151516156136b4576136b361388e565b5b828202905092915050565b60006136ca82613779565b91506136d583613779565b9250828210156136e8576136e761388e565b5b828203905092915050565b60006136fe82613759565b9050919050565b60008115159050919050565b6000819050919050565b60007fffffffff0000000000000000000000000000000000000000000000000000000082169050919050565b6000613752826136f3565b9050919050565b600073ffffffffffffffffffffffffffffffffffffffff82169050919050565b6000819050919050565b600061378e82613795565b9050919050565b60006137a082613759565b9050919050565b82818337600083830152505050565b60005b838110156137d45780820151818401526020810190506137b9565b838111156137e3576000848401525b50505050565b60006137f482613779565b915060008214156138085761380761388e565b5b600182039050919050565b6000600282049050600182168061382b57607f821691505b6020821081141561383f5761383e6138bd565b5b50919050565b600061385082613779565b91507fffffffffffffffffffffffffffffffffffffffffffffffffffffffffffffffff8214156138835761388261388e565b5b600182019050919050565b7f4e487b7100000000000000000000000000000000000000000000000000000000600052601160045260246000fd5b7f4e487b7100000000000000000000000000000000000000000000000000000000600052602260045260246000fd5b7f4e487b7100000000000000000000000000000000000000000000000000000000600052604160045260246000fd5b6000601f19601f8301169050919050565b613935816136f3565b811461394057600080fd5b50565b61394c81613705565b811461395757600080fd5b50565b61396381613711565b811461396e57600080fd5b50565b61397a8161371b565b811461398557600080fd5b50565b61399181613747565b811461399c57600080fd5b50565b6139a881613779565b81146139b357600080fd5b5056fea26469706673582212207bb0037b6a63c153ffc62d0b91aca2c63f060d1aaeb2e80c53b8cd3a8f2fc61964736f6c63430008000033",
  "immutableReferences": {},
  "source": "// SPDX-License-Identifier: MIT\npragma solidity ^0.8.0;\n\n//import \"@openzeppelin/contracts/token/ERC721/extensions/ERC721URIStorage.sol\";\nimport \"@openzeppelin/contracts/token/ERC721/IERC721.sol\";\nimport \"@openzeppelin/contracts/utils/Counters.sol\";\nimport \"@openzeppelin/contracts/access/AccessControl.sol\";\nimport \"./interfaces/IERC20.sol\";\nimport \"./interfaces/IERC20.sol\";\nimport \"@openzeppelin/contracts/token/ERC721/IERC721Receiver.sol\";\nimport {SafeMath} from \"./utils/SafeMath.sol\";\n\ncontract Batch is IERC721Receiver, AccessControl {\n    using SafeMath for uint256;\n\n    // declaring variables\n    uint256 public nftCounter;\n    uint256 public collectionCounter;\n    uint256 public minimumCollectionSize;\n    IERC20 public collateralToken;\n    IERC20 public diamondERC20token;\n    \n    // declaring struct\n    struct Collection {\n        address owner;\n        string name;\n        uint256 size;\n        uint256 totalPrice;\n        uint256 publishedAt;  // time that published.\n        uint256 collateralAmount;\n        bool acceptCollateral;\n        uint256 soldCount;\n        uint256 nftsCount;\n    }\n\n    struct NFT {\n        address tokenAddress;\n        uint256 tokenId;\n        address owner;\n        uint256 price;\n        uint256 collectionId;\n        bool collateralLocked;\n        bool collateralReturned;\n        uint256 collectionIndex;\n    }\n\n    // This keeps record of all the NFT\n    NFT[] public allNFTs; \n    //mapping(uint256 => NFT) public allNFTs;\n    // This keeps record of a address(users nft) nft\n    mapping(address => uint256[]) public usersNFT;\n    // users address to tokenID to nftID (map users address to tokenID and NFT struct)\n    mapping(address => mapping(uint256 => uint256)) public nftTokenIndex;\n    //mapping(uint256 => mapping(uint256 => uint256)) public nftTokenIndex;\n    // all collection\n    mapping(uint256 => Collection) public allCollections; \n    // collectionId => collaborators ( All collaborators of a collection )\n    mapping(uint256 => address[]) public collaborators;\n    // collections collaborators \n    mapping(uint256 => mapping(address => bool)) public isCollaborator;\n    // Number of NFTs count in an collection\n    mapping(uint256 => uint256) public collectionsNftCount;\n    //  Nfts in an collection (collectionid to nfts)\n    mapping(uint256 => NFT[]) public nftsByCollectionId;\n    // users collection\n    mapping(address => uint256[]) public usersCollection;\n    //mapping(address )\n\n    \n    /* This is an moifier that makes sure only deployer of these contract can trigger\n    important functions */\n    modifier onlyAdmin() {\n        require(\n            hasRole(DEFAULT_ADMIN_ROLE, _msgSender()),\n            'ArthPool: You are not the admin'\n        );\n        _;\n    }\n\n    /*\n        In Constructor we are setting the admin, default values\n    */\n    constructor(\n        IERC20 _tokenAddress, \n        IERC20 _usdt\n    ) {\n        _setupRole(DEFAULT_ADMIN_ROLE, _msgSender());\n        nftCounter = 0;\n        collectionCounter = 0;\n        minimumCollectionSize = 5;\n\n        diamondERC20token = _tokenAddress;\n        collateralToken = _usdt;\n    }\n\n    // setter to set the collateral token address ( By default its Mock USDT)\n    function setCollateralToken(IERC20 _token) public onlyAdmin {\n        collateralToken = _token;\n    }\n\n    // setter to set the native erc20 token address ( By default its Mock USDT)\n    function setNativeToken(IERC20 _token) public onlyAdmin {\n        diamondERC20token = _token;\n    }\n\n    // setter for minimum size of the collection\n    function setCollectionSize(uint256 _size) public onlyAdmin {\n        minimumCollectionSize = _size;\n    }\n\n    /*\n        here we are making the boxes which will hold nfts. \n        params :-\n            name - Name of the collection\n            size - Size of the collection\n            acceptCollatearal - Boolean field declared if the collection\n               requires collateral token in order to mint global Diamond erc20 Token\n            collaborators - array of all the collaborators of the collection\n    */\n    function createCollection(\n        string memory name_,\n        uint256 size_,\n        bool acceptCollateral_,\n        address[] calldata collaborators_\n    ) public {\n        require(size_ >= minimumCollectionSize, \"Size too small\");\n        \n        // Setting up the struct Collection values \n        Collection memory collection;\n        collection.owner = msg.sender;\n        collection.name = name_;\n        collection.size = size_;\n        collection.totalPrice = 0;\n        collection.publishedAt = 0;\n        collection.nftsCount = 0;\n        collection.acceptCollateral = acceptCollateral_;\n\n        // Incrementing the collection counter id\n        collectionCounter = collectionCounter.add(1);\n        uint256 collectionId = collectionCounter;\n        \n        // Storing the collection in a mapping with refernce to collection id\n        allCollections[collectionId] = collection;\n        // saving all the collections of a user with respect to his address\n        usersCollection[msg.sender].push(collectionId);\n        // saving all the collaborators\n        collaborators[collectionId] = collaborators_;\n\n        // looping through all the collaborators and setting there boolean feild\n        for (uint256 i = 0; i < collaborators_.length; i++) {\n            isCollaborator[collectionId][collaborators_[i]] = true;\n        }\n    }\n\n    /* \n        depositing NFT into an collection ( This is an private function which \n        will be called by an public function)\n        params :- \n            tokenaddress - token address of the nft\n    */\n    function _depositNFT(\n        address tokenAddress_,\n        uint256 tokenId_,\n        uint256 collectionId_, \n        uint256 price_,\n        uint256 nftsIndex_,\n        uint256 collectionIndex_\n    ) private {\n        IERC721(tokenAddress_).safeTransferFrom(msg.sender, address(this), tokenId_);\n\n        NFT memory nft;\n        nft.tokenAddress = tokenAddress_;\n        nft.tokenId = tokenId_;\n        nft.owner = msg.sender;\n        nft.collectionId = collectionId_;\n        nft.price = price_;\n        nft.collectionIndex = collectionIndex_;\n        \n        // Push to nftsByCollectionId.\n        allNFTs.push(nft);\n        nftsByCollectionId[collectionId_].push(nft);\n        usersNFT[msg.sender].push(nftsIndex_);\n\n        nftTokenIndex[tokenAddress_][tokenId_] = nftsIndex_;\n    }\n\n    function addNFTToCollection(\n        address tokenAddress_, \n        uint256 tokenId_, \n        uint256 collectionId_, \n        uint256 price_\n    ) public {\n        Collection storage collection = allCollections[collectionId_];\n        // number of nfts in a collection\n        collectionsNftCount[collectionId_] = collectionsNftCount[collectionId_].add(1);    \n        \n        require(IERC721(tokenAddress_).ownerOf(tokenId_) == _msgSender(), \"Only NFT owner can add\");\n        require(collection.owner == _msgSender() ||\n                isCollaborator[collectionId_][_msgSender()], \"Needs collection owner or collaborator\");\n        require(collectionsNftCount[collectionId_] < collection.size,\n                \"collection full\");\n\n        collection.totalPrice = collection.totalPrice.add(price_);\n        uint256 _collectionIndex = collection.nftsCount;\n        collection.nftsCount = collection.nftsCount.add(1);\n        uint256 _nftsIndex = nftCounter;\n        allCollections[collectionId_] = collection;\n\n        nftCounter = nftCounter.add(1);\n        _depositNFT(\n            tokenAddress_, \n            tokenId_, \n            collectionId_, \n            price_,\n            _nftsIndex,\n            _collectionIndex\n        );\n    }\n\n    function _withdrawNFT(\n        address who_, \n        uint256 nftId_\n    ) private {\n        allNFTs[nftId_].owner = address(0);\n        allNFTs[nftId_].collectionId = 0;\n\n        address tokenAddress = allNFTs[nftId_].tokenAddress;\n        uint256 tokenId = allNFTs[nftId_].tokenId;\n\n        IERC721(tokenAddress).safeTransferFrom(address(this), who_, tokenId);\n    }\n\n    function _removeNFTFromCollection(\n        address tokenAddress_,\n        uint256 nftId_, \n        uint256 collectionId_\n    ) private {\n        Collection storage collection = allCollections[collectionId_];\n        uint256 _nftsIndex = nftTokenIndex[tokenAddress_][nftId_];\n        NFT storage nft = allNFTs[_nftsIndex];\n\n        require(allNFTs[_nftsIndex].owner == _msgSender() ||\n                collection.owner == _msgSender(),\n                \"Only NFT owner or collection owner can remove\");\n        require(allNFTs[_nftsIndex].collectionId == collectionId_, \"NFT not in collection\");\n\n        collection.totalPrice = collection.totalPrice.sub(allNFTs[_nftsIndex].price);\n        collection.nftsCount = collection.nftsCount.sub(1);\n        allCollections[collectionId_] = collection;\n        nftCounter = nftCounter.sub(1);\n        allNFTs[_nftsIndex].collectionId = 0;\n\n        IERC721(tokenAddress_).safeTransferFrom(address(this), nft.owner, nftId_);\n\n        delete allNFTs[_nftsIndex];\n        delete nftsByCollectionId[collectionId_][nft.collectionIndex];\n    }\n\n    function removeNFTFromCollection(address tokenAddress_, uint256 nftId_, uint256 collectionId_) public {\n        _removeNFTFromCollection(tokenAddress_, nftId_, collectionId_);\n    }\n\n    function onERC721Received(address, address, uint256, bytes memory) public virtual override returns (bytes4) {\n        return this.onERC721Received.selector;\n    }\n}",
  "sourcePath": "/Users/ya98/projects/RFT-Batch-NFT/src/contracts/batch.sol",
  "compiler": {
    "name": "solc",
    "version": "0.8.0+commit.c7dfd78e.Emscripten.clang"
  },
  "schemaVersion": "3.4.1",
  "updatedAt": "2021-06-17T17:39:10.253Z",
  "networkType": "ethereum",
  "devdoc": {
    "kind": "dev",
    "methods": {
      "getRoleAdmin(bytes32)": {
        "details": "Returns the admin role that controls `role`. See {grantRole} and {revokeRole}. To change a role's admin, use {_setRoleAdmin}."
      },
      "grantRole(bytes32,address)": {
        "details": "Grants `role` to `account`. If `account` had not been already granted `role`, emits a {RoleGranted} event. Requirements: - the caller must have ``role``'s admin role."
      },
      "hasRole(bytes32,address)": {
        "details": "Returns `true` if `account` has been granted `role`."
      },
      "renounceRole(bytes32,address)": {
        "details": "Revokes `role` from the calling account. Roles are often managed via {grantRole} and {revokeRole}: this function's purpose is to provide a mechanism for accounts to lose their privileges if they are compromised (such as when a trusted device is misplaced). If the calling account had been granted `role`, emits a {RoleRevoked} event. Requirements: - the caller must be `account`."
      },
      "revokeRole(bytes32,address)": {
        "details": "Revokes `role` from `account`. If `account` had been granted `role`, emits a {RoleRevoked} event. Requirements: - the caller must have ``role``'s admin role."
      },
      "supportsInterface(bytes4)": {
        "details": "See {IERC165-supportsInterface}."
      }
    },
    "version": 1
  },
  "userdoc": {
    "kind": "user",
    "methods": {},
    "version": 1
  }
}