{
  "contractName": "Batch",
  "abi": [
    {
      "inputs": [
        {
          "internalType": "contract IERC20",
          "name": "_tokenAddress",
          "type": "address"
        },
        {
          "internalType": "contract IERC20",
          "name": "_usdt",
          "type": "address"
        }
      ],
      "stateMutability": "nonpayable",
      "type": "constructor"
    },
    {
      "anonymous": false,
      "inputs": [
        {
          "indexed": true,
          "internalType": "bytes32",
          "name": "role",
          "type": "bytes32"
        },
        {
          "indexed": true,
          "internalType": "bytes32",
          "name": "previousAdminRole",
          "type": "bytes32"
        },
        {
          "indexed": true,
          "internalType": "bytes32",
          "name": "newAdminRole",
          "type": "bytes32"
        }
      ],
      "name": "RoleAdminChanged",
      "type": "event"
    },
    {
      "anonymous": false,
      "inputs": [
        {
          "indexed": true,
          "internalType": "bytes32",
          "name": "role",
          "type": "bytes32"
        },
        {
          "indexed": true,
          "internalType": "address",
          "name": "account",
          "type": "address"
        },
        {
          "indexed": true,
          "internalType": "address",
          "name": "sender",
          "type": "address"
        }
      ],
      "name": "RoleGranted",
      "type": "event"
    },
    {
      "anonymous": false,
      "inputs": [
        {
          "indexed": true,
          "internalType": "bytes32",
          "name": "role",
          "type": "bytes32"
        },
        {
          "indexed": true,
          "internalType": "address",
          "name": "account",
          "type": "address"
        },
        {
          "indexed": true,
          "internalType": "address",
          "name": "sender",
          "type": "address"
        }
      ],
      "name": "RoleRevoked",
      "type": "event"
    },
    {
      "inputs": [],
      "name": "DEFAULT_ADMIN_ROLE",
      "outputs": [
        {
          "internalType": "bytes32",
          "name": "",
          "type": "bytes32"
        }
      ],
      "stateMutability": "view",
      "type": "function",
      "constant": true
    },
    {
      "inputs": [
        {
          "internalType": "uint256",
          "name": "",
          "type": "uint256"
        }
      ],
      "name": "allCollections",
      "outputs": [
        {
          "internalType": "address",
          "name": "owner",
          "type": "address"
        },
        {
          "internalType": "string",
          "name": "name",
          "type": "string"
        },
        {
          "internalType": "uint256",
          "name": "size",
          "type": "uint256"
        },
        {
          "internalType": "uint256",
          "name": "totalPrice",
          "type": "uint256"
        },
        {
          "internalType": "uint256",
          "name": "publishedAt",
          "type": "uint256"
        },
        {
          "internalType": "uint256",
          "name": "collateralAmount",
          "type": "uint256"
        },
        {
          "internalType": "bool",
          "name": "acceptCollateral",
          "type": "bool"
        },
        {
          "internalType": "uint256",
          "name": "soldCount",
          "type": "uint256"
        },
        {
          "internalType": "uint256",
          "name": "nftsCount",
          "type": "uint256"
        }
      ],
      "stateMutability": "view",
      "type": "function",
      "constant": true
    },
    {
      "inputs": [
        {
          "internalType": "uint256",
          "name": "",
          "type": "uint256"
        }
      ],
      "name": "allNFTs",
      "outputs": [
        {
          "internalType": "address",
          "name": "tokenAddress",
          "type": "address"
        },
        {
          "internalType": "uint256",
          "name": "tokenId",
          "type": "uint256"
        },
        {
          "internalType": "address",
          "name": "owner",
          "type": "address"
        },
        {
          "internalType": "uint256",
          "name": "price",
          "type": "uint256"
        },
        {
          "internalType": "uint256",
          "name": "collectionId",
          "type": "uint256"
        },
        {
          "internalType": "bool",
          "name": "collateralLocked",
          "type": "bool"
        },
        {
          "internalType": "bool",
          "name": "collateralReturned",
          "type": "bool"
        },
        {
          "internalType": "uint256",
          "name": "collectionIndex",
          "type": "uint256"
        }
      ],
      "stateMutability": "view",
      "type": "function",
      "constant": true
    },
    {
      "inputs": [
        {
          "internalType": "uint256",
          "name": "",
          "type": "uint256"
        },
        {
          "internalType": "uint256",
          "name": "",
          "type": "uint256"
        }
      ],
      "name": "collaborators",
      "outputs": [
        {
          "internalType": "address",
          "name": "",
          "type": "address"
        }
      ],
      "stateMutability": "view",
      "type": "function",
      "constant": true
    },
    {
      "inputs": [],
      "name": "collateralToken",
      "outputs": [
        {
          "internalType": "contract IERC20",
          "name": "",
          "type": "address"
        }
      ],
      "stateMutability": "view",
      "type": "function",
      "constant": true
    },
    {
      "inputs": [],
      "name": "collectionCounter",
      "outputs": [
        {
          "internalType": "uint256",
          "name": "",
          "type": "uint256"
        }
      ],
      "stateMutability": "view",
      "type": "function",
      "constant": true
    },
    {
      "inputs": [
        {
          "internalType": "uint256",
          "name": "",
          "type": "uint256"
        }
      ],
      "name": "collectionsNftCount",
      "outputs": [
        {
          "internalType": "uint256",
          "name": "",
          "type": "uint256"
        }
      ],
      "stateMutability": "view",
      "type": "function",
      "constant": true
    },
    {
      "inputs": [],
      "name": "diamondERC20token",
      "outputs": [
        {
          "internalType": "contract IERC20",
          "name": "",
          "type": "address"
        }
      ],
      "stateMutability": "view",
      "type": "function",
      "constant": true
    },
    {
      "inputs": [
        {
          "internalType": "bytes32",
          "name": "role",
          "type": "bytes32"
        }
      ],
      "name": "getRoleAdmin",
      "outputs": [
        {
          "internalType": "bytes32",
          "name": "",
          "type": "bytes32"
        }
      ],
      "stateMutability": "view",
      "type": "function",
      "constant": true
    },
    {
      "inputs": [
        {
          "internalType": "bytes32",
          "name": "role",
          "type": "bytes32"
        },
        {
          "internalType": "address",
          "name": "account",
          "type": "address"
        }
      ],
      "name": "grantRole",
      "outputs": [],
      "stateMutability": "nonpayable",
      "type": "function"
    },
    {
      "inputs": [
        {
          "internalType": "bytes32",
          "name": "role",
          "type": "bytes32"
        },
        {
          "internalType": "address",
          "name": "account",
          "type": "address"
        }
      ],
      "name": "hasRole",
      "outputs": [
        {
          "internalType": "bool",
          "name": "",
          "type": "bool"
        }
      ],
      "stateMutability": "view",
      "type": "function",
      "constant": true
    },
    {
      "inputs": [
        {
          "internalType": "uint256",
          "name": "",
          "type": "uint256"
        },
        {
          "internalType": "address",
          "name": "",
          "type": "address"
        }
      ],
      "name": "isCollaborator",
      "outputs": [
        {
          "internalType": "bool",
          "name": "",
          "type": "bool"
        }
      ],
      "stateMutability": "view",
      "type": "function",
      "constant": true
    },
    {
      "inputs": [],
      "name": "minimumCollectionSize",
      "outputs": [
        {
          "internalType": "uint256",
          "name": "",
          "type": "uint256"
        }
      ],
      "stateMutability": "view",
      "type": "function",
      "constant": true
    },
    {
      "inputs": [],
      "name": "nftCounter",
      "outputs": [
        {
          "internalType": "uint256",
          "name": "",
          "type": "uint256"
        }
      ],
      "stateMutability": "view",
      "type": "function",
      "constant": true
    },
    {
      "inputs": [
        {
          "internalType": "address",
          "name": "",
          "type": "address"
        },
        {
          "internalType": "uint256",
          "name": "",
          "type": "uint256"
        }
      ],
      "name": "nftTokenIndex",
      "outputs": [
        {
          "internalType": "uint256",
          "name": "",
          "type": "uint256"
        }
      ],
      "stateMutability": "view",
      "type": "function",
      "constant": true
    },
    {
      "inputs": [
        {
          "internalType": "uint256",
          "name": "",
          "type": "uint256"
        },
        {
          "internalType": "uint256",
          "name": "",
          "type": "uint256"
        }
      ],
      "name": "nftsByCollectionId",
      "outputs": [
        {
          "internalType": "address",
          "name": "tokenAddress",
          "type": "address"
        },
        {
          "internalType": "uint256",
          "name": "tokenId",
          "type": "uint256"
        },
        {
          "internalType": "address",
          "name": "owner",
          "type": "address"
        },
        {
          "internalType": "uint256",
          "name": "price",
          "type": "uint256"
        },
        {
          "internalType": "uint256",
          "name": "collectionId",
          "type": "uint256"
        },
        {
          "internalType": "bool",
          "name": "collateralLocked",
          "type": "bool"
        },
        {
          "internalType": "bool",
          "name": "collateralReturned",
          "type": "bool"
        },
        {
          "internalType": "uint256",
          "name": "collectionIndex",
          "type": "uint256"
        }
      ],
      "stateMutability": "view",
      "type": "function",
      "constant": true
    },
    {
      "inputs": [
        {
          "internalType": "bytes32",
          "name": "role",
          "type": "bytes32"
        },
        {
          "internalType": "address",
          "name": "account",
          "type": "address"
        }
      ],
      "name": "renounceRole",
      "outputs": [],
      "stateMutability": "nonpayable",
      "type": "function"
    },
    {
      "inputs": [
        {
          "internalType": "bytes32",
          "name": "role",
          "type": "bytes32"
        },
        {
          "internalType": "address",
          "name": "account",
          "type": "address"
        }
      ],
      "name": "revokeRole",
      "outputs": [],
      "stateMutability": "nonpayable",
      "type": "function"
    },
    {
      "inputs": [
        {
          "internalType": "bytes4",
          "name": "interfaceId",
          "type": "bytes4"
        }
      ],
      "name": "supportsInterface",
      "outputs": [
        {
          "internalType": "bool",
          "name": "",
          "type": "bool"
        }
      ],
      "stateMutability": "view",
      "type": "function",
      "constant": true
    },
    {
      "inputs": [
        {
          "internalType": "address",
          "name": "",
          "type": "address"
        },
        {
          "internalType": "uint256",
          "name": "",
          "type": "uint256"
        }
      ],
      "name": "usersCollection",
      "outputs": [
        {
          "internalType": "uint256",
          "name": "",
          "type": "uint256"
        }
      ],
      "stateMutability": "view",
      "type": "function",
      "constant": true
    },
    {
      "inputs": [
        {
          "internalType": "address",
          "name": "",
          "type": "address"
        },
        {
          "internalType": "uint256",
          "name": "",
          "type": "uint256"
        }
      ],
      "name": "usersNFT",
      "outputs": [
        {
          "internalType": "uint256",
          "name": "",
          "type": "uint256"
        }
      ],
      "stateMutability": "view",
      "type": "function",
      "constant": true
    },
    {
      "inputs": [
        {
          "internalType": "contract IERC20",
          "name": "_token",
          "type": "address"
        }
      ],
      "name": "setCollateralToken",
      "outputs": [],
      "stateMutability": "nonpayable",
      "type": "function"
    },
    {
      "inputs": [
        {
          "internalType": "contract IERC20",
          "name": "_token",
          "type": "address"
        }
      ],
      "name": "setNativeToken",
      "outputs": [],
      "stateMutability": "nonpayable",
      "type": "function"
    },
    {
      "inputs": [
        {
          "internalType": "uint256",
          "name": "_size",
          "type": "uint256"
        }
      ],
      "name": "setCollectionSize",
      "outputs": [],
      "stateMutability": "nonpayable",
      "type": "function"
    },
    {
      "inputs": [
        {
          "internalType": "string",
          "name": "name_",
          "type": "string"
        },
        {
          "internalType": "uint256",
          "name": "size_",
          "type": "uint256"
        },
        {
          "internalType": "bool",
          "name": "acceptCollateral_",
          "type": "bool"
        },
        {
          "internalType": "address[]",
          "name": "collaborators_",
          "type": "address[]"
        }
      ],
      "name": "createCollection",
      "outputs": [],
      "stateMutability": "nonpayable",
      "type": "function"
    },
    {
      "inputs": [
        {
          "internalType": "address",
          "name": "tokenAddress_",
          "type": "address"
        },
        {
          "internalType": "uint256",
          "name": "tokenId_",
          "type": "uint256"
        },
        {
          "internalType": "uint256",
          "name": "collectionId_",
          "type": "uint256"
        },
        {
          "internalType": "uint256",
          "name": "price_",
          "type": "uint256"
        }
      ],
      "name": "addNFTToCollection",
      "outputs": [],
      "stateMutability": "nonpayable",
      "type": "function"
    },
    {
      "inputs": [
        {
          "internalType": "address",
          "name": "tokenAddress_",
          "type": "address"
        },
        {
          "internalType": "uint256",
          "name": "nftId_",
          "type": "uint256"
        },
        {
          "internalType": "uint256",
          "name": "collectionId_",
          "type": "uint256"
        }
      ],
      "name": "removeNFTFromCollection",
      "outputs": [],
      "stateMutability": "nonpayable",
      "type": "function"
    },
    {
      "inputs": [
        {
          "internalType": "address",
          "name": "",
          "type": "address"
        },
        {
          "internalType": "address",
          "name": "",
          "type": "address"
        },
        {
          "internalType": "uint256",
          "name": "",
          "type": "uint256"
        },
        {
          "internalType": "bytes",
          "name": "",
          "type": "bytes"
        }
      ],
      "name": "onERC721Received",
      "outputs": [
        {
          "internalType": "bytes4",
          "name": "",
          "type": "bytes4"
        }
      ],
      "stateMutability": "nonpayable",
      "type": "function"
    }
  ],
  "bytecode": "0x60806040523480156200001157600080fd5b5060405162003dc238038062003dc283398181016040528101906200003791906200028d565b6200005b6000801b6200004f620000fd60201b60201c565b6200010560201b60201c565b60006001819055506000600281905550600560038190555081600560006101000a81548173ffffffffffffffffffffffffffffffffffffffff021916908373ffffffffffffffffffffffffffffffffffffffff16021790555080600460006101000a81548173ffffffffffffffffffffffffffffffffffffffff021916908373ffffffffffffffffffffffffffffffffffffffff160217905550505062000330565b600033905090565b6200011782826200011b60201b60201c565b5050565b6200012d82826200020c60201b60201c565b6200020857600160008084815260200190815260200160002060000160008373ffffffffffffffffffffffffffffffffffffffff1673ffffffffffffffffffffffffffffffffffffffff16815260200190815260200160002060006101000a81548160ff021916908315150217905550620001ad620000fd60201b60201c565b73ffffffffffffffffffffffffffffffffffffffff168173ffffffffffffffffffffffffffffffffffffffff16837f2f8788117e7eff1d82e926ec794901d17c78024a50270940304540a733656f0d60405160405180910390a45b5050565b600080600084815260200190815260200160002060000160008373ffffffffffffffffffffffffffffffffffffffff1673ffffffffffffffffffffffffffffffffffffffff16815260200190815260200160002060009054906101000a900460ff16905092915050565b600081519050620002878162000316565b92915050565b60008060408385031215620002a157600080fd5b6000620002b18582860162000276565b9250506020620002c48582860162000276565b9150509250929050565b6000620002db82620002f6565b9050919050565b6000620002ef82620002ce565b9050919050565b600073ffffffffffffffffffffffffffffffffffffffff82169050919050565b6200032181620002e2565b81146200032d57600080fd5b50565b613a8280620003406000396000f3fe608060405234801561001057600080fd5b50600436106101c45760003560e01c8063a1f7132d116100f9578063d547741f11610097578063ee52a6f011610071578063ee52a6f014610551578063ee5be91f14610581578063f195341e146105b1578063f728bc04146105e1576101c4565b8063d547741f146104e7578063e574609e14610503578063e5c0560314610521576101c4565b8063b2016bd4116100d3578063b2016bd41461043f578063b510eccf1461045d578063bf162d6714610479578063d0e3cd63146104b0576101c4565b8063a1f7132d146103e7578063a217fddf14610405578063aca8ffe714610423576101c4565b806336568abe11610166578063666181a911610140578063666181a91461034f5780636da1e1021461036b57806391d1485414610387578063a1c61982146103b7576101c4565b806336568abe146102f95780633ddc99eb146103155780635187a82d14610331576101c4565b8063150b7a02116101a2578063150b7a0214610245578063167ef49514610275578063248a9ca3146102ad5780632f2ff15d146102dd576101c4565b806301ffc9a7146101c95780630da2fbe0146101f95780631123927b14610229575b600080fd5b6101e360048036038101906101de9190612cdc565b6105ff565b6040516101f09190613424565b60405180910390f35b610213600480360381019061020e9190612dc6565b610679565b60405161022091906135d2565b60405180910390f35b610243600480360381019061023e9190612c14565b610691565b005b61025f600480360381019061025a9190612b0e565b610b36565b60405161026c919061345a565b60405180910390f35b61028f600480360381019061028a9190612dc6565b610b4a565b6040516102a4999897969594939291906132e9565b60405180910390f35b6102c760048036038101906102c29190612c77565b610c4d565b6040516102d4919061343f565b60405180910390f35b6102f760048036038101906102f29190612ca0565b610c6c565b005b610313600480360381019061030e9190612ca0565b610c95565b005b61032f600480360381019061032a9190612bc5565b610d18565b005b610339610d28565b60405161034691906135d2565b60405180910390f35b61036960048036038101906103649190612d05565b610d2e565b005b61038560048036038101906103809190612d05565b610dc5565b005b6103a1600480360381019061039c9190612ca0565b610e5c565b6040516103ae9190613424565b60405180910390f35b6103d160048036038101906103cc9190612b89565b610ec6565b6040516103de91906135d2565b60405180910390f35b6103ef610ef7565b6040516103fc91906135d2565b60405180910390f35b61040d610efd565b60405161041a919061343f565b60405180910390f35b61043d60048036038101906104389190612dc6565b610f04565b005b610447610f61565b6040516104549190613475565b60405180910390f35b61047760048036038101906104729190612d2e565b610f87565b005b610493600480360381019061048e9190612dc6565b6112b6565b6040516104a79897969594939291906133a6565b60405180910390f35b6104ca60048036038101906104c59190612e2b565b611368565b6040516104de9897969594939291906133a6565b60405180910390f35b61050160048036038101906104fc9190612ca0565b611427565b005b61050b611450565b60405161051891906135d2565b60405180910390f35b61053b60048036038101906105369190612def565b611456565b6040516105489190613424565b60405180910390f35b61056b60048036038101906105669190612b89565b611485565b60405161057891906135d2565b60405180910390f35b61059b60048036038101906105969190612b89565b6114b6565b6040516105a891906135d2565b60405180910390f35b6105cb60048036038101906105c69190612e2b565b6114db565b6040516105d89190613297565b60405180910390f35b6105e9611529565b6040516105f69190613475565b60405180910390f35b60007f7965db0b000000000000000000000000000000000000000000000000000000007bffffffffffffffffffffffffffffffffffffffffffffffffffffffff1916827bffffffffffffffffffffffffffffffffffffffffffffffffffffffff1916148061067257506106718261154f565b5b9050919050565b600c6020528060005260406000206000915090505481565b8373ffffffffffffffffffffffffffffffffffffffff1663095ea7b330856040518363ffffffff1660e01b81526004016106cc92919061337d565b600060405180830381600087803b1580156106e657600080fd5b505af11580156106fa573d6000803e3d6000fd5b50505050600060096000848152602001908152602001600020905061073c6001600c6000868152602001908152602001600020546115b990919063ffffffff16565b600c60008581526020019081526020016000208190555061075b6115cf565b73ffffffffffffffffffffffffffffffffffffffff168573ffffffffffffffffffffffffffffffffffffffff16636352211e866040518263ffffffff1660e01b81526004016107aa91906135d2565b60206040518083038186803b1580156107c257600080fd5b505afa1580156107d6573d6000803e3d6000fd5b505050506040513d601f19601f820116820180604052508101906107fa9190612ae5565b73ffffffffffffffffffffffffffffffffffffffff1614610850576040517f08c379a0000000000000000000000000000000000000000000000000000000008152600401610847906134f2565b60405180910390fd5b6108586115cf565b73ffffffffffffffffffffffffffffffffffffffff168160000160009054906101000a900473ffffffffffffffffffffffffffffffffffffffff1673ffffffffffffffffffffffffffffffffffffffff1614806109165750600b600084815260200190815260200160002060006108cd6115cf565b73ffffffffffffffffffffffffffffffffffffffff1673ffffffffffffffffffffffffffffffffffffffff16815260200190815260200160002060009054906101000a900460ff165b610955576040517f08c379a000000000000000000000000000000000000000000000000000000000815260040161094c90613552565b60405180910390fd5b8060020154600c600085815260200190815260200160002054106109ae576040517f08c379a00000000000000000000000000000000000000000000000000000000081526004016109a590613532565b60405180910390fd5b6109c58282600301546115b990919063ffffffff16565b81600301819055506000816008015490506109ee600183600801546115b990919063ffffffff16565b82600801819055506000600154905082600960008781526020019081526020016000206000820160009054906101000a900473ffffffffffffffffffffffffffffffffffffffff168160000160006101000a81548173ffffffffffffffffffffffffffffffffffffffff021916908373ffffffffffffffffffffffffffffffffffffffff1602179055506001820181600101908054610a8c906138a9565b610a97929190612666565b50600282015481600201556003820154816003015560048201548160040155600582015481600501556006820160009054906101000a900460ff168160060160006101000a81548160ff0219169083151502179055506007820154816007015560088201548160080155905050610b19600180546115b990919063ffffffff16565b600181905550610b2d8787878785876115d7565b50505050505050565b600063150b7a0260e01b9050949350505050565b60096020528060005260406000206000915090508060000160009054906101000a900473ffffffffffffffffffffffffffffffffffffffff1690806001018054610b93906138a9565b80601f0160208091040260200160405190810160405280929190818152602001828054610bbf906138a9565b8015610c0c5780601f10610be157610100808354040283529160200191610c0c565b820191906000526020600020905b815481529060010190602001808311610bef57829003601f168201915b5050505050908060020154908060030154908060040154908060050154908060060160009054906101000a900460ff16908060070154908060080154905089565b6000806000838152602001908152602001600020600101549050919050565b610c7582610c4d565b610c8681610c816115cf565b611a03565b610c908383611aa0565b505050565b610c9d6115cf565b73ffffffffffffffffffffffffffffffffffffffff168173ffffffffffffffffffffffffffffffffffffffff1614610d0a576040517f08c379a0000000000000000000000000000000000000000000000000000000008152600401610d01906135b2565b60405180910390fd5b610d148282611b80565b5050565b610d23838383611c61565b505050565b60025481565b610d426000801b610d3d6115cf565b610e5c565b610d81576040517f08c379a0000000000000000000000000000000000000000000000000000000008152600401610d7890613512565b60405180910390fd5b80600460006101000a81548173ffffffffffffffffffffffffffffffffffffffff021916908373ffffffffffffffffffffffffffffffffffffffff16021790555050565b610dd96000801b610dd46115cf565b610e5c565b610e18576040517f08c379a0000000000000000000000000000000000000000000000000000000008152600401610e0f90613512565b60405180910390fd5b80600560006101000a81548173ffffffffffffffffffffffffffffffffffffffff021916908373ffffffffffffffffffffffffffffffffffffffff16021790555050565b600080600084815260200190815260200160002060000160008373ffffffffffffffffffffffffffffffffffffffff1673ffffffffffffffffffffffffffffffffffffffff16815260200190815260200160002060009054906101000a900460ff16905092915050565b600e6020528160005260406000208181548110610ee257600080fd5b90600052602060002001600091509150505481565b60035481565b6000801b81565b610f186000801b610f136115cf565b610e5c565b610f57576040517f08c379a0000000000000000000000000000000000000000000000000000000008152600401610f4e90613512565b60405180910390fd5b8060038190555050565b600460009054906101000a900473ffffffffffffffffffffffffffffffffffffffff1681565b600354841015610fcc576040517f08c379a0000000000000000000000000000000000000000000000000000000008152600401610fc3906134b2565b60405180910390fd5b610fd46126f3565b33816000019073ffffffffffffffffffffffffffffffffffffffff16908173ffffffffffffffffffffffffffffffffffffffff16815250508581602001819052508481604001818152505060008160600181815250506000816080018181525050600081610100018181525050838160c001901515908115158152505061106760016002546115b990919063ffffffff16565b60028190555060006002549050816009600083815260200190815260200160002060008201518160000160006101000a81548173ffffffffffffffffffffffffffffffffffffffff021916908373ffffffffffffffffffffffffffffffffffffffff16021790555060208201518160010190805190602001906110eb929190612757565b5060408201518160020155606082015181600301556080820151816004015560a0820151816005015560c08201518160060160006101000a81548160ff02191690831515021790555060e082015181600701556101008201518160080155905050600e60003373ffffffffffffffffffffffffffffffffffffffff1673ffffffffffffffffffffffffffffffffffffffff1681526020019081526020016000208190806001815401808255809150506001900390600052602060002001600090919091909150558383600a600084815260200190815260200160002091906111d49291906127dd565b5060005b848490508110156112ac576001600b60008481526020019081526020016000206000878785818110611233577f4e487b7100000000000000000000000000000000000000000000000000000000600052603260045260246000fd5b90506020020160208101906112489190612abc565b73ffffffffffffffffffffffffffffffffffffffff1673ffffffffffffffffffffffffffffffffffffffff16815260200190815260200160002060006101000a81548160ff02191690831515021790555080806112a4906138db565b9150506111d8565b5050505050505050565b600681815481106112c657600080fd5b90600052602060002090600702016000915090508060000160009054906101000a900473ffffffffffffffffffffffffffffffffffffffff16908060010154908060020160009054906101000a900473ffffffffffffffffffffffffffffffffffffffff16908060030154908060040154908060050160009054906101000a900460ff16908060050160019054906101000a900460ff16908060060154905088565b600d602052816000526040600020818154811061138457600080fd5b9060005260206000209060070201600091509150508060000160009054906101000a900473ffffffffffffffffffffffffffffffffffffffff16908060010154908060020160009054906101000a900473ffffffffffffffffffffffffffffffffffffffff16908060030154908060040154908060050160009054906101000a900460ff16908060050160019054906101000a900460ff16908060060154905088565b61143082610c4d565b6114418161143c6115cf565b611a03565b61144b8383611b80565b505050565b60015481565b600b6020528160005260406000206020528060005260406000206000915091509054906101000a900460ff1681565b600760205281600052604060002081815481106114a157600080fd5b90600052602060002001600091509150505481565b6008602052816000526040600020602052806000526040600020600091509150505481565b600a60205281600052604060002081815481106114f757600080fd5b906000526020600020016000915091509054906101000a900473ffffffffffffffffffffffffffffffffffffffff1681565b600560009054906101000a900473ffffffffffffffffffffffffffffffffffffffff1681565b60007f01ffc9a7000000000000000000000000000000000000000000000000000000007bffffffffffffffffffffffffffffffffffffffffffffffffffffffff1916827bffffffffffffffffffffffffffffffffffffffffffffffffffffffff1916149050919050565b600081836115c791906136a5565b905092915050565b600033905090565b8573ffffffffffffffffffffffffffffffffffffffff166342842e0e3330886040518463ffffffff1660e01b8152600401611614939291906132b2565b600060405180830381600087803b15801561162e57600080fd5b505af1158015611642573d6000803e3d6000fd5b5050505061164e61287d565b86816000019073ffffffffffffffffffffffffffffffffffffffff16908173ffffffffffffffffffffffffffffffffffffffff16815250508581602001818152505033816040019073ffffffffffffffffffffffffffffffffffffffff16908173ffffffffffffffffffffffffffffffffffffffff16815250508481608001818152505083816060018181525050818160e0018181525050600681908060018154018082558091505060019003906000526020600020906007020160009091909190915060008201518160000160006101000a81548173ffffffffffffffffffffffffffffffffffffffff021916908373ffffffffffffffffffffffffffffffffffffffff1602179055506020820151816001015560408201518160020160006101000a81548173ffffffffffffffffffffffffffffffffffffffff021916908373ffffffffffffffffffffffffffffffffffffffff160217905550606082015181600301556080820151816004015560a08201518160050160006101000a81548160ff02191690831515021790555060c08201518160050160016101000a81548160ff02191690831515021790555060e082015181600601555050600d600086815260200190815260200160002081908060018154018082558091505060019003906000526020600020906007020160009091909190915060008201518160000160006101000a81548173ffffffffffffffffffffffffffffffffffffffff021916908373ffffffffffffffffffffffffffffffffffffffff1602179055506020820151816001015560408201518160020160006101000a81548173ffffffffffffffffffffffffffffffffffffffff021916908373ffffffffffffffffffffffffffffffffffffffff160217905550606082015181600301556080820151816004015560a08201518160050160006101000a81548160ff02191690831515021790555060c08201518160050160016101000a81548160ff02191690831515021790555060e082015181600601555050600760003373ffffffffffffffffffffffffffffffffffffffff1673ffffffffffffffffffffffffffffffffffffffff16815260200190815260200160002083908060018154018082558091505060019003906000526020600020016000909190919091505582600860008973ffffffffffffffffffffffffffffffffffffffff1673ffffffffffffffffffffffffffffffffffffffff16815260200190815260200160002060008881526020019081526020016000208190555050505050505050565b611a0d8282610e5c565b611a9c57611a328173ffffffffffffffffffffffffffffffffffffffff166014612356565b611a408360001c6020612356565b604051602001611a5192919061325d565b6040516020818303038152906040526040517f08c379a0000000000000000000000000000000000000000000000000000000008152600401611a939190613490565b60405180910390fd5b5050565b611aaa8282610e5c565b611b7c57600160008084815260200190815260200160002060000160008373ffffffffffffffffffffffffffffffffffffffff1673ffffffffffffffffffffffffffffffffffffffff16815260200190815260200160002060006101000a81548160ff021916908315150217905550611b216115cf565b73ffffffffffffffffffffffffffffffffffffffff168173ffffffffffffffffffffffffffffffffffffffff16837f2f8788117e7eff1d82e926ec794901d17c78024a50270940304540a733656f0d60405160405180910390a45b5050565b611b8a8282610e5c565b15611c5d57600080600084815260200190815260200160002060000160008373ffffffffffffffffffffffffffffffffffffffff1673ffffffffffffffffffffffffffffffffffffffff16815260200190815260200160002060006101000a81548160ff021916908315150217905550611c026115cf565b73ffffffffffffffffffffffffffffffffffffffff168173ffffffffffffffffffffffffffffffffffffffff16837ff6391f5c32d9c69d2a47ea670b442974b53935d1edc7fd64eb21e047a839171b60405160405180910390a45b5050565b60006009600083815260200190815260200160002090506000600860008673ffffffffffffffffffffffffffffffffffffffff1673ffffffffffffffffffffffffffffffffffffffff1681526020019081526020016000206000858152602001908152602001600020549050600060068281548110611d09577f4e487b7100000000000000000000000000000000000000000000000000000000600052603260045260246000fd5b90600052602060002090600702019050611d216115cf565b73ffffffffffffffffffffffffffffffffffffffff1660068381548110611d71577f4e487b7100000000000000000000000000000000000000000000000000000000600052603260045260246000fd5b906000526020600020906007020160020160009054906101000a900473ffffffffffffffffffffffffffffffffffffffff1673ffffffffffffffffffffffffffffffffffffffff161480611e1b5750611dc86115cf565b73ffffffffffffffffffffffffffffffffffffffff168360000160009054906101000a900473ffffffffffffffffffffffffffffffffffffffff1673ffffffffffffffffffffffffffffffffffffffff16145b611e5a576040517f08c379a0000000000000000000000000000000000000000000000000000000008152600401611e5190613572565b60405180910390fd5b8360068381548110611e95577f4e487b7100000000000000000000000000000000000000000000000000000000600052603260045260246000fd5b90600052602060002090600702016004015414611ee7576040517f08c379a0000000000000000000000000000000000000000000000000000000008152600401611ede90613592565b60405180910390fd5b611f4960068381548110611f24577f4e487b7100000000000000000000000000000000000000000000000000000000600052603260045260246000fd5b906000526020600020906007020160030154846003015461265090919063ffffffff16565b8360030181905550611f696001846008015461265090919063ffffffff16565b836008018190555082600960008681526020019081526020016000206000820160009054906101000a900473ffffffffffffffffffffffffffffffffffffffff168160000160006101000a81548173ffffffffffffffffffffffffffffffffffffffff021916908373ffffffffffffffffffffffffffffffffffffffff1602179055506001820181600101908054612000906138a9565b61200b929190612666565b50600282015481600201556003820154816003015560048201548160040155600582015481600501556006820160009054906101000a900460ff168160060160006101000a81548160ff021916908315150217905550600782015481600701556008820154816008015590505061208d6001805461265090919063ffffffff16565b6001819055506000600683815481106120cf577f4e487b7100000000000000000000000000000000000000000000000000000000600052603260045260246000fd5b9060005260206000209060070201600401819055508573ffffffffffffffffffffffffffffffffffffffff166342842e0e308360020160009054906101000a900473ffffffffffffffffffffffffffffffffffffffff16886040518463ffffffff1660e01b8152600401612145939291906132b2565b600060405180830381600087803b15801561215f57600080fd5b505af1158015612173573d6000803e3d6000fd5b50505050600682815481106121b1577f4e487b7100000000000000000000000000000000000000000000000000000000600052603260045260246000fd5b9060005260206000209060070201600080820160006101000a81549073ffffffffffffffffffffffffffffffffffffffff021916905560018201600090556002820160006101000a81549073ffffffffffffffffffffffffffffffffffffffff0219169055600382016000905560048201600090556005820160006101000a81549060ff02191690556005820160016101000a81549060ff021916905560068201600090555050600d60008581526020019081526020016000208160060154815481106122a7577f4e487b7100000000000000000000000000000000000000000000000000000000600052603260045260246000fd5b9060005260206000209060070201600080820160006101000a81549073ffffffffffffffffffffffffffffffffffffffff021916905560018201600090556002820160006101000a81549073ffffffffffffffffffffffffffffffffffffffff0219169055600382016000905560048201600090556005820160006101000a81549060ff02191690556005820160016101000a81549060ff021916905560068201600090555050505050505050565b60606000600283600261236991906136fb565b61237391906136a5565b67ffffffffffffffff8111156123b2577f4e487b7100000000000000000000000000000000000000000000000000000000600052604160045260246000fd5b6040519080825280601f01601f1916602001820160405280156123e45781602001600182028036833780820191505090505b5090507f300000000000000000000000000000000000000000000000000000000000000081600081518110612442577f4e487b7100000000000000000000000000000000000000000000000000000000600052603260045260246000fd5b60200101907effffffffffffffffffffffffffffffffffffffffffffffffffffffffffffff1916908160001a9053507f7800000000000000000000000000000000000000000000000000000000000000816001815181106124cc577f4e487b7100000000000000000000000000000000000000000000000000000000600052603260045260246000fd5b60200101907effffffffffffffffffffffffffffffffffffffffffffffffffffffffffffff1916908160001a9053506000600184600261250c91906136fb565b61251691906136a5565b90505b6001811115612602577f3031323334353637383961626364656600000000000000000000000000000000600f86166010811061257e577f4e487b7100000000000000000000000000000000000000000000000000000000600052603260045260246000fd5b1a60f81b8282815181106125bb577f4e487b7100000000000000000000000000000000000000000000000000000000600052603260045260246000fd5b60200101907effffffffffffffffffffffffffffffffffffffffffffffffffffffffffffff1916908160001a905350600485901c9450806125fb9061387f565b9050612519565b5060008414612646576040517f08c379a000000000000000000000000000000000000000000000000000000000815260040161263d906134d2565b60405180910390fd5b8091505092915050565b6000818361265e9190613755565b905092915050565b828054612672906138a9565b90600052602060002090601f01602090048101928261269457600085556126e2565b82601f106126a557805485556126e2565b828001600101855582156126e257600052602060002091601f016020900482015b828111156126e15782548255916001019190600101906126c6565b5b5090506126ef91906128f2565b5090565b604051806101200160405280600073ffffffffffffffffffffffffffffffffffffffff168152602001606081526020016000815260200160008152602001600081526020016000815260200160001515815260200160008152602001600081525090565b828054612763906138a9565b90600052602060002090601f01602090048101928261278557600085556127cc565b82601f1061279e57805160ff19168380011785556127cc565b828001600101855582156127cc579182015b828111156127cb5782518255916020019190600101906127b0565b5b5090506127d991906128f2565b5090565b82805482825590600052602060002090810192821561286c579160200282015b8281111561286b57823573ffffffffffffffffffffffffffffffffffffffff168260006101000a81548173ffffffffffffffffffffffffffffffffffffffff021916908373ffffffffffffffffffffffffffffffffffffffff160217905550916020019190600101906127fd565b5b50905061287991906128f2565b5090565b604051806101000160405280600073ffffffffffffffffffffffffffffffffffffffff16815260200160008152602001600073ffffffffffffffffffffffffffffffffffffffff1681526020016000815260200160008152602001600015158152602001600015158152602001600081525090565b5b8082111561290b5760008160009055506001016128f3565b5090565b600061292261291d8461361e565b6135ed565b90508281526020810184848401111561293a57600080fd5b61294584828561383d565b509392505050565b600061296061295b8461364e565b6135ed565b90508281526020810184848401111561297857600080fd5b61298384828561383d565b509392505050565b60008135905061299a816139c2565b92915050565b6000815190506129af816139c2565b92915050565b60008083601f8401126129c757600080fd5b8235905067ffffffffffffffff8111156129e057600080fd5b6020830191508360208202830111156129f857600080fd5b9250929050565b600081359050612a0e816139d9565b92915050565b600081359050612a23816139f0565b92915050565b600081359050612a3881613a07565b92915050565b600082601f830112612a4f57600080fd5b8135612a5f84826020860161290f565b91505092915050565b600081359050612a7781613a1e565b92915050565b600082601f830112612a8e57600080fd5b8135612a9e84826020860161294d565b91505092915050565b600081359050612ab681613a35565b92915050565b600060208284031215612ace57600080fd5b6000612adc8482850161298b565b91505092915050565b600060208284031215612af757600080fd5b6000612b05848285016129a0565b91505092915050565b60008060008060808587031215612b2457600080fd5b6000612b328782880161298b565b9450506020612b438782880161298b565b9350506040612b5487828801612aa7565b925050606085013567ffffffffffffffff811115612b7157600080fd5b612b7d87828801612a3e565b91505092959194509250565b60008060408385031215612b9c57600080fd5b6000612baa8582860161298b565b9250506020612bbb85828601612aa7565b9150509250929050565b600080600060608486031215612bda57600080fd5b6000612be88682870161298b565b9350506020612bf986828701612aa7565b9250506040612c0a86828701612aa7565b9150509250925092565b60008060008060808587031215612c2a57600080fd5b6000612c388782880161298b565b9450506020612c4987828801612aa7565b9350506040612c5a87828801612aa7565b9250506060612c6b87828801612aa7565b91505092959194509250565b600060208284031215612c8957600080fd5b6000612c9784828501612a14565b91505092915050565b60008060408385031215612cb357600080fd5b6000612cc185828601612a14565b9250506020612cd28582860161298b565b9150509250929050565b600060208284031215612cee57600080fd5b6000612cfc84828501612a29565b91505092915050565b600060208284031215612d1757600080fd5b6000612d2584828501612a68565b91505092915050565b600080600080600060808688031215612d4657600080fd5b600086013567ffffffffffffffff811115612d6057600080fd5b612d6c88828901612a7d565b9550506020612d7d88828901612aa7565b9450506040612d8e888289016129ff565b935050606086013567ffffffffffffffff811115612dab57600080fd5b612db7888289016129b5565b92509250509295509295909350565b600060208284031215612dd857600080fd5b6000612de684828501612aa7565b91505092915050565b60008060408385031215612e0257600080fd5b6000612e1085828601612aa7565b9250506020612e218582860161298b565b9150509250929050565b60008060408385031215612e3e57600080fd5b6000612e4c85828601612aa7565b9250506020612e5d85828601612aa7565b9150509250929050565b612e7081613789565b82525050565b612e7f8161379b565b82525050565b612e8e816137a7565b82525050565b612e9d816137b1565b82525050565b612eac81613819565b82525050565b6000612ebd8261367e565b612ec78185613689565b9350612ed781856020860161384c565b612ee0816139b1565b840191505092915050565b6000612ef68261367e565b612f00818561369a565b9350612f1081856020860161384c565b80840191505092915050565b6000612f29600e83613689565b91507f53697a6520746f6f20736d616c6c0000000000000000000000000000000000006000830152602082019050919050565b6000612f69602083613689565b91507f537472696e67733a20686578206c656e67746820696e73756666696369656e746000830152602082019050919050565b6000612fa9601683613689565b91507f4f6e6c79204e4654206f776e65722063616e20616464000000000000000000006000830152602082019050919050565b6000612fe9601f83613689565b91507f41727468506f6f6c3a20596f7520617265206e6f74207468652061646d696e006000830152602082019050919050565b6000613029600f83613689565b91507f636f6c6c656374696f6e2066756c6c00000000000000000000000000000000006000830152602082019050919050565b6000613069602683613689565b91507f4e6565647320636f6c6c656374696f6e206f776e6572206f7220636f6c6c616260008301527f6f7261746f7200000000000000000000000000000000000000000000000000006020830152604082019050919050565b60006130cf602d83613689565b91507f4f6e6c79204e4654206f776e6572206f7220636f6c6c656374696f6e206f776e60008301527f65722063616e2072656d6f7665000000000000000000000000000000000000006020830152604082019050919050565b6000613135601583613689565b91507f4e4654206e6f7420696e20636f6c6c656374696f6e00000000000000000000006000830152602082019050919050565b600061317560178361369a565b91507f416363657373436f6e74726f6c3a206163636f756e74200000000000000000006000830152601782019050919050565b60006131b560118361369a565b91507f206973206d697373696e6720726f6c65200000000000000000000000000000006000830152601182019050919050565b60006131f5602f83613689565b91507f416363657373436f6e74726f6c3a2063616e206f6e6c792072656e6f756e636560008301527f20726f6c657320666f722073656c6600000000000000000000000000000000006020830152604082019050919050565b6132578161380f565b82525050565b600061326882613168565b91506132748285612eeb565b915061327f826131a8565b915061328b8284612eeb565b91508190509392505050565b60006020820190506132ac6000830184612e67565b92915050565b60006060820190506132c76000830186612e67565b6132d46020830185612e67565b6132e1604083018461324e565b949350505050565b6000610120820190506132ff600083018c612e67565b8181036020830152613311818b612eb2565b9050613320604083018a61324e565b61332d606083018961324e565b61333a608083018861324e565b61334760a083018761324e565b61335460c0830186612e76565b61336160e083018561324e565b61336f61010083018461324e565b9a9950505050505050505050565b60006040820190506133926000830185612e67565b61339f602083018461324e565b9392505050565b6000610100820190506133bc600083018b612e67565b6133c9602083018a61324e565b6133d66040830189612e67565b6133e3606083018861324e565b6133f0608083018761324e565b6133fd60a0830186612e76565b61340a60c0830185612e76565b61341760e083018461324e565b9998505050505050505050565b60006020820190506134396000830184612e76565b92915050565b60006020820190506134546000830184612e85565b92915050565b600060208201905061346f6000830184612e94565b92915050565b600060208201905061348a6000830184612ea3565b92915050565b600060208201905081810360008301526134aa8184612eb2565b905092915050565b600060208201905081810360008301526134cb81612f1c565b9050919050565b600060208201905081810360008301526134eb81612f5c565b9050919050565b6000602082019050818103600083015261350b81612f9c565b9050919050565b6000602082019050818103600083015261352b81612fdc565b9050919050565b6000602082019050818103600083015261354b8161301c565b9050919050565b6000602082019050818103600083015261356b8161305c565b9050919050565b6000602082019050818103600083015261358b816130c2565b9050919050565b600060208201905081810360008301526135ab81613128565b9050919050565b600060208201905081810360008301526135cb816131e8565b9050919050565b60006020820190506135e7600083018461324e565b92915050565b6000604051905081810181811067ffffffffffffffff8211171561361457613613613982565b5b8060405250919050565b600067ffffffffffffffff82111561363957613638613982565b5b601f19601f8301169050602081019050919050565b600067ffffffffffffffff82111561366957613668613982565b5b601f19601f8301169050602081019050919050565b600081519050919050565b600082825260208201905092915050565b600081905092915050565b60006136b08261380f565b91506136bb8361380f565b9250827fffffffffffffffffffffffffffffffffffffffffffffffffffffffffffffffff038211156136f0576136ef613924565b5b828201905092915050565b60006137068261380f565b91506137118361380f565b9250817fffffffffffffffffffffffffffffffffffffffffffffffffffffffffffffffff048311821515161561374a57613749613924565b5b828202905092915050565b60006137608261380f565b915061376b8361380f565b92508282101561377e5761377d613924565b5b828203905092915050565b6000613794826137ef565b9050919050565b60008115159050919050565b6000819050919050565b60007fffffffff0000000000000000000000000000000000000000000000000000000082169050919050565b60006137e882613789565b9050919050565b600073ffffffffffffffffffffffffffffffffffffffff82169050919050565b6000819050919050565b60006138248261382b565b9050919050565b6000613836826137ef565b9050919050565b82818337600083830152505050565b60005b8381101561386a57808201518184015260208101905061384f565b83811115613879576000848401525b50505050565b600061388a8261380f565b9150600082141561389e5761389d613924565b5b600182039050919050565b600060028204905060018216806138c157607f821691505b602082108114156138d5576138d4613953565b5b50919050565b60006138e68261380f565b91507fffffffffffffffffffffffffffffffffffffffffffffffffffffffffffffffff82141561391957613918613924565b5b600182019050919050565b7f4e487b7100000000000000000000000000000000000000000000000000000000600052601160045260246000fd5b7f4e487b7100000000000000000000000000000000000000000000000000000000600052602260045260246000fd5b7f4e487b7100000000000000000000000000000000000000000000000000000000600052604160045260246000fd5b6000601f19601f8301169050919050565b6139cb81613789565b81146139d657600080fd5b50565b6139e28161379b565b81146139ed57600080fd5b50565b6139f9816137a7565b8114613a0457600080fd5b50565b613a10816137b1565b8114613a1b57600080fd5b50565b613a27816137dd565b8114613a3257600080fd5b50565b613a3e8161380f565b8114613a4957600080fd5b5056fea2646970667358221220777cbb51a677fd24e244ab283cde38f10e72355f771a02150477145c684fca9a64736f6c63430008000033",
  "immutableReferences": {},
  "source": "// SPDX-License-Identifier: MIT\npragma solidity ^0.8.0;\n\n//import \"@openzeppelin/contracts/token/ERC721/extensions/ERC721URIStorage.sol\";\nimport \"@openzeppelin/contracts/token/ERC721/IERC721.sol\";\nimport \"@openzeppelin/contracts/utils/Counters.sol\";\nimport \"@openzeppelin/contracts/access/AccessControl.sol\";\nimport \"./interfaces/IERC20.sol\";\nimport \"./interfaces/IERC20.sol\";\nimport \"@openzeppelin/contracts/token/ERC721/IERC721Receiver.sol\";\nimport {SafeMath} from \"./utils/SafeMath.sol\";\n\ncontract Batch is IERC721Receiver, AccessControl {\n    using SafeMath for uint256;\n\n    // declaring variables\n    uint256 public nftCounter;\n    uint256 public collectionCounter;\n    uint256 public minimumCollectionSize;\n    IERC20 public collateralToken;\n    IERC20 public diamondERC20token;\n    \n    // declaring struct\n    struct Collection {\n        address owner;\n        string name;\n        uint256 size;\n        uint256 totalPrice;\n        uint256 publishedAt;  // time that published.\n        uint256 collateralAmount;\n        bool acceptCollateral;\n        uint256 soldCount;\n        uint256 nftsCount;\n    }\n\n    struct NFT {\n        address tokenAddress;\n        uint256 tokenId;\n        address owner;\n        uint256 price;\n        uint256 collectionId;\n        bool collateralLocked;\n        bool collateralReturned;\n        uint256 collectionIndex;\n    }\n\n    // This keeps record of all the NFT\n    NFT[] public allNFTs; \n    //mapping(uint256 => NFT) public allNFTs;\n    // This keeps record of a address(users nft) nft\n    mapping(address => uint256[]) public usersNFT;\n    // users address to tokenID to nftID (map users address to tokenID and NFT struct)\n    mapping(address => mapping(uint256 => uint256)) public nftTokenIndex;\n    //mapping(uint256 => mapping(uint256 => uint256)) public nftTokenIndex;\n    // all collection\n    mapping(uint256 => Collection) public allCollections; \n    // collectionId => collaborators ( All collaborators of a collection )\n    mapping(uint256 => address[]) public collaborators;\n    // collections collaborators \n    mapping(uint256 => mapping(address => bool)) public isCollaborator;\n    // Number of NFTs count in an collection\n    mapping(uint256 => uint256) public collectionsNftCount;\n    //  Nfts in an collection (collectionid to nfts)\n    mapping(uint256 => NFT[]) public nftsByCollectionId;\n    // users collection\n    mapping(address => uint256[]) public usersCollection;\n    //mapping(address )\n\n    \n    /* This is an moifier that makes sure only deployer of these contract can trigger\n    important functions */\n    modifier onlyAdmin() {\n        require(\n            hasRole(DEFAULT_ADMIN_ROLE, _msgSender()),\n            'ArthPool: You are not the admin'\n        );\n        _;\n    }\n\n    /*\n        In Constructor we are setting the admin, default values\n    */\n    constructor(\n        IERC20 _tokenAddress, \n        IERC20 _usdt\n    ) {\n        _setupRole(DEFAULT_ADMIN_ROLE, _msgSender());\n        nftCounter = 0;\n        collectionCounter = 0;\n        minimumCollectionSize = 5;\n\n        diamondERC20token = _tokenAddress;\n        collateralToken = _usdt;\n    }\n\n    // setter to set the collateral token address ( By default its Mock USDT)\n    function setCollateralToken(IERC20 _token) public onlyAdmin {\n        collateralToken = _token;\n    }\n\n    // setter to set the native erc20 token address ( By default its Mock USDT)\n    function setNativeToken(IERC20 _token) public onlyAdmin {\n        diamondERC20token = _token;\n    }\n\n    // setter for minimum size of the collection\n    function setCollectionSize(uint256 _size) public onlyAdmin {\n        minimumCollectionSize = _size;\n    }\n\n    /*\n        here we are making the boxes which will hold nfts. \n        params :-\n            name - Name of the collection\n            size - Size of the collection\n            acceptCollatearal - Boolean field declared if the collection\n               requires collateral token in order to mint global Diamond erc20 Token\n            collaborators - array of all the collaborators of the collection\n    */\n    function createCollection(\n        string memory name_,\n        uint256 size_,\n        bool acceptCollateral_,\n        address[] calldata collaborators_\n    ) public {\n        require(size_ >= minimumCollectionSize, \"Size too small\");\n        \n        // Setting up the struct Collection values \n        Collection memory collection;\n        collection.owner = msg.sender;\n        collection.name = name_;\n        collection.size = size_;\n        collection.totalPrice = 0;\n        collection.publishedAt = 0;\n        collection.nftsCount = 0;\n        collection.acceptCollateral = acceptCollateral_;\n\n        // Incrementing the collection counter id\n        collectionCounter = collectionCounter.add(1);\n        uint256 collectionId = collectionCounter;\n        \n        // Storing the collection in a mapping with refernce to collection id\n        allCollections[collectionId] = collection;\n        // saving all the collections of a user with respect to his address\n        usersCollection[msg.sender].push(collectionId);\n        // saving all the collaborators\n        collaborators[collectionId] = collaborators_;\n\n        // looping through all the collaborators and setting there boolean feild\n        for (uint256 i = 0; i < collaborators_.length; i++) {\n            isCollaborator[collectionId][collaborators_[i]] = true;\n        }\n    }\n\n    /* \n        depositing NFT into an collection ( This is an private function which \n        will be called by an public function)\n        params :- \n            tokenaddress - token address of the nft\n    */\n    function _depositNFT(\n        address tokenAddress_,\n        uint256 tokenId_,\n        uint256 collectionId_, \n        uint256 price_,\n        uint256 nftsIndex_,\n        uint256 collectionIndex_\n    ) private {\n        IERC721(tokenAddress_).safeTransferFrom(msg.sender, address(this), tokenId_);\n\n        NFT memory nft;\n        nft.tokenAddress = tokenAddress_;\n        nft.tokenId = tokenId_;\n        nft.owner = msg.sender;\n        nft.collectionId = collectionId_;\n        nft.price = price_;\n        nft.collectionIndex = collectionIndex_;\n        \n        // Push to nftsByCollectionId.\n        allNFTs.push(nft);\n        nftsByCollectionId[collectionId_].push(nft);\n        usersNFT[msg.sender].push(nftsIndex_);\n\n        nftTokenIndex[tokenAddress_][tokenId_] = nftsIndex_;\n    }\n\n    function addNFTToCollection(\n        address tokenAddress_, \n        uint256 tokenId_, \n        uint256 collectionId_, \n        uint256 price_\n    ) public {\n        IERC721(tokenAddress_).approve(address(this), tokenId_);\n        Collection storage collection = allCollections[collectionId_];\n        // number of nfts in a collection\n        collectionsNftCount[collectionId_] = collectionsNftCount[collectionId_].add(1);    \n        \n        require(IERC721(tokenAddress_).ownerOf(tokenId_) == _msgSender(), \"Only NFT owner can add\");\n        require(collection.owner == _msgSender() ||\n                isCollaborator[collectionId_][_msgSender()], \"Needs collection owner or collaborator\");\n        require(collectionsNftCount[collectionId_] < collection.size,\n                \"collection full\");\n\n        collection.totalPrice = collection.totalPrice.add(price_);\n        uint256 _collectionIndex = collection.nftsCount;\n        collection.nftsCount = collection.nftsCount.add(1);\n        uint256 _nftsIndex = nftCounter;\n        allCollections[collectionId_] = collection;\n\n        nftCounter = nftCounter.add(1);\n        _depositNFT(\n            tokenAddress_, \n            tokenId_, \n            collectionId_, \n            price_,\n            _nftsIndex,\n            _collectionIndex\n        );\n    }\n\n    function _withdrawNFT(\n        address who_, \n        uint256 nftId_\n    ) private {\n        allNFTs[nftId_].owner = address(0);\n        allNFTs[nftId_].collectionId = 0;\n\n        address tokenAddress = allNFTs[nftId_].tokenAddress;\n        uint256 tokenId = allNFTs[nftId_].tokenId;\n\n        IERC721(tokenAddress).safeTransferFrom(address(this), who_, tokenId);\n    }\n\n    function _removeNFTFromCollection(\n        address tokenAddress_,\n        uint256 nftId_, \n        uint256 collectionId_\n    ) private {\n        Collection storage collection = allCollections[collectionId_];\n        uint256 _nftsIndex = nftTokenIndex[tokenAddress_][nftId_];\n        NFT storage nft = allNFTs[_nftsIndex];\n\n        require(allNFTs[_nftsIndex].owner == _msgSender() ||\n                collection.owner == _msgSender(),\n                \"Only NFT owner or collection owner can remove\");\n        require(allNFTs[_nftsIndex].collectionId == collectionId_, \"NFT not in collection\");\n\n        collection.totalPrice = collection.totalPrice.sub(allNFTs[_nftsIndex].price);\n        collection.nftsCount = collection.nftsCount.sub(1);\n        allCollections[collectionId_] = collection;\n        nftCounter = nftCounter.sub(1);\n        allNFTs[_nftsIndex].collectionId = 0;\n\n        IERC721(tokenAddress_).safeTransferFrom(address(this), nft.owner, nftId_);\n\n        delete allNFTs[_nftsIndex];\n        delete nftsByCollectionId[collectionId_][nft.collectionIndex];\n    }\n\n    function removeNFTFromCollection(address tokenAddress_, uint256 nftId_, uint256 collectionId_) public {\n        _removeNFTFromCollection(tokenAddress_, nftId_, collectionId_);\n    }\n\n    function onERC721Received(address, address, uint256, bytes memory) public virtual override returns (bytes4) {\n        return this.onERC721Received.selector;\n    }\n}",
  "sourcePath": "/Users/newsgate/Work/RFT-Batch-NFT/src/contracts/batch.sol",
  "compiler": {
    "name": "solc",
    "version": "0.8.0+commit.c7dfd78e.Emscripten.clang"
  },
  "schemaVersion": "3.2.3",
  "updatedAt": "2021-06-15T20:46:44.508Z",
  "networkType": "ethereum",
  "devdoc": {
    "kind": "dev",
    "methods": {
      "getRoleAdmin(bytes32)": {
        "details": "Returns the admin role that controls `role`. See {grantRole} and {revokeRole}. To change a role's admin, use {_setRoleAdmin}."
      },
      "grantRole(bytes32,address)": {
        "details": "Grants `role` to `account`. If `account` had not been already granted `role`, emits a {RoleGranted} event. Requirements: - the caller must have ``role``'s admin role."
      },
      "hasRole(bytes32,address)": {
        "details": "Returns `true` if `account` has been granted `role`."
      },
      "renounceRole(bytes32,address)": {
        "details": "Revokes `role` from the calling account. Roles are often managed via {grantRole} and {revokeRole}: this function's purpose is to provide a mechanism for accounts to lose their privileges if they are compromised (such as when a trusted device is misplaced). If the calling account had been granted `role`, emits a {RoleRevoked} event. Requirements: - the caller must be `account`."
      },
      "revokeRole(bytes32,address)": {
        "details": "Revokes `role` from `account`. If `account` had been granted `role`, emits a {RoleRevoked} event. Requirements: - the caller must have ``role``'s admin role."
      },
      "supportsInterface(bytes4)": {
        "details": "See {IERC165-supportsInterface}."
      }
    },
    "version": 1
  },
  "userdoc": {
    "kind": "user",
    "methods": {},
    "version": 1
  }
}