{
  "contractName": "Batch",
  "abi": [
    {
      "inputs": [],
      "stateMutability": "nonpayable",
      "type": "constructor"
    },
    {
      "anonymous": false,
      "inputs": [
        {
          "indexed": true,
          "internalType": "bytes32",
          "name": "role",
          "type": "bytes32"
        },
        {
          "indexed": true,
          "internalType": "bytes32",
          "name": "previousAdminRole",
          "type": "bytes32"
        },
        {
          "indexed": true,
          "internalType": "bytes32",
          "name": "newAdminRole",
          "type": "bytes32"
        }
      ],
      "name": "RoleAdminChanged",
      "type": "event"
    },
    {
      "anonymous": false,
      "inputs": [
        {
          "indexed": true,
          "internalType": "bytes32",
          "name": "role",
          "type": "bytes32"
        },
        {
          "indexed": true,
          "internalType": "address",
          "name": "account",
          "type": "address"
        },
        {
          "indexed": true,
          "internalType": "address",
          "name": "sender",
          "type": "address"
        }
      ],
      "name": "RoleGranted",
      "type": "event"
    },
    {
      "anonymous": false,
      "inputs": [
        {
          "indexed": true,
          "internalType": "bytes32",
          "name": "role",
          "type": "bytes32"
        },
        {
          "indexed": true,
          "internalType": "address",
          "name": "account",
          "type": "address"
        },
        {
          "indexed": true,
          "internalType": "address",
          "name": "sender",
          "type": "address"
        }
      ],
      "name": "RoleRevoked",
      "type": "event"
    },
    {
      "inputs": [],
      "name": "DEFAULT_ADMIN_ROLE",
      "outputs": [
        {
          "internalType": "bytes32",
          "name": "",
          "type": "bytes32"
        }
      ],
      "stateMutability": "view",
      "type": "function"
    },
    {
      "inputs": [
        {
          "internalType": "uint256",
          "name": "",
          "type": "uint256"
        }
      ],
      "name": "allCollections",
      "outputs": [
        {
          "internalType": "address",
          "name": "owner",
          "type": "address"
        },
        {
          "internalType": "string",
          "name": "name",
          "type": "string"
        },
        {
          "internalType": "uint256",
          "name": "size",
          "type": "uint256"
        },
        {
          "internalType": "uint256",
          "name": "commissionRate",
          "type": "uint256"
        },
        {
          "internalType": "bool",
          "name": "willAcceptBLES",
          "type": "bool"
        },
        {
          "internalType": "uint256",
          "name": "totalPrice",
          "type": "uint256"
        },
        {
          "internalType": "uint256",
          "name": "fee",
          "type": "uint256"
        },
        {
          "internalType": "uint256",
          "name": "commission",
          "type": "uint256"
        },
        {
          "internalType": "uint256",
          "name": "publishedAt",
          "type": "uint256"
        },
        {
          "internalType": "uint256",
          "name": "soldCount",
          "type": "uint256"
        },
        {
          "internalType": "uint256",
          "name": "nftsCount",
          "type": "uint256"
        }
      ],
      "stateMutability": "view",
      "type": "function"
    },
    {
      "inputs": [
        {
          "internalType": "uint256",
          "name": "",
          "type": "uint256"
        }
      ],
      "name": "allNFTs",
      "outputs": [
        {
          "internalType": "address",
          "name": "tokenAddress",
          "type": "address"
        },
        {
          "internalType": "uint256",
          "name": "tokenId",
          "type": "uint256"
        },
        {
          "internalType": "address",
          "name": "owner",
          "type": "address"
        },
        {
          "internalType": "uint256",
          "name": "price",
          "type": "uint256"
        },
        {
          "internalType": "uint256",
          "name": "paid",
          "type": "uint256"
        },
        {
          "internalType": "uint256",
          "name": "collectionId",
          "type": "uint256"
        },
        {
          "internalType": "uint256",
          "name": "indexInCollection",
          "type": "uint256"
        }
      ],
      "stateMutability": "view",
      "type": "function"
    },
    {
      "inputs": [
        {
          "internalType": "uint256",
          "name": "",
          "type": "uint256"
        },
        {
          "internalType": "uint256",
          "name": "",
          "type": "uint256"
        }
      ],
      "name": "collaborators",
      "outputs": [
        {
          "internalType": "address",
          "name": "",
          "type": "address"
        }
      ],
      "stateMutability": "view",
      "type": "function"
    },
    {
      "inputs": [],
      "name": "collateralToken",
      "outputs": [
        {
          "internalType": "contract IERC20",
          "name": "",
          "type": "address"
        }
      ],
      "stateMutability": "view",
      "type": "function"
    },
    {
      "inputs": [],
      "name": "collectionCounter",
      "outputs": [
        {
          "internalType": "uint256",
          "name": "",
          "type": "uint256"
        }
      ],
      "stateMutability": "view",
      "type": "function"
    },
    {
      "inputs": [
        {
          "internalType": "address",
          "name": "",
          "type": "address"
        },
        {
          "internalType": "uint256",
          "name": "",
          "type": "uint256"
        }
      ],
      "name": "collectionsByOwner",
      "outputs": [
        {
          "internalType": "uint256",
          "name": "",
          "type": "uint256"
        }
      ],
      "stateMutability": "view",
      "type": "function"
    },
    {
      "inputs": [
        {
          "internalType": "uint256",
          "name": "",
          "type": "uint256"
        }
      ],
      "name": "collectionsNftCount",
      "outputs": [
        {
          "internalType": "uint256",
          "name": "",
          "type": "uint256"
        }
      ],
      "stateMutability": "view",
      "type": "function"
    },
    {
      "inputs": [],
      "name": "creatingFee",
      "outputs": [
        {
          "internalType": "uint256",
          "name": "",
          "type": "uint256"
        }
      ],
      "stateMutability": "view",
      "type": "function"
    },
    {
      "inputs": [],
      "name": "feeRate",
      "outputs": [
        {
          "internalType": "uint256",
          "name": "",
          "type": "uint256"
        }
      ],
      "stateMutability": "view",
      "type": "function"
    },
    {
      "inputs": [],
      "name": "feeTo",
      "outputs": [
        {
          "internalType": "address",
          "name": "",
          "type": "address"
        }
      ],
      "stateMutability": "view",
      "type": "function"
    },
    {
      "inputs": [
        {
          "internalType": "bytes32",
          "name": "role",
          "type": "bytes32"
        }
      ],
      "name": "getRoleAdmin",
      "outputs": [
        {
          "internalType": "bytes32",
          "name": "",
          "type": "bytes32"
        }
      ],
      "stateMutability": "view",
      "type": "function"
    },
    {
      "inputs": [
        {
          "internalType": "bytes32",
          "name": "role",
          "type": "bytes32"
        },
        {
          "internalType": "address",
          "name": "account",
          "type": "address"
        }
      ],
      "name": "grantRole",
      "outputs": [],
      "stateMutability": "nonpayable",
      "type": "function"
    },
    {
      "inputs": [
        {
          "internalType": "bytes32",
          "name": "role",
          "type": "bytes32"
        },
        {
          "internalType": "address",
          "name": "account",
          "type": "address"
        }
      ],
      "name": "hasRole",
      "outputs": [
        {
          "internalType": "bool",
          "name": "",
          "type": "bool"
        }
      ],
      "stateMutability": "view",
      "type": "function"
    },
    {
      "inputs": [
        {
          "internalType": "uint256",
          "name": "",
          "type": "uint256"
        },
        {
          "internalType": "address",
          "name": "",
          "type": "address"
        }
      ],
      "name": "isCollaborator",
      "outputs": [
        {
          "internalType": "bool",
          "name": "",
          "type": "bool"
        }
      ],
      "stateMutability": "view",
      "type": "function"
    },
    {
      "inputs": [],
      "name": "maximumDuration",
      "outputs": [
        {
          "internalType": "uint256",
          "name": "",
          "type": "uint256"
        }
      ],
      "stateMutability": "view",
      "type": "function"
    },
    {
      "inputs": [],
      "name": "minimumCollectionSize",
      "outputs": [
        {
          "internalType": "uint256",
          "name": "",
          "type": "uint256"
        }
      ],
      "stateMutability": "view",
      "type": "function"
    },
    {
      "inputs": [],
      "name": "nextNftID",
      "outputs": [
        {
          "internalType": "uint256",
          "name": "",
          "type": "uint256"
        }
      ],
      "stateMutability": "view",
      "type": "function"
    },
    {
      "inputs": [
        {
          "internalType": "address",
          "name": "",
          "type": "address"
        },
        {
          "internalType": "uint256",
          "name": "",
          "type": "uint256"
        }
      ],
      "name": "nftIdMap",
      "outputs": [
        {
          "internalType": "uint256",
          "name": "",
          "type": "uint256"
        }
      ],
      "stateMutability": "view",
      "type": "function"
    },
    {
      "inputs": [],
      "name": "nftPriceCeil",
      "outputs": [
        {
          "internalType": "uint256",
          "name": "",
          "type": "uint256"
        }
      ],
      "stateMutability": "view",
      "type": "function"
    },
    {
      "inputs": [],
      "name": "nftPriceFloor",
      "outputs": [
        {
          "internalType": "uint256",
          "name": "",
          "type": "uint256"
        }
      ],
      "stateMutability": "view",
      "type": "function"
    },
    {
      "inputs": [
        {
          "internalType": "uint256",
          "name": "",
          "type": "uint256"
        },
        {
          "internalType": "uint256",
          "name": "",
          "type": "uint256"
        }
      ],
      "name": "nftsByCollectionId",
      "outputs": [
        {
          "internalType": "uint256",
          "name": "",
          "type": "uint256"
        }
      ],
      "stateMutability": "view",
      "type": "function"
    },
    {
      "inputs": [
        {
          "internalType": "address",
          "name": "",
          "type": "address"
        },
        {
          "internalType": "uint256",
          "name": "",
          "type": "uint256"
        }
      ],
      "name": "nftsByOwner",
      "outputs": [
        {
          "internalType": "uint256",
          "name": "",
          "type": "uint256"
        }
      ],
      "stateMutability": "view",
      "type": "function"
    },
    {
      "inputs": [
        {
          "internalType": "bytes32",
          "name": "role",
          "type": "bytes32"
        },
        {
          "internalType": "address",
          "name": "account",
          "type": "address"
        }
      ],
      "name": "renounceRole",
      "outputs": [],
      "stateMutability": "nonpayable",
      "type": "function"
    },
    {
      "inputs": [
        {
          "internalType": "bytes32",
          "name": "role",
          "type": "bytes32"
        },
        {
          "internalType": "address",
          "name": "account",
          "type": "address"
        }
      ],
      "name": "revokeRole",
      "outputs": [],
      "stateMutability": "nonpayable",
      "type": "function"
    },
    {
      "inputs": [
        {
          "internalType": "bytes4",
          "name": "interfaceId",
          "type": "bytes4"
        }
      ],
      "name": "supportsInterface",
      "outputs": [
        {
          "internalType": "bool",
          "name": "",
          "type": "bool"
        }
      ],
      "stateMutability": "view",
      "type": "function"
    },
    {
      "inputs": [],
      "name": "tokenCounter",
      "outputs": [
        {
          "internalType": "uint256",
          "name": "",
          "type": "uint256"
        }
      ],
      "stateMutability": "view",
      "type": "function"
    },
    {
      "inputs": [
        {
          "internalType": "contract IERC20",
          "name": "baseToken_",
          "type": "address"
        }
      ],
      "name": "setBaseToken",
      "outputs": [],
      "stateMutability": "nonpayable",
      "type": "function"
    },
    {
      "inputs": [
        {
          "internalType": "address payable",
          "name": "_feeAddress",
          "type": "address"
        }
      ],
      "name": "setFeeTo",
      "outputs": [],
      "stateMutability": "nonpayable",
      "type": "function"
    },
    {
      "inputs": [
        {
          "internalType": "uint256",
          "name": "_amount",
          "type": "uint256"
        }
      ],
      "name": "setCreatingFee",
      "outputs": [],
      "stateMutability": "nonpayable",
      "type": "function"
    },
    {
      "inputs": [
        {
          "internalType": "string",
          "name": "name_",
          "type": "string"
        },
        {
          "internalType": "uint256",
          "name": "size_",
          "type": "uint256"
        },
        {
          "internalType": "uint256",
          "name": "commissionRate_",
          "type": "uint256"
        },
        {
          "internalType": "bool",
          "name": "willAcceptBLES_",
          "type": "bool"
        },
        {
          "internalType": "address[]",
          "name": "collaborators_",
          "type": "address[]"
        }
      ],
      "name": "createCollection",
      "outputs": [],
      "stateMutability": "nonpayable",
      "type": "function"
    },
    {
      "inputs": [
        {
          "internalType": "address",
          "name": "tokenAddress_",
          "type": "address"
        },
        {
          "internalType": "uint256",
          "name": "tokenId_",
          "type": "uint256"
        },
        {
          "internalType": "uint256",
          "name": "collectionId_",
          "type": "uint256"
        },
        {
          "internalType": "uint256",
          "name": "price_",
          "type": "uint256"
        }
      ],
      "name": "addNFTToCollection",
      "outputs": [],
      "stateMutability": "nonpayable",
      "type": "function"
    },
    {
      "inputs": [
        {
          "internalType": "uint256",
          "name": "collectionId_",
          "type": "uint256"
        }
      ],
      "name": "isPublished",
      "outputs": [
        {
          "internalType": "bool",
          "name": "",
          "type": "bool"
        }
      ],
      "stateMutability": "view",
      "type": "function"
    },
    {
      "inputs": [
        {
          "internalType": "uint256",
          "name": "nftId_",
          "type": "uint256"
        },
        {
          "internalType": "uint256",
          "name": "collectionId_",
          "type": "uint256"
        },
        {
          "internalType": "uint256",
          "name": "price_",
          "type": "uint256"
        }
      ],
      "name": "editNFTInCollection",
      "outputs": [],
      "stateMutability": "nonpayable",
      "type": "function"
    },
    {
      "inputs": [
        {
          "internalType": "uint256",
          "name": "nftId_",
          "type": "uint256"
        },
        {
          "internalType": "uint256",
          "name": "collectionId_",
          "type": "uint256"
        }
      ],
      "name": "removeNFTFromCollection",
      "outputs": [],
      "stateMutability": "nonpayable",
      "type": "function"
    },
    {
      "inputs": [
        {
          "internalType": "address",
          "name": "",
          "type": "address"
        },
        {
          "internalType": "address",
          "name": "",
          "type": "address"
        },
        {
          "internalType": "uint256",
          "name": "",
          "type": "uint256"
        },
        {
          "internalType": "bytes",
          "name": "",
          "type": "bytes"
        }
      ],
      "name": "onERC721Received",
      "outputs": [
        {
          "internalType": "bytes4",
          "name": "",
          "type": "bytes4"
        }
      ],
      "stateMutability": "nonpayable",
      "type": "function"
    }
  ],
  "bytecode": "0x60806040526101f46005556000600755670de0b6b3a764000060115569d3c21bcecceda10000006012556003601355621275006014553480156200004257600080fd5b50620000676000801b6200005b6200007d60201b60201c565b6200008560201b60201c565b60006003819055506000600281905550620001f6565b600033905090565b6200009782826200009b60201b60201c565b5050565b620000ad82826200018c60201b60201c565b6200018857600160008084815260200190815260200160002060000160008373ffffffffffffffffffffffffffffffffffffffff1673ffffffffffffffffffffffffffffffffffffffff16815260200190815260200160002060006101000a81548160ff0219169083151502179055506200012d6200007d60201b60201c565b73ffffffffffffffffffffffffffffffffffffffff168173ffffffffffffffffffffffffffffffffffffffff16837f2f8788117e7eff1d82e926ec794901d17c78024a50270940304540a733656f0d60405160405180910390a45b5050565b600080600084815260200190815260200160002060000160008373ffffffffffffffffffffffffffffffffffffffff1673ffffffffffffffffffffffffffffffffffffffff16815260200190815260200160002060009054906101000a900460ff16905092915050565b6140b280620002066000396000f3fe608060405234801561001057600080fd5b506004361061021c5760003560e01c80639080895f11610125578063d4157bc9116100ad578063ea7585ec1161007c578063ea7585ec146106af578063ef42af06146106cb578063f195341e146106e9578063f46901ed14610719578063f8bda664146107355761021c565b8063d4157bc914610629578063d547741f14610645578063e5c0560314610661578063e61bd4e6146106915761021c565b8063a217fddf116100f4578063a217fddf14610569578063b2016bd414610587578063bf162d67146105a5578063d082e381146105db578063d0e3cd63146105f95761021c565b80639080895f146104df57806391d14854146104fd578063978bbdb91461052d578063a1f7132d1461054b5761021c565b8063248a9ca3116101a85780634b129bee116101775780634b129bee146104155780635187a82d14610431578063688d33471461044f5780637b156fb51461047f5780638d316f1c146104af5761021c565b8063248a9ca31461038f57806327ea3078146103bf5780632f2ff15d146103dd57806336568abe146103f95761021c565b8063150b7a02116101ef578063150b7a02146102bb578063167ef495146102eb57806316bb6c13146103255780631a204e30146103415780631e25aa8c146103715761021c565b8063017e7e581461022157806301ffc9a71461023f5780630da2fbe01461026f5780631123927b1461029f575b600080fd5b610229610751565b60405161023691906137d8565b60405180910390f35b61025960048036038101906102549190613096565b610777565b604051610266919061394b565b60405180910390f35b61028960048036038101906102849190613192565b6107f1565b6040516102969190613b79565b60405180910390f35b6102b960048036038101906102b49190612fa5565b610809565b005b6102d560048036038101906102d09190612eee565b610c7a565b6040516102e29190613981565b60405180910390f35b61030560048036038101906103009190613192565b610c8e565b60405161031c9b9a9998979695949392919061382a565b60405180910390f35b61033f600480360381019061033a91906130bf565b610d9d565b005b61035b60048036038101906103569190612f69565b610e34565b6040516103689190613b79565b60405180910390f35b610379610e59565b6040516103869190613b79565b60405180910390f35b6103a960048036038101906103a49190613031565b610e5f565b6040516103b69190613966565b60405180910390f35b6103c7610e7e565b6040516103d49190613b79565b60405180910390f35b6103f760048036038101906103f2919061305a565b610e84565b005b610413600480360381019061040e919061305a565b610ead565b005b61042f600480360381019061042a91906131f7565b610f30565b005b610439610f86565b6040516104469190613b79565b60405180910390f35b61046960048036038101906104649190612f69565b610f8c565b6040516104769190613b79565b60405180910390f35b61049960048036038101906104949190613192565b610fbd565b6040516104a6919061394b565b60405180910390f35b6104c960048036038101906104c49190612f69565b610fdf565b6040516104d69190613b79565b60405180910390f35b6104e7611010565b6040516104f49190613b79565b60405180910390f35b6105176004803603810190610512919061305a565b611016565b604051610524919061394b565b60405180910390f35b610535611080565b6040516105429190613b79565b60405180910390f35b610553611086565b6040516105609190613b79565b60405180910390f35b61057161108c565b60405161057e9190613966565b60405180910390f35b61058f611093565b60405161059c919061399c565b60405180910390f35b6105bf60048036038101906105ba9190613192565b6110b9565b6040516105d297969594939291906138dc565b60405180910390f35b6105e361113b565b6040516105f09190613b79565b60405180910390f35b610613600480360381019061060e91906131f7565b611141565b6040516106209190613b79565b60405180910390f35b610643600480360381019061063e9190613192565b611172565b005b61065f600480360381019061065a919061305a565b6111cf565b005b61067b600480360381019061067691906131bb565b6111f8565b604051610688919061394b565b60405180910390f35b610699611227565b6040516106a69190613b79565b60405180910390f35b6106c960048036038101906106c49190613233565b61122d565b005b6106d36115f5565b6040516106e09190613b79565b60405180910390f35b61070360048036038101906106fe91906131f7565b6115fb565b60405161071091906137d8565b60405180910390f35b610733600480360381019061072e9190612ec5565b611649565b005b61074f600480360381019061074a91906130e8565b6116e0565b005b600660009054906101000a900473ffffffffffffffffffffffffffffffffffffffff1681565b60007f7965db0b000000000000000000000000000000000000000000000000000000007bffffffffffffffffffffffffffffffffffffffffffffffffffffffff1916827bffffffffffffffffffffffffffffffffffffffffffffffffffffffff191614806107ea57506107e982611b7c565b5b9050919050565b600e6020528060005260406000206000915090505481565b6000600b600084815260200190815260200160002090506108476001600e600086815260200190815260200160002054611be690919063ffffffff16565b600e600085815260200190815260200160002081905550600061087f868686600e600089815260200190815260200160002054611bfc565b9050610889611f82565b73ffffffffffffffffffffffffffffffffffffffff166008600083815260200190815260200160002060020160009054906101000a900473ffffffffffffffffffffffffffffffffffffffff1673ffffffffffffffffffffffffffffffffffffffff161461092c576040517f08c379a000000000000000000000000000000000000000000000000000000000815260040161092390613a39565b60405180910390fd5b610934611f82565b73ffffffffffffffffffffffffffffffffffffffff168260000160009054906101000a900473ffffffffffffffffffffffffffffffffffffffff1673ffffffffffffffffffffffffffffffffffffffff1614806109f25750600c600085815260200190815260200160002060006109a9611f82565b73ffffffffffffffffffffffffffffffffffffffff1673ffffffffffffffffffffffffffffffffffffffff16815260200190815260200160002060009054906101000a900460ff165b610a31576040517f08c379a0000000000000000000000000000000000000000000000000000000008152600401610a2890613ab9565b60405180910390fd5b6011548310158015610a4557506012548311155b610a84576040517f08c379a0000000000000000000000000000000000000000000000000000000008152600401610a7b90613af9565b60405180910390fd5b610a8d84610fbd565b15610acd576040517f08c379a0000000000000000000000000000000000000000000000000000000008152600401610ac490613a99565b60405180910390fd5b8160020154600e60008681526020019081526020016000205410610b26576040517f08c379a0000000000000000000000000000000000000000000000000000000008152600401610b1d90613a79565b60405180910390fd5b826008600083815260200190815260200160002060030181905550600f6000858152602001908152602001600020805490506008600083815260200190815260200160002060060181905550600f6000858152602001908152602001600020819080600181540180825580915050600190039060005260206000200160009091909190915055610bc3838360050154611be690919063ffffffff16565b82600501819055508160040160009054906101000a900460ff16610c2957610c20610c0d612710610bff60055487611f8a90919063ffffffff16565b611fa090919063ffffffff16565b8360060154611be690919063ffffffff16565b82600601819055505b610c6a610c57612710610c49856003015487611f8a90919063ffffffff16565b611fa090919063ffffffff16565b8360070154611be690919063ffffffff16565b8260070181905550505050505050565b600063150b7a0260e01b9050949350505050565b600b6020528060005260406000206000915090508060000160009054906101000a900473ffffffffffffffffffffffffffffffffffffffff1690806001018054610cd790613e93565b80601f0160208091040260200160405190810160405280929190818152602001828054610d0390613e93565b8015610d505780601f10610d2557610100808354040283529160200191610d50565b820191906000526020600020905b815481529060010190602001808311610d3357829003601f168201915b5050505050908060020154908060030154908060040160009054906101000a900460ff169080600501549080600601549080600701549080600801549080600901549080600a015490508b565b610db16000801b610dac611f82565b611016565b610df0576040517f08c379a0000000000000000000000000000000000000000000000000000000008152600401610de790613a59565b60405180910390fd5b80600460006101000a81548173ffffffffffffffffffffffffffffffffffffffff021916908373ffffffffffffffffffffffffffffffffffffffff16021790555050565b600a602052816000526040600020602052806000526040600020600091509150505481565b60145481565b6000806000838152602001908152602001600020600101549050919050565b60115481565b610e8d82610e5f565b610e9e81610e99611f82565b611fb6565b610ea88383612053565b505050565b610eb5611f82565b73ffffffffffffffffffffffffffffffffffffffff168173ffffffffffffffffffffffffffffffffffffffff1614610f22576040517f08c379a0000000000000000000000000000000000000000000000000000000008152600401610f1990613b59565b60405180910390fd5b610f2c8282612133565b5050565b60006008600084815260200190815260200160002060020160009054906101000a900473ffffffffffffffffffffffffffffffffffffffff169050610f758383612214565b610f818184600061266e565b505050565b60025481565b60096020528160005260406000208181548110610fa857600080fd5b90600052602060002001600091509150505481565b600080600b600084815260200190815260200160002060080154119050919050565b60106020528160005260406000208181548110610ffb57600080fd5b90600052602060002001600091509150505481565b60075481565b600080600084815260200190815260200160002060000160008373ffffffffffffffffffffffffffffffffffffffff1673ffffffffffffffffffffffffffffffffffffffff16815260200190815260200160002060009054906101000a900460ff16905092915050565b60055481565b60135481565b6000801b81565b600460009054906101000a900473ffffffffffffffffffffffffffffffffffffffff1681565b60086020528060005260406000206000915090508060000160009054906101000a900473ffffffffffffffffffffffffffffffffffffffff16908060010154908060020160009054906101000a900473ffffffffffffffffffffffffffffffffffffffff16908060030154908060040154908060050154908060060154905087565b60015481565b600f602052816000526040600020818154811061115d57600080fd5b90600052602060002001600091509150505481565b6111866000801b611181611f82565b611016565b6111c5576040517f08c379a00000000000000000000000000000000000000000000000000000000081526004016111bc90613a59565b60405180910390fd5b8060078190555050565b6111d882610e5f565b6111e9816111e4611f82565b611fb6565b6111f38383612133565b505050565b600c6020528160005260406000206020528060005260406000206000915091509054906101000a900460ff1681565b60125481565b6000600b6000848152602001908152602001600020905061124c611f82565b73ffffffffffffffffffffffffffffffffffffffff168160000160009054906101000a900473ffffffffffffffffffffffffffffffffffffffff1673ffffffffffffffffffffffffffffffffffffffff16148061131157506112ac611f82565b73ffffffffffffffffffffffffffffffffffffffff166008600086815260200190815260200160002060020160009054906101000a900473ffffffffffffffffffffffffffffffffffffffff1673ffffffffffffffffffffffffffffffffffffffff16145b611350576040517f08c379a000000000000000000000000000000000000000000000000000000000815260040161134790613b19565b60405180910390fd5b601154821015801561136457506012548211155b6113a3576040517f08c379a000000000000000000000000000000000000000000000000000000000815260040161139a90613af9565b60405180910390fd5b826008600086815260200190815260200160002060050154146113fb576040517f08c379a00000000000000000000000000000000000000000000000000000000081526004016113f290613b39565b60405180910390fd5b61140483610fbd565b15611444576040517f08c379a000000000000000000000000000000000000000000000000000000000815260040161143b90613a99565b60405180910390fd5b6114836008600086815260200190815260200160002060030154611475848460050154611be690919063ffffffff16565b6127ac90919063ffffffff16565b81600501819055508060040160009054906101000a900460ff16611539576115306114e36127106114d5600554600860008a815260200190815260200160002060030154611f8a90919063ffffffff16565b611fa090919063ffffffff16565b61152261150f61271061150160055488611f8a90919063ffffffff16565b611fa090919063ffffffff16565b8460060154611be690919063ffffffff16565b6127ac90919063ffffffff16565b81600601819055505b6115cc61157d61271061156f8460030154600860008a815260200190815260200160002060030154611f8a90919063ffffffff16565b611fa090919063ffffffff16565b6115be6115ab61271061159d866003015488611f8a90919063ffffffff16565b611fa090919063ffffffff16565b8460070154611be690919063ffffffff16565b6127ac90919063ffffffff16565b816007018190555081600860008681526020019081526020016000206003018190555050505050565b60035481565b600d602052816000526040600020818154811061161757600080fd5b906000526020600020016000915091509054906101000a900473ffffffffffffffffffffffffffffffffffffffff1681565b61165d6000801b611658611f82565b611016565b61169c576040517f08c379a000000000000000000000000000000000000000000000000000000000815260040161169390613a59565b60405180910390fd5b80600660006101000a81548173ffffffffffffffffffffffffffffffffffffffff021916908373ffffffffffffffffffffffffffffffffffffffff16021790555050565b601354851015611725576040517f08c379a000000000000000000000000000000000000000000000000000000000815260040161171c906139d9565b60405180910390fd5b61271061173d60055486611be690919063ffffffff16565b1061177d576040517f08c379a000000000000000000000000000000000000000000000000000000000815260040161177490613a19565b60405180910390fd5b6000600754111561185f57600460009054906101000a900473ffffffffffffffffffffffffffffffffffffffff1673ffffffffffffffffffffffffffffffffffffffff166323b872dd33600660009054906101000a900473ffffffffffffffffffffffffffffffffffffffff166007546040518463ffffffff1660e01b815260040161180b939291906137f3565b602060405180830381600087803b15801561182557600080fd5b505af1158015611839573d6000803e3d6000fd5b505050506040513d601f19601f8201168201806040525081019061185d9190613008565b505b611867612abc565b33816000019073ffffffffffffffffffffffffffffffffffffffff16908173ffffffffffffffffffffffffffffffffffffffff1681525050868160200181905250858160400181815250508481606001818152505060008160a00181815250508381608001901515908115158152505060008161010001818152505060008161014001818152505060006119076001600254611be690919063ffffffff16565b905061191f6001600254611be690919063ffffffff16565b60028190555081600b600083815260200190815260200160002060008201518160000160006101000a81548173ffffffffffffffffffffffffffffffffffffffff021916908373ffffffffffffffffffffffffffffffffffffffff160217905550602082015181600101908051906020019061199c929190612b2e565b50604082015181600201556060820151816003015560808201518160040160006101000a81548160ff02191690831515021790555060a0820151816005015560c0820151816006015560e082015181600701556101008201518160080155610120820151816009015561014082015181600a0155905050601060003373ffffffffffffffffffffffffffffffffffffffff1673ffffffffffffffffffffffffffffffffffffffff1681526020019081526020016000208190806001815401808255809150506001900390600052602060002001600090919091909150558383600d60008481526020019081526020016000209190611a9b929190612bb4565b5060005b84849050811015611b71576001600c60008481526020019081526020016000206000878785818110611afa577f4e487b7100000000000000000000000000000000000000000000000000000000600052603260045260246000fd5b9050602002016020810190611b0f9190612e9c565b73ffffffffffffffffffffffffffffffffffffffff1673ffffffffffffffffffffffffffffffffffffffff16815260200190815260200160002060006101000a81548160ff02191690831515021790555080611b6a90613ec5565b9050611a9f565b505050505050505050565b60007f01ffc9a7000000000000000000000000000000000000000000000000000000007bffffffffffffffffffffffffffffffffffffffffffffffffffffffff1916827bffffffffffffffffffffffffffffffffffffffffffffffffffffffff1916149050919050565b60008183611bf49190613c4c565b905092915050565b60008473ffffffffffffffffffffffffffffffffffffffff166342842e0e611c22611f82565b30876040518463ffffffff1660e01b8152600401611c42939291906137f3565b600060405180830381600087803b158015611c5c57600080fd5b505af1158015611c70573d6000803e3d6000fd5b50505050611c7c612c54565b85816000019073ffffffffffffffffffffffffffffffffffffffff16908173ffffffffffffffffffffffffffffffffffffffff168152505084816020018181525050611cc6611f82565b816040019073ffffffffffffffffffffffffffffffffffffffff16908173ffffffffffffffffffffffffffffffffffffffff1681525050838160a0018181525050828160c0018181525050600080600a60008973ffffffffffffffffffffffffffffffffffffffff1673ffffffffffffffffffffffffffffffffffffffff1681526020019081526020016000206000888152602001908152602001600020541115611dc357600a60008873ffffffffffffffffffffffffffffffffffffffff1673ffffffffffffffffffffffffffffffffffffffff1681526020019081526020016000206000878152602001908152602001600020549050611e31565b611dd96001600354611be690919063ffffffff16565b905080600a60008973ffffffffffffffffffffffffffffffffffffffff1673ffffffffffffffffffffffffffffffffffffffff1681526020019081526020016000206000888152602001908152602001600020819055505b816008600083815260200190815260200160002060008201518160000160006101000a81548173ffffffffffffffffffffffffffffffffffffffff021916908373ffffffffffffffffffffffffffffffffffffffff1602179055506020820151816001015560408201518160020160006101000a81548173ffffffffffffffffffffffffffffffffffffffff021916908373ffffffffffffffffffffffffffffffffffffffff160217905550606082015181600301556080820151816004015560a0820151816005015560c0820151816006015590505060096000611f14611f82565b73ffffffffffffffffffffffffffffffffffffffff1673ffffffffffffffffffffffffffffffffffffffff1681526020019081526020016000208190806001815401808255809150506001900390600052602060002001600090919091909150558092505050949350505050565b600033905090565b60008183611f989190613cd3565b905092915050565b60008183611fae9190613ca2565b905092915050565b611fc08282611016565b61204f57611fe58173ffffffffffffffffffffffffffffffffffffffff1660146127c2565b611ff38360001c60206127c2565b60405160200161200492919061379e565b6040516020818303038152906040526040517f08c379a000000000000000000000000000000000000000000000000000000000815260040161204691906139b7565b60405180910390fd5b5050565b61205d8282611016565b61212f57600160008084815260200190815260200160002060000160008373ffffffffffffffffffffffffffffffffffffffff1673ffffffffffffffffffffffffffffffffffffffff16815260200190815260200160002060006101000a81548160ff0219169083151502179055506120d4611f82565b73ffffffffffffffffffffffffffffffffffffffff168173ffffffffffffffffffffffffffffffffffffffff16837f2f8788117e7eff1d82e926ec794901d17c78024a50270940304540a733656f0d60405160405180910390a45b5050565b61213d8282611016565b1561221057600080600084815260200190815260200160002060000160008373ffffffffffffffffffffffffffffffffffffffff1673ffffffffffffffffffffffffffffffffffffffff16815260200190815260200160002060006101000a81548160ff0219169083151502179055506121b5611f82565b73ffffffffffffffffffffffffffffffffffffffff168173ffffffffffffffffffffffffffffffffffffffff16837ff6391f5c32d9c69d2a47ea670b442974b53935d1edc7fd64eb21e047a839171b60405160405180910390a45b5050565b6000600b60008381526020019081526020016000209050612233611f82565b73ffffffffffffffffffffffffffffffffffffffff166008600085815260200190815260200160002060020160009054906101000a900473ffffffffffffffffffffffffffffffffffffffff1673ffffffffffffffffffffffffffffffffffffffff1614806122f857506122a5611f82565b73ffffffffffffffffffffffffffffffffffffffff168160000160009054906101000a900473ffffffffffffffffffffffffffffffffffffffff1673ffffffffffffffffffffffffffffffffffffffff16145b612337576040517f08c379a000000000000000000000000000000000000000000000000000000000815260040161232e90613ad9565b60405180910390fd5b8160086000858152602001908152602001600020600501541461238f576040517f08c379a000000000000000000000000000000000000000000000000000000000815260040161238690613b39565b60405180910390fd5b61239882610fbd565b156123d8576040517f08c379a00000000000000000000000000000000000000000000000000000000081526004016123cf90613a99565b60405180910390fd5b612405600860008581526020019081526020016000206003015482600501546127ac90919063ffffffff16565b81600501819055508060040160009054906101000a900460ff16612481576124786124656127106124576005546008600089815260200190815260200160002060030154611f8a90919063ffffffff16565b611fa090919063ffffffff16565b82600601546127ac90919063ffffffff16565b81600601819055505b6124d86124c56127106124b784600301546008600089815260200190815260200160002060030154611f8a90919063ffffffff16565b611fa090919063ffffffff16565b82600701546127ac90919063ffffffff16565b8160070181905550600060086000858152602001908152602001600020600501819055506000600860008581526020019081526020016000206006015490506000600f60008581526020019081526020016000206001600f60008781526020019081526020016000208054905061254f9190613d2d565b81548110612586577f4e487b7100000000000000000000000000000000000000000000000000000000600052603260045260246000fd5b9060005260206000200154905080600f600086815260200190815260200160002083815481106125df577f4e487b7100000000000000000000000000000000000000000000000000000000600052603260045260246000fd5b9060005260206000200181905550816008600083815260200190815260200160002060060181905550600f6000858152602001908152602001600020805480612651577f4e487b7100000000000000000000000000000000000000000000000000000000600052603160045260246000fd5b600190038181906000526020600020016000905590555050505050565b60006008600084815260200190815260200160002060020160006101000a81548173ffffffffffffffffffffffffffffffffffffffff021916908373ffffffffffffffffffffffffffffffffffffffff1602179055506000600860008481526020019081526020016000206005018190555060006008600084815260200190815260200160002060000160009054906101000a900473ffffffffffffffffffffffffffffffffffffffff1690506000600860008581526020019081526020016000206001015490508173ffffffffffffffffffffffffffffffffffffffff166342842e0e3087846040518463ffffffff1660e01b8152600401612773939291906137f3565b600060405180830381600087803b15801561278d57600080fd5b505af11580156127a1573d6000803e3d6000fd5b505050505050505050565b600081836127ba9190613d2d565b905092915050565b6060600060028360026127d59190613cd3565b6127df9190613c4c565b67ffffffffffffffff81111561281e577f4e487b7100000000000000000000000000000000000000000000000000000000600052604160045260246000fd5b6040519080825280601f01601f1916602001820160405280156128505781602001600182028036833780820191505090505b5090507f3000000000000000000000000000000000000000000000000000000000000000816000815181106128ae577f4e487b7100000000000000000000000000000000000000000000000000000000600052603260045260246000fd5b60200101907effffffffffffffffffffffffffffffffffffffffffffffffffffffffffffff1916908160001a9053507f780000000000000000000000000000000000000000000000000000000000000081600181518110612938577f4e487b7100000000000000000000000000000000000000000000000000000000600052603260045260246000fd5b60200101907effffffffffffffffffffffffffffffffffffffffffffffffffffffffffffff1916908160001a905350600060018460026129789190613cd3565b6129829190613c4c565b90505b6001811115612a6e577f3031323334353637383961626364656600000000000000000000000000000000600f8616601081106129ea577f4e487b7100000000000000000000000000000000000000000000000000000000600052603260045260246000fd5b1a60f81b828281518110612a27577f4e487b7100000000000000000000000000000000000000000000000000000000600052603260045260246000fd5b60200101907effffffffffffffffffffffffffffffffffffffffffffffffffffffffffffff1916908160001a905350600485901c945080612a6790613e69565b9050612985565b5060008414612ab2576040517f08c379a0000000000000000000000000000000000000000000000000000000008152600401612aa9906139f9565b60405180910390fd5b8091505092915050565b604051806101600160405280600073ffffffffffffffffffffffffffffffffffffffff1681526020016060815260200160008152602001600081526020016000151581526020016000815260200160008152602001600081526020016000815260200160008152602001600081525090565b828054612b3a90613e93565b90600052602060002090601f016020900481019282612b5c5760008555612ba3565b82601f10612b7557805160ff1916838001178555612ba3565b82800160010185558215612ba3579182015b82811115612ba2578251825591602001919060010190612b87565b5b509050612bb09190612cbd565b5090565b828054828255906000526020600020908101928215612c43579160200282015b82811115612c4257823573ffffffffffffffffffffffffffffffffffffffff168260006101000a81548173ffffffffffffffffffffffffffffffffffffffff021916908373ffffffffffffffffffffffffffffffffffffffff16021790555091602001919060010190612bd4565b5b509050612c509190612cbd565b5090565b6040518060e00160405280600073ffffffffffffffffffffffffffffffffffffffff16815260200160008152602001600073ffffffffffffffffffffffffffffffffffffffff168152602001600081526020016000815260200160008152602001600081525090565b5b80821115612cd6576000816000905550600101612cbe565b5090565b6000612ced612ce884613bc5565b613b94565b905082815260208101848484011115612d0557600080fd5b612d10848285613e27565b509392505050565b6000612d2b612d2684613bf5565b613b94565b905082815260208101848484011115612d4357600080fd5b612d4e848285613e27565b509392505050565b600081359050612d6581613fdb565b92915050565b600081359050612d7a81613ff2565b92915050565b60008083601f840112612d9257600080fd5b8235905067ffffffffffffffff811115612dab57600080fd5b602083019150836020820283011115612dc357600080fd5b9250929050565b600081359050612dd981614009565b92915050565b600081519050612dee81614009565b92915050565b600081359050612e0381614020565b92915050565b600081359050612e1881614037565b92915050565b600082601f830112612e2f57600080fd5b8135612e3f848260208601612cda565b91505092915050565b600081359050612e578161404e565b92915050565b600082601f830112612e6e57600080fd5b8135612e7e848260208601612d18565b91505092915050565b600081359050612e9681614065565b92915050565b600060208284031215612eae57600080fd5b6000612ebc84828501612d56565b91505092915050565b600060208284031215612ed757600080fd5b6000612ee584828501612d6b565b91505092915050565b60008060008060808587031215612f0457600080fd5b6000612f1287828801612d56565b9450506020612f2387828801612d56565b9350506040612f3487828801612e87565b925050606085013567ffffffffffffffff811115612f5157600080fd5b612f5d87828801612e1e565b91505092959194509250565b60008060408385031215612f7c57600080fd5b6000612f8a85828601612d56565b9250506020612f9b85828601612e87565b9150509250929050565b60008060008060808587031215612fbb57600080fd5b6000612fc987828801612d56565b9450506020612fda87828801612e87565b9350506040612feb87828801612e87565b9250506060612ffc87828801612e87565b91505092959194509250565b60006020828403121561301a57600080fd5b600061302884828501612ddf565b91505092915050565b60006020828403121561304357600080fd5b600061305184828501612df4565b91505092915050565b6000806040838503121561306d57600080fd5b600061307b85828601612df4565b925050602061308c85828601612d56565b9150509250929050565b6000602082840312156130a857600080fd5b60006130b684828501612e09565b91505092915050565b6000602082840312156130d157600080fd5b60006130df84828501612e48565b91505092915050565b60008060008060008060a0878903121561310157600080fd5b600087013567ffffffffffffffff81111561311b57600080fd5b61312789828a01612e5d565b965050602061313889828a01612e87565b955050604061314989828a01612e87565b945050606061315a89828a01612dca565b935050608087013567ffffffffffffffff81111561317757600080fd5b61318389828a01612d80565b92509250509295509295509295565b6000602082840312156131a457600080fd5b60006131b284828501612e87565b91505092915050565b600080604083850312156131ce57600080fd5b60006131dc85828601612e87565b92505060206131ed85828601612d56565b9150509250929050565b6000806040838503121561320a57600080fd5b600061321885828601612e87565b925050602061322985828601612e87565b9150509250929050565b60008060006060848603121561324857600080fd5b600061325686828701612e87565b935050602061326786828701612e87565b925050604061327886828701612e87565b9150509250925092565b61328b81613d61565b82525050565b61329a81613d85565b82525050565b6132a981613d91565b82525050565b6132b881613d9b565b82525050565b6132c781613e03565b82525050565b60006132d882613c25565b6132e28185613c30565b93506132f2818560208601613e36565b6132fb81613fca565b840191505092915050565b600061331182613c25565b61331b8185613c41565b935061332b818560208601613e36565b80840191505092915050565b6000613344600e83613c30565b91507f53697a6520746f6f20736d616c6c0000000000000000000000000000000000006000830152602082019050919050565b6000613384602083613c30565b91507f537472696e67733a20686578206c656e67746820696e73756666696369656e746000830152602082019050919050565b60006133c4601383613c30565b91507f546f6f206d75636820636f6d6d697373696f6e000000000000000000000000006000830152602082019050919050565b6000613404601683613c30565b91507f4f6e6c79204e4654206f776e65722063616e20616464000000000000000000006000830152602082019050919050565b6000613444601f83613c30565b91507f41727468506f6f6c3a20596f7520617265206e6f74207468652061646d696e006000830152602082019050919050565b6000613484600f83613c30565b91507f636f6c6c656374696f6e2066756c6c00000000000000000000000000000000006000830152602082019050919050565b60006134c4601c83613c30565b91507f436f6c6c656374696f6e20616c7265616479207075626c6973686564000000006000830152602082019050919050565b6000613504602683613c30565b91507f4e6565647320636f6c6c656374696f6e206f776e6572206f7220636f6c6c616260008301527f6f7261746f7200000000000000000000000000000000000000000000000000006020830152604082019050919050565b600061356a602d83613c30565b91507f4f6e6c79204e4654206f776e6572206f7220636f6c6c656374696f6e206f776e60008301527f65722063616e2072656d6f7665000000000000000000000000000000000000006020830152604082019050919050565b60006135d0601283613c30565b91507f5072696365206e6f7420696e2072616e676500000000000000000000000000006000830152602082019050919050565b6000613610602383613c30565b91507f4e6565647320636f6c6c656374696f6e206f776e6572206f72204e4654206f7760008301527f6e657200000000000000000000000000000000000000000000000000000000006020830152604082019050919050565b6000613676601583613c30565b91507f4e4654206e6f7420696e20636f6c6c656374696f6e00000000000000000000006000830152602082019050919050565b60006136b6601783613c41565b91507f416363657373436f6e74726f6c3a206163636f756e74200000000000000000006000830152601782019050919050565b60006136f6601183613c41565b91507f206973206d697373696e6720726f6c65200000000000000000000000000000006000830152601182019050919050565b6000613736602f83613c30565b91507f416363657373436f6e74726f6c3a2063616e206f6e6c792072656e6f756e636560008301527f20726f6c657320666f722073656c6600000000000000000000000000000000006020830152604082019050919050565b61379881613df9565b82525050565b60006137a9826136a9565b91506137b58285613306565b91506137c0826136e9565b91506137cc8284613306565b91508190509392505050565b60006020820190506137ed6000830184613282565b92915050565b60006060820190506138086000830186613282565b6138156020830185613282565b613822604083018461378f565b949350505050565b600061016082019050613840600083018e613282565b8181036020830152613852818d6132cd565b9050613861604083018c61378f565b61386e606083018b61378f565b61387b608083018a613291565b61388860a083018961378f565b61389560c083018861378f565b6138a260e083018761378f565b6138b061010083018661378f565b6138be61012083018561378f565b6138cc61014083018461378f565b9c9b505050505050505050505050565b600060e0820190506138f1600083018a613282565b6138fe602083018961378f565b61390b6040830188613282565b613918606083018761378f565b613925608083018661378f565b61393260a083018561378f565b61393f60c083018461378f565b98975050505050505050565b60006020820190506139606000830184613291565b92915050565b600060208201905061397b60008301846132a0565b92915050565b600060208201905061399660008301846132af565b92915050565b60006020820190506139b160008301846132be565b92915050565b600060208201905081810360008301526139d181846132cd565b905092915050565b600060208201905081810360008301526139f281613337565b9050919050565b60006020820190508181036000830152613a1281613377565b9050919050565b60006020820190508181036000830152613a32816133b7565b9050919050565b60006020820190508181036000830152613a52816133f7565b9050919050565b60006020820190508181036000830152613a7281613437565b9050919050565b60006020820190508181036000830152613a9281613477565b9050919050565b60006020820190508181036000830152613ab2816134b7565b9050919050565b60006020820190508181036000830152613ad2816134f7565b9050919050565b60006020820190508181036000830152613af28161355d565b9050919050565b60006020820190508181036000830152613b12816135c3565b9050919050565b60006020820190508181036000830152613b3281613603565b9050919050565b60006020820190508181036000830152613b5281613669565b9050919050565b60006020820190508181036000830152613b7281613729565b9050919050565b6000602082019050613b8e600083018461378f565b92915050565b6000604051905081810181811067ffffffffffffffff82111715613bbb57613bba613f9b565b5b8060405250919050565b600067ffffffffffffffff821115613be057613bdf613f9b565b5b601f19601f8301169050602081019050919050565b600067ffffffffffffffff821115613c1057613c0f613f9b565b5b601f19601f8301169050602081019050919050565b600081519050919050565b600082825260208201905092915050565b600081905092915050565b6000613c5782613df9565b9150613c6283613df9565b9250827fffffffffffffffffffffffffffffffffffffffffffffffffffffffffffffffff03821115613c9757613c96613f0e565b5b828201905092915050565b6000613cad82613df9565b9150613cb883613df9565b925082613cc857613cc7613f3d565b5b828204905092915050565b6000613cde82613df9565b9150613ce983613df9565b9250817fffffffffffffffffffffffffffffffffffffffffffffffffffffffffffffffff0483118215151615613d2257613d21613f0e565b5b828202905092915050565b6000613d3882613df9565b9150613d4383613df9565b925082821015613d5657613d55613f0e565b5b828203905092915050565b6000613d6c82613dd9565b9050919050565b6000613d7e82613dd9565b9050919050565b60008115159050919050565b6000819050919050565b60007fffffffff0000000000000000000000000000000000000000000000000000000082169050919050565b6000613dd282613d61565b9050919050565b600073ffffffffffffffffffffffffffffffffffffffff82169050919050565b6000819050919050565b6000613e0e82613e15565b9050919050565b6000613e2082613dd9565b9050919050565b82818337600083830152505050565b60005b83811015613e54578082015181840152602081019050613e39565b83811115613e63576000848401525b50505050565b6000613e7482613df9565b91506000821415613e8857613e87613f0e565b5b600182039050919050565b60006002820490506001821680613eab57607f821691505b60208210811415613ebf57613ebe613f6c565b5b50919050565b6000613ed082613df9565b91507fffffffffffffffffffffffffffffffffffffffffffffffffffffffffffffffff821415613f0357613f02613f0e565b5b600182019050919050565b7f4e487b7100000000000000000000000000000000000000000000000000000000600052601160045260246000fd5b7f4e487b7100000000000000000000000000000000000000000000000000000000600052601260045260246000fd5b7f4e487b7100000000000000000000000000000000000000000000000000000000600052602260045260246000fd5b7f4e487b7100000000000000000000000000000000000000000000000000000000600052604160045260246000fd5b6000601f19601f8301169050919050565b613fe481613d61565b8114613fef57600080fd5b50565b613ffb81613d73565b811461400657600080fd5b50565b61401281613d85565b811461401d57600080fd5b50565b61402981613d91565b811461403457600080fd5b50565b61404081613d9b565b811461404b57600080fd5b50565b61405781613dc7565b811461406257600080fd5b50565b61406e81613df9565b811461407957600080fd5b5056fea2646970667358221220dc1fba89b816ecf0f02dce490c61f2e6b729540004e3eb4d3478b249ecaac21164736f6c63430008000033",
  "immutableReferences": {},
  "source": "// SPDX-License-Identifier: MIT\npragma solidity ^0.8.0;\n\n//import \"@openzeppelin/contracts/token/ERC721/extensions/ERC721URIStorage.sol\";\nimport \"@openzeppelin/contracts/token/ERC721/IERC721.sol\";\nimport \"@openzeppelin/contracts/utils/Counters.sol\";\nimport \"@openzeppelin/contracts/access/AccessControl.sol\";\nimport \"./interfaces/IERC20.sol\";\nimport \"@openzeppelin/contracts/token/ERC721/IERC721Receiver.sol\";\nimport {SafeMath} from \"./utils/SafeMath.sol\";\n\ncontract Batch is IERC721Receiver, AccessControl {\n    using SafeMath for uint256;\n\n    uint256 public tokenCounter;\n    uint256 public collectionCounter;\n    uint256 public nextNftID;\n    IERC20 public collateralToken;\n    \n    uint256 constant FEE_BASE = 10000;\n    uint256 public feeRate = 500;\n    address public feeTo;\n    uint256 public creatingFee = 0;\n\n    struct Collection {\n        address owner;\n        string name;\n        uint256 size;\n        uint256 commissionRate;  // for curator (owner)\n        bool willAcceptBLES;\n\n        // The following are runtime variables before publish\n        uint256 totalPrice;\n        uint256 fee;\n        uint256 commission;\n\n        // The following are runtime variables after publish\n        uint256 publishedAt;  // time that published.\n        // uint256 timesToCall;\n        uint256 soldCount;\n        uint256 nftsCount;\n    }\n\n    struct NFT {\n        address tokenAddress;\n        uint256 tokenId;\n        address owner;\n        uint256 price;\n        uint256 paid;\n        uint256 collectionId;\n        uint256 indexInCollection;\n    }\n\n    // This keeps record of all the NFT\n    mapping(uint256 => NFT) public allNFTs;\n    // This keeps record of a address(user) nftID\n    mapping(address => uint256[]) public nftsByOwner;\n    // users address to tokenID to nftID (map users address to tokenID and NFT struct)\n    mapping(address => mapping(uint256 => uint256)) public nftIdMap;\n    // all collection\n    mapping(uint256 => Collection) public allCollections;\n    // collections collaborator\n    mapping(uint256 => mapping(address => bool)) public isCollaborator; \n     // collectionId => collaborators\n    mapping(uint256 => address[]) public collaborators;\n    // collectionId => nftId[]\n    mapping(uint256 => uint256) public collectionsNftCount;\n    mapping(uint256 => uint256[]) public nftsByCollectionId;\n    mapping(address => uint256[]) public collectionsByOwner; // users collection\n\n    uint256 public nftPriceFloor = 1e18;  // 1 USDC\n    uint256 public nftPriceCeil = 1e24;  // 1M USDC\n    uint256 public minimumCollectionSize = 3;  // 3 blind boxes\n    uint256 public maximumDuration = 14 days; // Refund if not sold out in 14 days.\n\n    modifier onlyAdmin() {\n        require(\n            hasRole(DEFAULT_ADMIN_ROLE, _msgSender()),\n            'ArthPool: You are not the admin'\n        );\n        _;\n    }\n\n    constructor() {\n        _setupRole(DEFAULT_ADMIN_ROLE, _msgSender());\n        nextNftID = 0;\n        collectionCounter = 0;\n    }\n\n    // setter to set baseToken\n    function setBaseToken(IERC20 baseToken_) public onlyAdmin {\n        collateralToken = baseToken_;\n    }\n\n    function setFeeTo(address payable _feeAddress) public onlyAdmin {\n        feeTo = _feeAddress;\n    }\n\n    function setCreatingFee(uint256 _amount) public onlyAdmin {\n        creatingFee = _amount;\n    }\n\n    // deposit NFT\n    function _depositNFT(address tokenAddress_, uint256 tokenId_, uint256 collectionId_, uint256 nftIndex_) private returns(uint256) {\n        IERC721(tokenAddress_).safeTransferFrom(_msgSender(), address(this), tokenId_);\n\n        NFT memory nft;\n        nft.tokenAddress = tokenAddress_;\n        nft.tokenId = tokenId_;\n        nft.owner = _msgSender();\n        nft.collectionId = collectionId_;\n        nft.indexInCollection = nftIndex_;\n\n        uint256 nftId;\n\n        if (nftIdMap[tokenAddress_][tokenId_] > 0) {\n            nftId = nftIdMap[tokenAddress_][tokenId_];\n        } else {\n            nftId = nextNftID.add(1);\n            nftIdMap[tokenAddress_][tokenId_] = nftId;\n        }\n\n        allNFTs[nftId] = nft;\n        nftsByOwner[_msgSender()].push(nftId);\n\n        return nftId;\n    }\n\n    function createCollection(\n        string memory name_,\n        uint256 size_,\n        uint256 commissionRate_,\n        bool willAcceptBLES_,\n        address[] calldata collaborators_\n    ) external {\n        require(size_ >= minimumCollectionSize, \"Size too small\");\n        require(commissionRate_.add(feeRate) < FEE_BASE, \"Too much commission\");\n\n        if (creatingFee > 0) {\n            // Charges BLES for creating the collection.\n            IERC20(collateralToken).transferFrom(msg.sender, feeTo, creatingFee);\n        }\n\n        Collection memory collection;\n        collection.owner = msg.sender;\n        collection.name = name_;\n        collection.size = size_;\n        collection.commissionRate = commissionRate_;\n        collection.totalPrice = 0;\n        //collection.averagePrice = 0;\n        collection.willAcceptBLES = willAcceptBLES_;\n        collection.publishedAt = 0;\n        collection.nftsCount = 0;\n\n        uint256 collectionId = collectionCounter.add(1);\n        collectionCounter = collectionCounter.add(1);\n\n        allCollections[collectionId] = collection;\n        collectionsByOwner[msg.sender].push(collectionId);\n        collaborators[collectionId] = collaborators_;\n\n        for (uint256 i = 0; i < collaborators_.length; ++i) {\n            isCollaborator[collectionId][collaborators_[i]] = true;\n        }\n    }\n\n    function addNFTToCollection(address tokenAddress_, uint256 tokenId_, uint256 collectionId_, uint256 price_) external {\n        Collection storage collection = allCollections[collectionId_];\n        collectionsNftCount[collectionId_] = collectionsNftCount[collectionId_].add(1);\n        uint256 nftId_ = _depositNFT(tokenAddress_, tokenId_, collectionId_, collectionsNftCount[collectionId_]);\n        \n        require(allNFTs[nftId_].owner == _msgSender(), \"Only NFT owner can add\");\n        require(collection.owner == _msgSender() ||\n                isCollaborator[collectionId_][_msgSender()], \"Needs collection owner or collaborator\");\n\n        require(price_ >= nftPriceFloor && price_ <= nftPriceCeil, \"Price not in range\");\n\n        require(!isPublished(collectionId_), \"Collection already published\");\n        require(collectionsNftCount[collectionId_] < collection.size,\n                \"collection full\");\n\n        allNFTs[nftId_].price = price_;\n        allNFTs[nftId_].indexInCollection = nftsByCollectionId[collectionId_].length;\n\n        // Push to nftsByCollectionId.\n        nftsByCollectionId[collectionId_].push(nftId_);\n\n        collection.totalPrice = collection.totalPrice.add(price_);\n\n        if (!collection.willAcceptBLES) {\n            collection.fee = collection.fee.add(price_.mul(feeRate).div(FEE_BASE));\n        }\n\n        collection.commission = collection.commission.add(price_.mul(collection.commissionRate).div(FEE_BASE));\n    }\n\n    function isPublished(uint256 collectionId_) public view returns(bool) {\n        return allCollections[collectionId_].publishedAt > 0;\n    }\n\n    function editNFTInCollection(uint256 nftId_, uint256 collectionId_, uint256 price_) external {\n        Collection storage collection = allCollections[collectionId_];\n\n        require(collection.owner == _msgSender() ||\n                allNFTs[nftId_].owner == _msgSender(), \"Needs collection owner or NFT owner\");\n\n        require(price_ >= nftPriceFloor && price_ <= nftPriceCeil, \"Price not in range\");\n\n        require(allNFTs[nftId_].collectionId == collectionId_, \"NFT not in collection\");\n        require(!isPublished(collectionId_), \"Collection already published\");\n\n        collection.totalPrice = collection.totalPrice.add(price_).sub(allNFTs[nftId_].price);\n\n        if (!collection.willAcceptBLES) {\n            collection.fee = collection.fee.add(\n                price_.mul(feeRate).div(FEE_BASE)).sub(\n                    allNFTs[nftId_].price.mul(feeRate).div(FEE_BASE));\n        }\n\n        collection.commission = collection.commission.add(\n            price_.mul(collection.commissionRate).div(FEE_BASE)).sub(\n                allNFTs[nftId_].price.mul(collection.commissionRate).div(FEE_BASE));\n\n        allNFTs[nftId_].price = price_;  // Change price.\n    }\n\n    // yet to test\n    function _withdrawNFT(address who_, uint256 nftId_, bool isClaim_) private {\n        allNFTs[nftId_].owner = address(0);\n        allNFTs[nftId_].collectionId = 0;\n\n        address tokenAddress = allNFTs[nftId_].tokenAddress;\n        uint256 tokenId = allNFTs[nftId_].tokenId;\n\n        IERC721(tokenAddress).safeTransferFrom(address(this), who_, tokenId);\n    }\n\n    function _removeNFTFromCollection(uint256 nftId_, uint256 collectionId_) private {\n        Collection storage collection = allCollections[collectionId_];\n\n        require(allNFTs[nftId_].owner == _msgSender() ||\n                collection.owner == _msgSender(),\n                \"Only NFT owner or collection owner can remove\");\n        require(allNFTs[nftId_].collectionId == collectionId_, \"NFT not in collection\");\n        require(!isPublished(collectionId_), \"Collection already published\");\n\n        collection.totalPrice = collection.totalPrice.sub(allNFTs[nftId_].price);\n\n        if (!collection.willAcceptBLES) {\n            collection.fee = collection.fee.sub(\n                allNFTs[nftId_].price.mul(feeRate).div(FEE_BASE));\n        }\n\n        collection.commission = collection.commission.sub(\n            allNFTs[nftId_].price.mul(collection.commissionRate).div(FEE_BASE));\n\n\n        allNFTs[nftId_].collectionId = 0;\n\n        // Removes from nftsByCollectionId\n        uint256 index = allNFTs[nftId_].indexInCollection;\n        uint256 lastNFTId = nftsByCollectionId[collectionId_][nftsByCollectionId[collectionId_].length - 1];\n\n        nftsByCollectionId[collectionId_][index] = lastNFTId;\n        allNFTs[lastNFTId].indexInCollection = index;\n        nftsByCollectionId[collectionId_].pop();\n    }\n\n    function removeNFTFromCollection(uint256 nftId_, uint256 collectionId_) external {\n        address nftOwner = allNFTs[nftId_].owner;\n        _removeNFTFromCollection(nftId_, collectionId_);\n        _withdrawNFT(nftOwner, nftId_, false);\n    }\n\n    function onERC721Received(address, address, uint256, bytes memory) public virtual override returns (bytes4) {\n        return this.onERC721Received.selector;\n    }\n}",
  "sourcePath": "/Users/newsgate/Work/RFT-Batch-NFT/src/contracts/batch.sol",
  "compiler": {
    "name": "solc",
    "version": "0.8.0+commit.c7dfd78e.Emscripten.clang"
  },
  "schemaVersion": "3.4.1",
  "updatedAt": "2021-06-02T07:10:43.053Z",
  "devdoc": {
    "kind": "dev",
    "methods": {
      "getRoleAdmin(bytes32)": {
        "details": "Returns the admin role that controls `role`. See {grantRole} and {revokeRole}. To change a role's admin, use {_setRoleAdmin}."
      },
      "grantRole(bytes32,address)": {
        "details": "Grants `role` to `account`. If `account` had not been already granted `role`, emits a {RoleGranted} event. Requirements: - the caller must have ``role``'s admin role."
      },
      "hasRole(bytes32,address)": {
        "details": "Returns `true` if `account` has been granted `role`."
      },
      "renounceRole(bytes32,address)": {
        "details": "Revokes `role` from the calling account. Roles are often managed via {grantRole} and {revokeRole}: this function's purpose is to provide a mechanism for accounts to lose their privileges if they are compromised (such as when a trusted device is misplaced). If the calling account had been granted `role`, emits a {RoleRevoked} event. Requirements: - the caller must be `account`."
      },
      "revokeRole(bytes32,address)": {
        "details": "Revokes `role` from `account`. If `account` had been granted `role`, emits a {RoleRevoked} event. Requirements: - the caller must have ``role``'s admin role."
      },
      "supportsInterface(bytes4)": {
        "details": "See {IERC165-supportsInterface}."
      }
    },
    "version": 1
  },
  "userdoc": {
    "kind": "user",
    "methods": {},
    "version": 1
  }
}