{
  "contractName": "RFTToken",
  "abi": [
    {
      "inputs": [],
      "stateMutability": "nonpayable",
      "type": "constructor"
    },
    {
      "anonymous": false,
      "inputs": [
        {
          "indexed": true,
          "internalType": "address",
          "name": "owner",
          "type": "address"
        },
        {
          "indexed": true,
          "internalType": "address",
          "name": "spender",
          "type": "address"
        },
        {
          "indexed": false,
          "internalType": "uint256",
          "name": "value",
          "type": "uint256"
        }
      ],
      "name": "Approval",
      "type": "event"
    },
    {
      "anonymous": false,
      "inputs": [
        {
          "indexed": true,
          "internalType": "address",
          "name": "from",
          "type": "address"
        },
        {
          "indexed": true,
          "internalType": "address",
          "name": "to",
          "type": "address"
        },
        {
          "indexed": false,
          "internalType": "uint256",
          "name": "value",
          "type": "uint256"
        }
      ],
      "name": "Transfer",
      "type": "event"
    },
    {
      "inputs": [
        {
          "internalType": "address",
          "name": "owner",
          "type": "address"
        },
        {
          "internalType": "address",
          "name": "spender",
          "type": "address"
        }
      ],
      "name": "allowance",
      "outputs": [
        {
          "internalType": "uint256",
          "name": "",
          "type": "uint256"
        }
      ],
      "stateMutability": "view",
      "type": "function",
      "constant": true
    },
    {
      "inputs": [
        {
          "internalType": "address",
          "name": "spender",
          "type": "address"
        },
        {
          "internalType": "uint256",
          "name": "amount",
          "type": "uint256"
        }
      ],
      "name": "approve",
      "outputs": [
        {
          "internalType": "bool",
          "name": "",
          "type": "bool"
        }
      ],
      "stateMutability": "nonpayable",
      "type": "function"
    },
    {
      "inputs": [
        {
          "internalType": "address",
          "name": "account",
          "type": "address"
        }
      ],
      "name": "balanceOf",
      "outputs": [
        {
          "internalType": "uint256",
          "name": "",
          "type": "uint256"
        }
      ],
      "stateMutability": "view",
      "type": "function",
      "constant": true
    },
    {
      "inputs": [
        {
          "internalType": "uint256",
          "name": "amount",
          "type": "uint256"
        }
      ],
      "name": "burn",
      "outputs": [],
      "stateMutability": "nonpayable",
      "type": "function"
    },
    {
      "inputs": [
        {
          "internalType": "address",
          "name": "account",
          "type": "address"
        },
        {
          "internalType": "uint256",
          "name": "amount",
          "type": "uint256"
        }
      ],
      "name": "burnFrom",
      "outputs": [],
      "stateMutability": "nonpayable",
      "type": "function"
    },
    {
      "inputs": [],
      "name": "creatorAddress",
      "outputs": [
        {
          "internalType": "address",
          "name": "",
          "type": "address"
        }
      ],
      "stateMutability": "view",
      "type": "function",
      "constant": true
    },
    {
      "inputs": [],
      "name": "decimals",
      "outputs": [
        {
          "internalType": "uint8",
          "name": "",
          "type": "uint8"
        }
      ],
      "stateMutability": "view",
      "type": "function",
      "constant": true
    },
    {
      "inputs": [
        {
          "internalType": "address",
          "name": "spender",
          "type": "address"
        },
        {
          "internalType": "uint256",
          "name": "subtractedValue",
          "type": "uint256"
        }
      ],
      "name": "decreaseAllowance",
      "outputs": [
        {
          "internalType": "bool",
          "name": "",
          "type": "bool"
        }
      ],
      "stateMutability": "nonpayable",
      "type": "function"
    },
    {
      "inputs": [],
      "name": "faucet",
      "outputs": [],
      "stateMutability": "nonpayable",
      "type": "function"
    },
    {
      "inputs": [],
      "name": "genesisSupply",
      "outputs": [
        {
          "internalType": "uint256",
          "name": "",
          "type": "uint256"
        }
      ],
      "stateMutability": "view",
      "type": "function",
      "constant": true
    },
    {
      "inputs": [
        {
          "internalType": "address",
          "name": "spender",
          "type": "address"
        },
        {
          "internalType": "uint256",
          "name": "addedValue",
          "type": "uint256"
        }
      ],
      "name": "increaseAllowance",
      "outputs": [
        {
          "internalType": "bool",
          "name": "",
          "type": "bool"
        }
      ],
      "stateMutability": "nonpayable",
      "type": "function"
    },
    {
      "inputs": [
        {
          "internalType": "address",
          "name": "",
          "type": "address"
        }
      ],
      "name": "ownerByAddress",
      "outputs": [
        {
          "internalType": "bool",
          "name": "",
          "type": "bool"
        }
      ],
      "stateMutability": "view",
      "type": "function",
      "constant": true
    },
    {
      "inputs": [
        {
          "internalType": "uint256",
          "name": "",
          "type": "uint256"
        }
      ],
      "name": "owners",
      "outputs": [
        {
          "internalType": "address",
          "name": "",
          "type": "address"
        }
      ],
      "stateMutability": "view",
      "type": "function",
      "constant": true
    },
    {
      "inputs": [],
      "name": "symbol",
      "outputs": [
        {
          "internalType": "string",
          "name": "",
          "type": "string"
        }
      ],
      "stateMutability": "view",
      "type": "function",
      "constant": true
    },
    {
      "inputs": [],
      "name": "totalSupply",
      "outputs": [
        {
          "internalType": "uint256",
          "name": "",
          "type": "uint256"
        }
      ],
      "stateMutability": "view",
      "type": "function",
      "constant": true
    },
    {
      "inputs": [
        {
          "internalType": "address",
          "name": "recipient",
          "type": "address"
        },
        {
          "internalType": "uint256",
          "name": "amount",
          "type": "uint256"
        }
      ],
      "name": "transfer",
      "outputs": [
        {
          "internalType": "bool",
          "name": "",
          "type": "bool"
        }
      ],
      "stateMutability": "nonpayable",
      "type": "function"
    },
    {
      "inputs": [
        {
          "internalType": "address",
          "name": "sender",
          "type": "address"
        },
        {
          "internalType": "address",
          "name": "recipient",
          "type": "address"
        },
        {
          "internalType": "uint256",
          "name": "amount",
          "type": "uint256"
        }
      ],
      "name": "transferFrom",
      "outputs": [
        {
          "internalType": "bool",
          "name": "",
          "type": "bool"
        }
      ],
      "stateMutability": "nonpayable",
      "type": "function"
    },
    {
      "inputs": [
        {
          "internalType": "address",
          "name": "_owner",
          "type": "address"
        }
      ],
      "name": "setOwner",
      "outputs": [],
      "stateMutability": "nonpayable",
      "type": "function"
    },
    {
      "inputs": [
        {
          "internalType": "address",
          "name": "_toAddress",
          "type": "address"
        },
        {
          "internalType": "uint256",
          "name": "_amount",
          "type": "uint256"
        }
      ],
      "name": "mint",
      "outputs": [],
      "stateMutability": "nonpayable",
      "type": "function"
    }
  ],
  "bytecode": "0x60806040523480156200001157600080fd5b5033683635c9adc5dea000006040518060400160405280600381526020017f444d440000000000000000000000000000000000000000000000000000000000815250601282600281905550836001806101000a81548173ffffffffffffffffffffffffffffffffffffffff021916908373ffffffffffffffffffffffffffffffffffffffff1602179055508160009080519060200190620000b492919062000334565b5080600160006101000a81548160ff021916908360ff1602179055506200010460018054906101000a900473ffffffffffffffffffffffffffffffffffffffff166002546200016660201b60201c565b505050506001600860003373ffffffffffffffffffffffffffffffffffffffff1673ffffffffffffffffffffffffffffffffffffffff16815260200190815260200160002060006101000a81548160ff02191690831515021790555062000582565b600073ffffffffffffffffffffffffffffffffffffffff168273ffffffffffffffffffffffffffffffffffffffff161415620001d9576040517f08c379a0000000000000000000000000000000000000000000000000000000008152600401620001d09062000437565b60405180910390fd5b620001ed600083836200031760201b60201c565b62000209816003546200031c60201b62000a2d1790919060201c565b6003819055506200026881600460008573ffffffffffffffffffffffffffffffffffffffff1673ffffffffffffffffffffffffffffffffffffffff168152602001908152602001600020546200031c60201b62000a2d1790919060201c565b600460008473ffffffffffffffffffffffffffffffffffffffff1673ffffffffffffffffffffffffffffffffffffffff168152602001908152602001600020819055508173ffffffffffffffffffffffffffffffffffffffff16600073ffffffffffffffffffffffffffffffffffffffff167fddf252ad1be2c89b69c2b068fc378daa952ba7f163c4a11628f55a4df523b3ef836040516200030b919062000459565b60405180910390a35050565b505050565b600081836200032c919062000487565b905092915050565b8280546200034290620004ee565b90600052602060002090601f016020900481019282620003665760008555620003b2565b82601f106200038157805160ff1916838001178555620003b2565b82800160010185558215620003b2579182015b82811115620003b157825182559160200191906001019062000394565b5b509050620003c19190620003c5565b5090565b5b80821115620003e0576000816000905550600101620003c6565b5090565b6000620003f3601f8362000476565b91507f45524332303a206d696e7420746f20746865207a65726f2061646472657373006000830152602082019050919050565b6200043181620004e4565b82525050565b600060208201905081810360008301526200045281620003e4565b9050919050565b600060208201905062000470600083018462000426565b92915050565b600082825260208201905092915050565b60006200049482620004e4565b9150620004a183620004e4565b9250827fffffffffffffffffffffffffffffffffffffffffffffffffffffffffffffffff03821115620004d957620004d862000524565b5b828201905092915050565b6000819050919050565b600060028204905060018216806200050757607f821691505b602082108114156200051e576200051d62000553565b5b50919050565b7f4e487b7100000000000000000000000000000000000000000000000000000000600052601160045260246000fd5b7f4e487b7100000000000000000000000000000000000000000000000000000000600052602260045260246000fd5b611a9580620005926000396000f3fe608060405234801561001057600080fd5b50600436106101215760003560e01c80634bbf179b116100ad578063a9059cbb11610071578063a9059cbb1461032e578063dd62ed3e1461035e578063de5f72fd1461038e578063e927fc5c14610398578063eb6b192f146103b657610121565b80634bbf179b1461027657806370a082311461029457806379cc6790146102c457806395d89b41146102e0578063a457c2d7146102fe57610121565b806323b872dd116100f457806323b872dd146101c0578063313ce567146101f0578063395093511461020e57806340c10f191461023e57806342966c681461025a57610121565b8063025e7c2714610126578063095ea7b31461015657806313af40351461018657806318160ddd146101a2575b600080fd5b610140600480360381019061013b919061137f565b6103e6565b60405161014d919061165b565b60405180910390f35b610170600480360381019061016b9190611343565b610425565b60405161017d9190611676565b60405180910390f35b6101a0600480360381019061019b919061128f565b610443565b005b6101aa6104fb565b6040516101b79190611773565b60405180910390f35b6101da60048036038101906101d591906112f4565b610505565b6040516101e79190611676565b60405180910390f35b6101f86105de565b604051610205919061178e565b60405180910390f35b61022860048036038101906102239190611343565b6105f1565b6040516102359190611676565b60405180910390f35b61025860048036038101906102539190611343565b6106a4565b005b610274600480360381019061026f919061137f565b61070f565b005b61027e610723565b60405161028b9190611773565b60405180910390f35b6102ae60048036038101906102a9919061128f565b610729565b6040516102bb9190611773565b60405180910390f35b6102de60048036038101906102d99190611343565b610772565b005b6102e86107d4565b6040516102f59190611691565b60405180910390f35b61031860048036038101906103139190611343565b610862565b6040516103259190611676565b60405180910390f35b61034860048036038101906103439190611343565b61092f565b6040516103559190611676565b60405180910390f35b610378600480360381019061037391906112b8565b61094d565b6040516103859190611773565b60405180910390f35b6103966109d4565b005b6103a06109e9565b6040516103ad919061165b565b60405180910390f35b6103d060048036038101906103cb919061128f565b610a0d565b6040516103dd9190611676565b60405180910390f35b600781815481106103f657600080fd5b906000526020600020016000915054906101000a900473ffffffffffffffffffffffffffffffffffffffff1681565b6000610439610432610a43565b8484610a4b565b6001905092915050565b60011515600860003373ffffffffffffffffffffffffffffffffffffffff1673ffffffffffffffffffffffffffffffffffffffff16815260200190815260200160002060009054906101000a900460ff161515146104a057600080fd5b6001600860008373ffffffffffffffffffffffffffffffffffffffff1673ffffffffffffffffffffffffffffffffffffffff16815260200190815260200160002060006101000a81548160ff02191690831515021790555050565b6000600354905090565b6000610512848484610c16565b6105d38461051e610a43565b6105ce856040518060600160405280602881526020016119ef60289139600560008b73ffffffffffffffffffffffffffffffffffffffff1673ffffffffffffffffffffffffffffffffffffffff1681526020019081526020016000206000610584610a43565b73ffffffffffffffffffffffffffffffffffffffff1673ffffffffffffffffffffffffffffffffffffffff16815260200190815260200160002054610eaf9092919063ffffffff16565b610a4b565b600190509392505050565b600160009054906101000a900460ff1681565b600061069a6105fe610a43565b84610695856005600061060f610a43565b73ffffffffffffffffffffffffffffffffffffffff1673ffffffffffffffffffffffffffffffffffffffff16815260200190815260200160002060008973ffffffffffffffffffffffffffffffffffffffff1673ffffffffffffffffffffffffffffffffffffffff16815260200190815260200160002054610a2d90919063ffffffff16565b610a4b565b6001905092915050565b60011515600860003373ffffffffffffffffffffffffffffffffffffffff1673ffffffffffffffffffffffffffffffffffffffff16815260200190815260200160002060009054906101000a900460ff1615151461070157600080fd5b61070b8282610f04565b5050565b61072061071a610a43565b8261109a565b50565b60025481565b6000600460008373ffffffffffffffffffffffffffffffffffffffff1673ffffffffffffffffffffffffffffffffffffffff168152602001908152602001600020549050919050565b60006107b182604051806060016040528060248152602001611a17602491396107a28661079d610a43565b61094d565b610eaf9092919063ffffffff16565b90506107c5836107bf610a43565b83610a4b565b6107cf838361109a565b505050565b600080546107e1906118d7565b80601f016020809104026020016040519081016040528092919081815260200182805461080d906118d7565b801561085a5780601f1061082f5761010080835404028352916020019161085a565b820191906000526020600020905b81548152906001019060200180831161083d57829003601f168201915b505050505081565b600061092561086f610a43565b8461092085604051806060016040528060258152602001611a3b6025913960056000610899610a43565b73ffffffffffffffffffffffffffffffffffffffff1673ffffffffffffffffffffffffffffffffffffffff16815260200190815260200160002060008a73ffffffffffffffffffffffffffffffffffffffff1673ffffffffffffffffffffffffffffffffffffffff16815260200190815260200160002054610eaf9092919063ffffffff16565b610a4b565b6001905092915050565b600061094361093c610a43565b8484610c16565b6001905092915050565b6000600560008473ffffffffffffffffffffffffffffffffffffffff1673ffffffffffffffffffffffffffffffffffffffff16815260200190815260200160002060008373ffffffffffffffffffffffffffffffffffffffff1673ffffffffffffffffffffffffffffffffffffffff16815260200190815260200160002054905092915050565b6109e73368056bc75e2d63100000610f04565b565b60018054906101000a900473ffffffffffffffffffffffffffffffffffffffff1681565b60086020528060005260406000206000915054906101000a900460ff1681565b60008183610a3b91906117c5565b905092915050565b600033905090565b600073ffffffffffffffffffffffffffffffffffffffff168373ffffffffffffffffffffffffffffffffffffffff161415610abb576040517f08c379a0000000000000000000000000000000000000000000000000000000008152600401610ab290611733565b60405180910390fd5b600073ffffffffffffffffffffffffffffffffffffffff168273ffffffffffffffffffffffffffffffffffffffff161415610b2b576040517f08c379a0000000000000000000000000000000000000000000000000000000008152600401610b22906116d3565b60405180910390fd5b80600560008573ffffffffffffffffffffffffffffffffffffffff1673ffffffffffffffffffffffffffffffffffffffff16815260200190815260200160002060008473ffffffffffffffffffffffffffffffffffffffff1673ffffffffffffffffffffffffffffffffffffffff168152602001908152602001600020819055508173ffffffffffffffffffffffffffffffffffffffff168373ffffffffffffffffffffffffffffffffffffffff167f8c5be1e5ebec7d5bd14f71427d1e84f3dd0314c0f7b2291e5b200ac8c7c3b92583604051610c099190611773565b60405180910390a3505050565b600073ffffffffffffffffffffffffffffffffffffffff168373ffffffffffffffffffffffffffffffffffffffff161415610c86576040517f08c379a0000000000000000000000000000000000000000000000000000000008152600401610c7d90611713565b60405180910390fd5b600073ffffffffffffffffffffffffffffffffffffffff168273ffffffffffffffffffffffffffffffffffffffff161415610cf6576040517f08c379a0000000000000000000000000000000000000000000000000000000008152600401610ced906116b3565b60405180910390fd5b610d0183838361124a565b610d6d816040518060600160405280602681526020016119c960269139600460008773ffffffffffffffffffffffffffffffffffffffff1673ffffffffffffffffffffffffffffffffffffffff16815260200190815260200160002054610eaf9092919063ffffffff16565b600460008573ffffffffffffffffffffffffffffffffffffffff1673ffffffffffffffffffffffffffffffffffffffff16815260200190815260200160002081905550610e0281600460008573ffffffffffffffffffffffffffffffffffffffff1673ffffffffffffffffffffffffffffffffffffffff16815260200190815260200160002054610a2d90919063ffffffff16565b600460008473ffffffffffffffffffffffffffffffffffffffff1673ffffffffffffffffffffffffffffffffffffffff168152602001908152602001600020819055508173ffffffffffffffffffffffffffffffffffffffff168373ffffffffffffffffffffffffffffffffffffffff167fddf252ad1be2c89b69c2b068fc378daa952ba7f163c4a11628f55a4df523b3ef83604051610ea29190611773565b60405180910390a3505050565b6000838311158290610ef7576040517f08c379a0000000000000000000000000000000000000000000000000000000008152600401610eee9190611691565b60405180910390fd5b5082840390509392505050565b600073ffffffffffffffffffffffffffffffffffffffff168273ffffffffffffffffffffffffffffffffffffffff161415610f74576040517f08c379a0000000000000000000000000000000000000000000000000000000008152600401610f6b90611753565b60405180910390fd5b610f806000838361124a565b610f9581600354610a2d90919063ffffffff16565b600381905550610fed81600460008573ffffffffffffffffffffffffffffffffffffffff1673ffffffffffffffffffffffffffffffffffffffff16815260200190815260200160002054610a2d90919063ffffffff16565b600460008473ffffffffffffffffffffffffffffffffffffffff1673ffffffffffffffffffffffffffffffffffffffff168152602001908152602001600020819055508173ffffffffffffffffffffffffffffffffffffffff16600073ffffffffffffffffffffffffffffffffffffffff167fddf252ad1be2c89b69c2b068fc378daa952ba7f163c4a11628f55a4df523b3ef8360405161108e9190611773565b60405180910390a35050565b600073ffffffffffffffffffffffffffffffffffffffff168273ffffffffffffffffffffffffffffffffffffffff16141561110a576040517f08c379a0000000000000000000000000000000000000000000000000000000008152600401611101906116f3565b60405180910390fd5b6111168260008361124a565b611182816040518060600160405280602281526020016119a760229139600460008673ffffffffffffffffffffffffffffffffffffffff1673ffffffffffffffffffffffffffffffffffffffff16815260200190815260200160002054610eaf9092919063ffffffff16565b600460008473ffffffffffffffffffffffffffffffffffffffff1673ffffffffffffffffffffffffffffffffffffffff168152602001908152602001600020819055506111da8160035461124f90919063ffffffff16565b600381905550600073ffffffffffffffffffffffffffffffffffffffff168273ffffffffffffffffffffffffffffffffffffffff167fddf252ad1be2c89b69c2b068fc378daa952ba7f163c4a11628f55a4df523b3ef8360405161123e9190611773565b60405180910390a35050565b505050565b6000818361125d919061181b565b905092915050565b60008135905061127481611978565b92915050565b6000813590506112898161198f565b92915050565b6000602082840312156112a157600080fd5b60006112af84828501611265565b91505092915050565b600080604083850312156112cb57600080fd5b60006112d985828601611265565b92505060206112ea85828601611265565b9150509250929050565b60008060006060848603121561130957600080fd5b600061131786828701611265565b935050602061132886828701611265565b92505060406113398682870161127a565b9150509250925092565b6000806040838503121561135657600080fd5b600061136485828601611265565b92505060206113758582860161127a565b9150509250929050565b60006020828403121561139157600080fd5b600061139f8482850161127a565b91505092915050565b6113b18161184f565b82525050565b6113c081611861565b82525050565b60006113d1826117a9565b6113db81856117b4565b93506113eb8185602086016118a4565b6113f481611967565b840191505092915050565b600061140c6023836117b4565b91507f45524332303a207472616e7366657220746f20746865207a65726f206164647260008301527f65737300000000000000000000000000000000000000000000000000000000006020830152604082019050919050565b60006114726022836117b4565b91507f45524332303a20617070726f766520746f20746865207a65726f20616464726560008301527f73730000000000000000000000000000000000000000000000000000000000006020830152604082019050919050565b60006114d86021836117b4565b91507f45524332303a206275726e2066726f6d20746865207a65726f2061646472657360008301527f73000000000000000000000000000000000000000000000000000000000000006020830152604082019050919050565b600061153e6025836117b4565b91507f45524332303a207472616e736665722066726f6d20746865207a65726f20616460008301527f64726573730000000000000000000000000000000000000000000000000000006020830152604082019050919050565b60006115a46024836117b4565b91507f45524332303a20617070726f76652066726f6d20746865207a65726f2061646460008301527f72657373000000000000000000000000000000000000000000000000000000006020830152604082019050919050565b600061160a601f836117b4565b91507f45524332303a206d696e7420746f20746865207a65726f2061646472657373006000830152602082019050919050565b6116468161188d565b82525050565b61165581611897565b82525050565b600060208201905061167060008301846113a8565b92915050565b600060208201905061168b60008301846113b7565b92915050565b600060208201905081810360008301526116ab81846113c6565b905092915050565b600060208201905081810360008301526116cc816113ff565b9050919050565b600060208201905081810360008301526116ec81611465565b9050919050565b6000602082019050818103600083015261170c816114cb565b9050919050565b6000602082019050818103600083015261172c81611531565b9050919050565b6000602082019050818103600083015261174c81611597565b9050919050565b6000602082019050818103600083015261176c816115fd565b9050919050565b6000602082019050611788600083018461163d565b92915050565b60006020820190506117a3600083018461164c565b92915050565b600081519050919050565b600082825260208201905092915050565b60006117d08261188d565b91506117db8361188d565b9250827fffffffffffffffffffffffffffffffffffffffffffffffffffffffffffffffff038211156118105761180f611909565b5b828201905092915050565b60006118268261188d565b91506118318361188d565b92508282101561184457611843611909565b5b828203905092915050565b600061185a8261186d565b9050919050565b60008115159050919050565b600073ffffffffffffffffffffffffffffffffffffffff82169050919050565b6000819050919050565b600060ff82169050919050565b60005b838110156118c25780820151818401526020810190506118a7565b838111156118d1576000848401525b50505050565b600060028204905060018216806118ef57607f821691505b6020821081141561190357611902611938565b5b50919050565b7f4e487b7100000000000000000000000000000000000000000000000000000000600052601160045260246000fd5b7f4e487b7100000000000000000000000000000000000000000000000000000000600052602260045260246000fd5b6000601f19601f8301169050919050565b6119818161184f565b811461198c57600080fd5b50565b6119988161188d565b81146119a357600080fd5b5056fe45524332303a206275726e20616d6f756e7420657863656564732062616c616e636545524332303a207472616e7366657220616d6f756e7420657863656564732062616c616e636545524332303a207472616e7366657220616d6f756e74206578636565647320616c6c6f77616e636545524332303a206275726e20616d6f756e74206578636565647320616c6c6f77616e636545524332303a2064656372656173656420616c6c6f77616e63652062656c6f77207a65726fa264697066735822122089af9b9817bf39cacc7cbf7303429a3767f609c17956ee9ca96ca4be4aa655a564736f6c63430008000033",
  "immutableReferences": {},
  "source": "// SPDX-License-Identifier: MIT\npragma solidity ^0.8.0;\n\nimport \"./token/TokenERC20.sol\";\nimport {SafeMath} from \"./utils/SafeMath.sol\";\nimport '@openzeppelin/contracts/access/AccessControl.sol';\n\ncontract RFTToken is Token {\n    \n    address[] public owners;\n    mapping(address => bool) public ownerByAddress;\n    \n    modifier onlyOwner() {\n        require(ownerByAddress[msg.sender] == true);\n        _;\n    }\n\n    constructor() Token(msg.sender, 1000e18, \"DMD\", 18) {\n        ownerByAddress[msg.sender] = true;\n    }\n\n    function setOwner( address _owner ) public onlyOwner {\n        ownerByAddress[_owner] = true;\n    }\n\n    function mint(address _toAddress, uint256 _amount) public onlyOwner {\n        _mint(_toAddress, _amount);\n    }\n}\n",
  "sourcePath": "/Users/newsgate/Work/RFT-Batch-NFT/src/contracts/RFTToken.sol",
  "compiler": {
    "name": "solc",
    "version": "0.8.0+commit.c7dfd78e.Emscripten.clang"
  },
  "schemaVersion": "3.3.3",
  "updatedAt": "2021-07-04T14:51:37.515Z",
  "networkType": "ethereum",
  "devdoc": {
    "kind": "dev",
    "methods": {
      "allowance(address,address)": {
        "details": "See {IERC20-allowance}."
      },
      "approve(address,uint256)": {
        "details": "See {IERC20-approve}. Requirements: - `spender` cannot be the zero address.approve(address spender, uint256 amount)"
      },
      "balanceOf(address)": {
        "details": "See {IERC20-balanceOf}."
      },
      "burn(uint256)": {
        "details": "Destroys `amount` tokens from the caller. See {ERC20-_burn}."
      },
      "burnFrom(address,uint256)": {
        "details": "Destroys `amount` tokens from `account`, deducting from the caller's allowance. See {ERC20-_burn} and {ERC20-allowance}. Requirements: - the caller must have allowance for `accounts`'s tokens of at least `amount`."
      },
      "decreaseAllowance(address,uint256)": {
        "details": "Atomically decreases the allowance granted to `spender` by the caller. This is an alternative to {approve} that can be used as a mitigation for problems described in {IERC20-approve}. Emits an {Approval} event indicating the updated allowance. Requirements: - `spender` cannot be the zero address. - `spender` must have allowance for the caller of at least `subtractedValue`."
      },
      "increaseAllowance(address,uint256)": {
        "details": "Atomically increases the allowance granted to `spender` by the caller. This is an alternative to {approve} that can be used as a mitigation for problems described in {IERC20-approve}. Emits an {Approval} event indicating the updated allowance. Requirements: - `spender` cannot be the zero address."
      },
      "totalSupply()": {
        "details": "See {IERC20-totalSupply}."
      },
      "transfer(address,uint256)": {
        "details": "See {IERC20-transfer}. Requirements: - `recipient` cannot be the zero address. - the caller must have a balance of at least `amount`."
      },
      "transferFrom(address,address,uint256)": {
        "details": "See {IERC20-transferFrom}. Emits an {Approval} event indicating the updated allowance. This is not required by the EIP. See the note at the beginning of {ERC20}; Requirements: - `sender` and `recipient` cannot be the zero address. - `sender` must have a balance of at least `amount`. - the caller must have allowance for `sender`'s tokens of at least `amount`."
      }
    },
    "version": 1
  },
  "userdoc": {
    "kind": "user",
    "methods": {},
    "version": 1
  }
}