{
  "contractName": "SimpleOracle",
  "abi": [
    {
      "inputs": [
        {
          "internalType": "string",
          "name": "_name",
          "type": "string"
        },
        {
          "internalType": "uint256",
          "name": "_price",
          "type": "uint256"
        }
      ],
      "stateMutability": "nonpayable",
      "type": "constructor"
    },
    {
      "anonymous": false,
      "inputs": [
        {
          "indexed": true,
          "internalType": "address",
          "name": "previousOwner",
          "type": "address"
        },
        {
          "indexed": true,
          "internalType": "address",
          "name": "newOwner",
          "type": "address"
        }
      ],
      "name": "OwnershipTransferred",
      "type": "event"
    },
    {
      "anonymous": false,
      "inputs": [
        {
          "indexed": false,
          "internalType": "uint256",
          "name": "timestamp",
          "type": "uint256"
        },
        {
          "indexed": false,
          "internalType": "uint256",
          "name": "price",
          "type": "uint256"
        }
      ],
      "name": "PriceChange",
      "type": "event"
    },
    {
      "inputs": [],
      "name": "name",
      "outputs": [
        {
          "internalType": "string",
          "name": "",
          "type": "string"
        }
      ],
      "stateMutability": "view",
      "type": "function"
    },
    {
      "inputs": [],
      "name": "owner",
      "outputs": [
        {
          "internalType": "address",
          "name": "",
          "type": "address"
        }
      ],
      "stateMutability": "view",
      "type": "function"
    },
    {
      "inputs": [],
      "name": "price",
      "outputs": [
        {
          "internalType": "uint256",
          "name": "",
          "type": "uint256"
        }
      ],
      "stateMutability": "view",
      "type": "function"
    },
    {
      "inputs": [],
      "name": "renounceOwnership",
      "outputs": [],
      "stateMutability": "nonpayable",
      "type": "function"
    },
    {
      "inputs": [
        {
          "internalType": "address",
          "name": "newOwner",
          "type": "address"
        }
      ],
      "name": "transferOwnership",
      "outputs": [],
      "stateMutability": "nonpayable",
      "type": "function"
    },
    {
      "inputs": [],
      "name": "getPrice",
      "outputs": [
        {
          "internalType": "uint256",
          "name": "",
          "type": "uint256"
        }
      ],
      "stateMutability": "view",
      "type": "function"
    },
    {
      "inputs": [],
      "name": "getDecimalPercision",
      "outputs": [
        {
          "internalType": "uint256",
          "name": "",
          "type": "uint256"
        }
      ],
      "stateMutability": "pure",
      "type": "function"
    },
    {
      "inputs": [
        {
          "internalType": "uint256",
          "name": "_price",
          "type": "uint256"
        }
      ],
      "name": "setPrice",
      "outputs": [],
      "stateMutability": "nonpayable",
      "type": "function"
    }
  ],
  "bytecode": "0x6080604052620f42406002553480156200001857600080fd5b5060405162000e3438038062000e3483398181016040528101906200003e919062000257565b6000620000506200011660201b60201c565b9050806000806101000a81548173ffffffffffffffffffffffffffffffffffffffff021916908373ffffffffffffffffffffffffffffffffffffffff1602179055508073ffffffffffffffffffffffffffffffffffffffff16600073ffffffffffffffffffffffffffffffffffffffff167f8be0079c531659141344cd1fd0a4f28419497f9722a3daafe3b4186f6b6457e060405160405180910390a3508160019080519060200190620001069291906200011e565b5080600281905550505062000406565b600033905090565b8280546200012c9062000358565b90600052602060002090601f0160209004810192826200015057600085556200019c565b82601f106200016b57805160ff19168380011785556200019c565b828001600101855582156200019c579182015b828111156200019b5782518255916020019190600101906200017e565b5b509050620001ab9190620001af565b5090565b5b80821115620001ca576000816000905550600101620001b0565b5090565b6000620001e5620001df84620002e5565b620002b1565b905082815260208101848484011115620001fe57600080fd5b6200020b84828562000322565b509392505050565b600082601f8301126200022557600080fd5b815162000237848260208601620001ce565b91505092915050565b6000815190506200025181620003ec565b92915050565b600080604083850312156200026b57600080fd5b600083015167ffffffffffffffff8111156200028657600080fd5b620002948582860162000213565b9250506020620002a78582860162000240565b9150509250929050565b6000604051905081810181811067ffffffffffffffff82111715620002db57620002da620003bd565b5b8060405250919050565b600067ffffffffffffffff821115620003035762000302620003bd565b5b601f19601f8301169050602081019050919050565b6000819050919050565b60005b838110156200034257808201518184015260208101905062000325565b8381111562000352576000848401525b50505050565b600060028204905060018216806200037157607f821691505b602082108114156200038857620003876200038e565b5b50919050565b7f4e487b7100000000000000000000000000000000000000000000000000000000600052602260045260246000fd5b7f4e487b7100000000000000000000000000000000000000000000000000000000600052604160045260246000fd5b620003f78162000318565b81146200040357600080fd5b50565b610a1e80620004166000396000f3fe608060405234801561001057600080fd5b50600436106100885760003560e01c806391b7f5ed1161005b57806391b7f5ed146100f157806398d5fdca1461010d578063a035b1fe1461012b578063f2fde38b1461014957610088565b806306fdde031461008d57806368ad8e03146100ab578063715018a6146100c95780638da5cb5b146100d3575b600080fd5b610095610165565b6040516100a291906107f7565b60405180910390f35b6100b36101f3565b6040516100c09190610879565b60405180910390f35b6100d16101fc565b005b6100db610336565b6040516100e891906107dc565b60405180910390f35b61010b60048036038101906101069190610676565b61035f565b005b610115610462565b6040516101229190610879565b60405180910390f35b61013361046c565b6040516101409190610879565b60405180910390f35b610163600480360381019061015e919061064d565b610472565b005b6001805461017290610948565b80601f016020809104026020016040519081016040528092919081815260200182805461019e90610948565b80156101eb5780601f106101c0576101008083540402835291602001916101eb565b820191906000526020600020905b8154815290600101906020018083116101ce57829003601f168201915b505050505081565b60006006905090565b61020461061b565b73ffffffffffffffffffffffffffffffffffffffff16610222610336565b73ffffffffffffffffffffffffffffffffffffffff1614610278576040517f08c379a000000000000000000000000000000000000000000000000000000000815260040161026f90610859565b60405180910390fd5b600073ffffffffffffffffffffffffffffffffffffffff1660008054906101000a900473ffffffffffffffffffffffffffffffffffffffff1673ffffffffffffffffffffffffffffffffffffffff167f8be0079c531659141344cd1fd0a4f28419497f9722a3daafe3b4186f6b6457e060405160405180910390a360008060006101000a81548173ffffffffffffffffffffffffffffffffffffffff021916908373ffffffffffffffffffffffffffffffffffffffff160217905550565b60008060009054906101000a900473ffffffffffffffffffffffffffffffffffffffff16905090565b61036761061b565b73ffffffffffffffffffffffffffffffffffffffff16610385610336565b73ffffffffffffffffffffffffffffffffffffffff16146103db576040517f08c379a00000000000000000000000000000000000000000000000000000000081526004016103d290610859565b60405180910390fd5b600081101561041f576040517f08c379a000000000000000000000000000000000000000000000000000000000815260040161041690610839565b60405180910390fd5b806002819055507ffe6b606ca0477592b5740a0eb00c8e91570a5d0eb736abfa1a6309bd081b4a4d4282604051610457929190610894565b60405180910390a150565b6000600254905090565b60025481565b61047a61061b565b73ffffffffffffffffffffffffffffffffffffffff16610498610336565b73ffffffffffffffffffffffffffffffffffffffff16146104ee576040517f08c379a00000000000000000000000000000000000000000000000000000000081526004016104e590610859565b60405180910390fd5b600073ffffffffffffffffffffffffffffffffffffffff168173ffffffffffffffffffffffffffffffffffffffff16141561055e576040517f08c379a000000000000000000000000000000000000000000000000000000000815260040161055590610819565b60405180910390fd5b8073ffffffffffffffffffffffffffffffffffffffff1660008054906101000a900473ffffffffffffffffffffffffffffffffffffffff1673ffffffffffffffffffffffffffffffffffffffff167f8be0079c531659141344cd1fd0a4f28419497f9722a3daafe3b4186f6b6457e060405160405180910390a3806000806101000a81548173ffffffffffffffffffffffffffffffffffffffff021916908373ffffffffffffffffffffffffffffffffffffffff16021790555050565b600033905090565b600081359050610632816109ba565b92915050565b600081359050610647816109d1565b92915050565b60006020828403121561065f57600080fd5b600061066d84828501610623565b91505092915050565b60006020828403121561068857600080fd5b600061069684828501610638565b91505092915050565b6106a8816108d9565b82525050565b60006106b9826108bd565b6106c381856108c8565b93506106d3818560208601610915565b6106dc816109a9565b840191505092915050565b60006106f46026836108c8565b91507f4f776e61626c653a206e6577206f776e657220697320746865207a65726f206160008301527f64647265737300000000000000000000000000000000000000000000000000006020830152604082019050919050565b600061075a601b836108c8565b91507f4f7261636c653a2070726963652063616e6e6f74206265203c203000000000006000830152602082019050919050565b600061079a6020836108c8565b91507f4f776e61626c653a2063616c6c6572206973206e6f7420746865206f776e65726000830152602082019050919050565b6107d68161090b565b82525050565b60006020820190506107f1600083018461069f565b92915050565b6000602082019050818103600083015261081181846106ae565b905092915050565b60006020820190508181036000830152610832816106e7565b9050919050565b600060208201905081810360008301526108528161074d565b9050919050565b600060208201905081810360008301526108728161078d565b9050919050565b600060208201905061088e60008301846107cd565b92915050565b60006040820190506108a960008301856107cd565b6108b660208301846107cd565b9392505050565b600081519050919050565b600082825260208201905092915050565b60006108e4826108eb565b9050919050565b600073ffffffffffffffffffffffffffffffffffffffff82169050919050565b6000819050919050565b60005b83811015610933578082015181840152602081019050610918565b83811115610942576000848401525b50505050565b6000600282049050600182168061096057607f821691505b602082108114156109745761097361097a565b5b50919050565b7f4e487b7100000000000000000000000000000000000000000000000000000000600052602260045260246000fd5b6000601f19601f8301169050919050565b6109c3816108d9565b81146109ce57600080fd5b50565b6109da8161090b565b81146109e557600080fd5b5056fea2646970667358221220914abb969f0cb1afca3c8810cbc21228b0170912686a471344f8002b070a861364736f6c63430008000033",
  "immutableReferences": {},
  "source": "// SPDX-License-Identifier: MIT\n\npragma solidity ^0.8.0;\n\nimport {Ownable} from '../utils/Ownable.sol';\nimport {IOracle} from './IOracle.sol';\n\ncontract SimpleOracle is Ownable, IOracle {\n    string public name;\n    uint256 public price = 1e6;\n\n    constructor(string memory _name, uint256 _price) {\n        name = _name;\n        price = _price;\n    }\n\n    function getPrice() public view override returns (uint256) {\n        return price;\n    }\n\n    function getDecimalPercision() public pure override returns (uint256) {\n        return 6;\n    }\n\n    function setPrice(uint256 _price) public onlyOwner {\n        require(_price >= 0, 'Oracle: price cannot be < 0');\n        price = _price;\n        emit PriceChange(block.timestamp, _price);\n    }\n\n    event PriceChange(uint256 timestamp, uint256 price);\n}\n",
  "sourcePath": "/Users/newsgate/Work/RFT-Batch-NFT/src/contracts/oracle/SimpeOracle.sol",
  "compiler": {
    "name": "solc",
    "version": "0.8.0+commit.c7dfd78e.Emscripten.clang"
  },
  "schemaVersion": "3.3.3",
  "updatedAt": "2021-06-27T19:51:39.814Z",
  "devdoc": {
    "kind": "dev",
    "methods": {
      "owner()": {
        "details": "Returns the address of the current owner."
      },
      "renounceOwnership()": {
        "details": "Leaves the contract without owner. It will not be possible to call `onlyOwner` functions anymore. Can only be called by the current owner. NOTE: Renouncing ownership will leave the contract without an owner, thereby removing any functionality that is only available to the owner."
      },
      "transferOwnership(address)": {
        "details": "Transfers ownership of the contract to a new account (`newOwner`). Can only be called by the current owner."
      }
    },
    "version": 1
  },
  "userdoc": {
    "kind": "user",
    "methods": {},
    "version": 1
  }
}