{
  "contractName": "TokenFactory",
  "abi": [
    {
      "inputs": [
        {
          "internalType": "contract IERC20",
          "name": "_tokenAddress",
          "type": "address"
        },
        {
          "internalType": "contract IERC20",
          "name": "_usdt",
          "type": "address"
        }
      ],
      "stateMutability": "nonpayable",
      "type": "constructor"
    },
    {
      "anonymous": false,
      "inputs": [
        {
          "indexed": true,
          "internalType": "address",
          "name": "owner",
          "type": "address"
        },
        {
          "indexed": true,
          "internalType": "address",
          "name": "approved",
          "type": "address"
        },
        {
          "indexed": true,
          "internalType": "uint256",
          "name": "tokenId",
          "type": "uint256"
        }
      ],
      "name": "Approval",
      "type": "event"
    },
    {
      "anonymous": false,
      "inputs": [
        {
          "indexed": true,
          "internalType": "address",
          "name": "owner",
          "type": "address"
        },
        {
          "indexed": true,
          "internalType": "address",
          "name": "operator",
          "type": "address"
        },
        {
          "indexed": false,
          "internalType": "bool",
          "name": "approved",
          "type": "bool"
        }
      ],
      "name": "ApprovalForAll",
      "type": "event"
    },
    {
      "anonymous": false,
      "inputs": [
        {
          "indexed": true,
          "internalType": "bytes32",
          "name": "role",
          "type": "bytes32"
        },
        {
          "indexed": true,
          "internalType": "bytes32",
          "name": "previousAdminRole",
          "type": "bytes32"
        },
        {
          "indexed": true,
          "internalType": "bytes32",
          "name": "newAdminRole",
          "type": "bytes32"
        }
      ],
      "name": "RoleAdminChanged",
      "type": "event"
    },
    {
      "anonymous": false,
      "inputs": [
        {
          "indexed": true,
          "internalType": "bytes32",
          "name": "role",
          "type": "bytes32"
        },
        {
          "indexed": true,
          "internalType": "address",
          "name": "account",
          "type": "address"
        },
        {
          "indexed": true,
          "internalType": "address",
          "name": "sender",
          "type": "address"
        }
      ],
      "name": "RoleGranted",
      "type": "event"
    },
    {
      "anonymous": false,
      "inputs": [
        {
          "indexed": true,
          "internalType": "bytes32",
          "name": "role",
          "type": "bytes32"
        },
        {
          "indexed": true,
          "internalType": "address",
          "name": "account",
          "type": "address"
        },
        {
          "indexed": true,
          "internalType": "address",
          "name": "sender",
          "type": "address"
        }
      ],
      "name": "RoleRevoked",
      "type": "event"
    },
    {
      "anonymous": false,
      "inputs": [
        {
          "indexed": true,
          "internalType": "address",
          "name": "from",
          "type": "address"
        },
        {
          "indexed": true,
          "internalType": "address",
          "name": "to",
          "type": "address"
        },
        {
          "indexed": true,
          "internalType": "uint256",
          "name": "tokenId",
          "type": "uint256"
        }
      ],
      "name": "Transfer",
      "type": "event"
    },
    {
      "inputs": [],
      "name": "DEFAULT_ADMIN_ROLE",
      "outputs": [
        {
          "internalType": "bytes32",
          "name": "",
          "type": "bytes32"
        }
      ],
      "stateMutability": "view",
      "type": "function",
      "constant": true
    },
    {
      "inputs": [],
      "name": "Validator",
      "outputs": [
        {
          "internalType": "address",
          "name": "",
          "type": "address"
        }
      ],
      "stateMutability": "view",
      "type": "function",
      "constant": true
    },
    {
      "inputs": [
        {
          "internalType": "address",
          "name": "to",
          "type": "address"
        },
        {
          "internalType": "uint256",
          "name": "tokenId",
          "type": "uint256"
        }
      ],
      "name": "approve",
      "outputs": [],
      "stateMutability": "nonpayable",
      "type": "function"
    },
    {
      "inputs": [
        {
          "internalType": "address",
          "name": "owner",
          "type": "address"
        }
      ],
      "name": "balanceOf",
      "outputs": [
        {
          "internalType": "uint256",
          "name": "",
          "type": "uint256"
        }
      ],
      "stateMutability": "view",
      "type": "function",
      "constant": true
    },
    {
      "inputs": [],
      "name": "collateralToken",
      "outputs": [
        {
          "internalType": "contract IERC20",
          "name": "",
          "type": "address"
        }
      ],
      "stateMutability": "view",
      "type": "function",
      "constant": true
    },
    {
      "inputs": [
        {
          "internalType": "address",
          "name": "",
          "type": "address"
        }
      ],
      "name": "deposit",
      "outputs": [
        {
          "internalType": "uint256",
          "name": "",
          "type": "uint256"
        }
      ],
      "stateMutability": "view",
      "type": "function",
      "constant": true
    },
    {
      "inputs": [
        {
          "internalType": "uint256",
          "name": "tokenId",
          "type": "uint256"
        }
      ],
      "name": "getApproved",
      "outputs": [
        {
          "internalType": "address",
          "name": "",
          "type": "address"
        }
      ],
      "stateMutability": "view",
      "type": "function",
      "constant": true
    },
    {
      "inputs": [
        {
          "internalType": "bytes32",
          "name": "role",
          "type": "bytes32"
        }
      ],
      "name": "getRoleAdmin",
      "outputs": [
        {
          "internalType": "bytes32",
          "name": "",
          "type": "bytes32"
        }
      ],
      "stateMutability": "view",
      "type": "function",
      "constant": true
    },
    {
      "inputs": [
        {
          "internalType": "bytes32",
          "name": "role",
          "type": "bytes32"
        },
        {
          "internalType": "address",
          "name": "account",
          "type": "address"
        }
      ],
      "name": "grantRole",
      "outputs": [],
      "stateMutability": "nonpayable",
      "type": "function"
    },
    {
      "inputs": [
        {
          "internalType": "bytes32",
          "name": "role",
          "type": "bytes32"
        },
        {
          "internalType": "address",
          "name": "account",
          "type": "address"
        }
      ],
      "name": "hasRole",
      "outputs": [
        {
          "internalType": "bool",
          "name": "",
          "type": "bool"
        }
      ],
      "stateMutability": "view",
      "type": "function",
      "constant": true
    },
    {
      "inputs": [
        {
          "internalType": "address",
          "name": "owner",
          "type": "address"
        },
        {
          "internalType": "address",
          "name": "operator",
          "type": "address"
        }
      ],
      "name": "isApprovedForAll",
      "outputs": [
        {
          "internalType": "bool",
          "name": "",
          "type": "bool"
        }
      ],
      "stateMutability": "view",
      "type": "function",
      "constant": true
    },
    {
      "inputs": [],
      "name": "name",
      "outputs": [
        {
          "internalType": "string",
          "name": "",
          "type": "string"
        }
      ],
      "stateMutability": "view",
      "type": "function",
      "constant": true
    },
    {
      "inputs": [
        {
          "internalType": "uint256",
          "name": "",
          "type": "uint256"
        }
      ],
      "name": "nfts",
      "outputs": [
        {
          "internalType": "uint256",
          "name": "id",
          "type": "uint256"
        },
        {
          "internalType": "string",
          "name": "name",
          "type": "string"
        },
        {
          "internalType": "string",
          "name": "ipfsHash",
          "type": "string"
        },
        {
          "internalType": "address",
          "name": "owner",
          "type": "address"
        },
        {
          "internalType": "uint256",
          "name": "price",
          "type": "uint256"
        },
        {
          "internalType": "bool",
          "name": "authenticate",
          "type": "bool"
        },
        {
          "internalType": "bool",
          "name": "collateralLocked",
          "type": "bool"
        },
        {
          "internalType": "bool",
          "name": "liquidityRemoved",
          "type": "bool"
        },
        {
          "internalType": "bool",
          "name": "reedemDiamond",
          "type": "bool"
        },
        {
          "internalType": "bool",
          "name": "nftLocked",
          "type": "bool"
        }
      ],
      "stateMutability": "view",
      "type": "function",
      "constant": true
    },
    {
      "inputs": [
        {
          "internalType": "uint256",
          "name": "tokenId",
          "type": "uint256"
        }
      ],
      "name": "ownerOf",
      "outputs": [
        {
          "internalType": "address",
          "name": "",
          "type": "address"
        }
      ],
      "stateMutability": "view",
      "type": "function",
      "constant": true
    },
    {
      "inputs": [
        {
          "internalType": "bytes32",
          "name": "role",
          "type": "bytes32"
        },
        {
          "internalType": "address",
          "name": "account",
          "type": "address"
        }
      ],
      "name": "renounceRole",
      "outputs": [],
      "stateMutability": "nonpayable",
      "type": "function"
    },
    {
      "inputs": [
        {
          "internalType": "bytes32",
          "name": "role",
          "type": "bytes32"
        },
        {
          "internalType": "address",
          "name": "account",
          "type": "address"
        }
      ],
      "name": "revokeRole",
      "outputs": [],
      "stateMutability": "nonpayable",
      "type": "function"
    },
    {
      "inputs": [],
      "name": "rftToken",
      "outputs": [
        {
          "internalType": "contract IERC20",
          "name": "",
          "type": "address"
        }
      ],
      "stateMutability": "view",
      "type": "function",
      "constant": true
    },
    {
      "inputs": [
        {
          "internalType": "address",
          "name": "from",
          "type": "address"
        },
        {
          "internalType": "address",
          "name": "to",
          "type": "address"
        },
        {
          "internalType": "uint256",
          "name": "tokenId",
          "type": "uint256"
        }
      ],
      "name": "safeTransferFrom",
      "outputs": [],
      "stateMutability": "nonpayable",
      "type": "function"
    },
    {
      "inputs": [
        {
          "internalType": "address",
          "name": "from",
          "type": "address"
        },
        {
          "internalType": "address",
          "name": "to",
          "type": "address"
        },
        {
          "internalType": "uint256",
          "name": "tokenId",
          "type": "uint256"
        },
        {
          "internalType": "bytes",
          "name": "_data",
          "type": "bytes"
        }
      ],
      "name": "safeTransferFrom",
      "outputs": [],
      "stateMutability": "nonpayable",
      "type": "function"
    },
    {
      "inputs": [
        {
          "internalType": "address",
          "name": "operator",
          "type": "address"
        },
        {
          "internalType": "bool",
          "name": "approved",
          "type": "bool"
        }
      ],
      "name": "setApprovalForAll",
      "outputs": [],
      "stateMutability": "nonpayable",
      "type": "function"
    },
    {
      "inputs": [],
      "name": "symbol",
      "outputs": [
        {
          "internalType": "string",
          "name": "",
          "type": "string"
        }
      ],
      "stateMutability": "view",
      "type": "function",
      "constant": true
    },
    {
      "inputs": [],
      "name": "tokenCounter",
      "outputs": [
        {
          "internalType": "uint256",
          "name": "",
          "type": "uint256"
        }
      ],
      "stateMutability": "view",
      "type": "function",
      "constant": true
    },
    {
      "inputs": [
        {
          "internalType": "uint256",
          "name": "tokenId",
          "type": "uint256"
        }
      ],
      "name": "tokenURI",
      "outputs": [
        {
          "internalType": "string",
          "name": "",
          "type": "string"
        }
      ],
      "stateMutability": "view",
      "type": "function",
      "constant": true
    },
    {
      "inputs": [
        {
          "internalType": "address",
          "name": "from",
          "type": "address"
        },
        {
          "internalType": "address",
          "name": "to",
          "type": "address"
        },
        {
          "internalType": "uint256",
          "name": "tokenId",
          "type": "uint256"
        }
      ],
      "name": "transferFrom",
      "outputs": [],
      "stateMutability": "nonpayable",
      "type": "function"
    },
    {
      "inputs": [
        {
          "internalType": "string",
          "name": "_name",
          "type": "string"
        },
        {
          "internalType": "uint256",
          "name": "_diamondPrice",
          "type": "uint256"
        },
        {
          "internalType": "string",
          "name": "tokenURI",
          "type": "string"
        }
      ],
      "name": "createCollectible",
      "outputs": [
        {
          "internalType": "uint256",
          "name": "",
          "type": "uint256"
        }
      ],
      "stateMutability": "nonpayable",
      "type": "function"
    },
    {
      "inputs": [
        {
          "internalType": "uint256",
          "name": "_diamondId",
          "type": "uint256"
        }
      ],
      "name": "requestDiamondLiquidity",
      "outputs": [],
      "stateMutability": "nonpayable",
      "type": "function"
    },
    {
      "inputs": [
        {
          "internalType": "uint256",
          "name": "_diamondId",
          "type": "uint256"
        },
        {
          "internalType": "bool",
          "name": "_authencity",
          "type": "bool"
        }
      ],
      "name": "approveDiamondAuthencity",
      "outputs": [],
      "stateMutability": "nonpayable",
      "type": "function"
    },
    {
      "inputs": [
        {
          "internalType": "uint256",
          "name": "_diamondId",
          "type": "uint256"
        }
      ],
      "name": "addDiamondLiquidity",
      "outputs": [],
      "stateMutability": "nonpayable",
      "type": "function"
    },
    {
      "inputs": [
        {
          "internalType": "uint256",
          "name": "_diamondId",
          "type": "uint256"
        },
        {
          "internalType": "uint256",
          "name": "_amount",
          "type": "uint256"
        }
      ],
      "name": "reedemDiamond",
      "outputs": [],
      "stateMutability": "nonpayable",
      "type": "function"
    },
    {
      "inputs": [
        {
          "internalType": "uint256",
          "name": "_diamondId",
          "type": "uint256"
        }
      ],
      "name": "repayDiamond",
      "outputs": [],
      "stateMutability": "nonpayable",
      "type": "function"
    },
    {
      "inputs": [
        {
          "internalType": "address",
          "name": "",
          "type": "address"
        },
        {
          "internalType": "address",
          "name": "",
          "type": "address"
        },
        {
          "internalType": "uint256",
          "name": "",
          "type": "uint256"
        },
        {
          "internalType": "bytes",
          "name": "",
          "type": "bytes"
        }
      ],
      "name": "onERC721Received",
      "outputs": [
        {
          "internalType": "bytes4",
          "name": "",
          "type": "bytes4"
        }
      ],
      "stateMutability": "nonpayable",
      "type": "function"
    },
    {
      "inputs": [
        {
          "internalType": "bytes4",
          "name": "interfaceId",
          "type": "bytes4"
        }
      ],
      "name": "supportsInterface",
      "outputs": [
        {
          "internalType": "bool",
          "name": "",
          "type": "bool"
        }
      ],
      "stateMutability": "view",
      "type": "function",
      "constant": true
    }
  ],
  "bytecode": "0x60806040523480156200001157600080fd5b5060405162005fd138038062005fd1833981810160405281019062000037919062000410565b6040518060400160405280600781526020017f4469616d6f6e64000000000000000000000000000000000000000000000000008152506040518060400160405280600381526020017f444d4700000000000000000000000000000000000000000000000000000000008152508160009080519060200190620000bb92919062000349565b508060019080519060200190620000d492919062000349565b505050600060088190555081600a60006101000a81548173ffffffffffffffffffffffffffffffffffffffff021916908373ffffffffffffffffffffffffffffffffffffffff16021790555080600960006101000a81548173ffffffffffffffffffffffffffffffffffffffff021916908373ffffffffffffffffffffffffffffffffffffffff160217905550620001856000801b62000179620001ce60201b60201c565b620001d660201b60201c565b33600b60006101000a81548173ffffffffffffffffffffffffffffffffffffffff021916908373ffffffffffffffffffffffffffffffffffffffff160217905550505062000518565b600033905090565b620001e88282620001ec60201b60201c565b5050565b620001fe8282620002de60201b60201c565b620002da5760016007600084815260200190815260200160002060000160008373ffffffffffffffffffffffffffffffffffffffff1673ffffffffffffffffffffffffffffffffffffffff16815260200190815260200160002060006101000a81548160ff0219169083151502179055506200027f620001ce60201b60201c565b73ffffffffffffffffffffffffffffffffffffffff168173ffffffffffffffffffffffffffffffffffffffff16837f2f8788117e7eff1d82e926ec794901d17c78024a50270940304540a733656f0d60405160405180910390a45b5050565b60006007600084815260200190815260200160002060000160008373ffffffffffffffffffffffffffffffffffffffff1673ffffffffffffffffffffffffffffffffffffffff16815260200190815260200160002060009054906101000a900460ff16905092915050565b828054620003579062000499565b90600052602060002090601f0160209004810192826200037b5760008555620003c7565b82601f106200039657805160ff1916838001178555620003c7565b82800160010185558215620003c7579182015b82811115620003c6578251825591602001919060010190620003a9565b5b509050620003d69190620003da565b5090565b5b80821115620003f5576000816000905550600101620003db565b5090565b6000815190506200040a81620004fe565b92915050565b600080604083850312156200042457600080fd5b60006200043485828601620003f9565b92505060206200044785828601620003f9565b9150509250929050565b60006200045e8262000479565b9050919050565b6000620004728262000451565b9050919050565b600073ffffffffffffffffffffffffffffffffffffffff82169050919050565b60006002820490506001821680620004b257607f821691505b60208210811415620004c957620004c8620004cf565b5b50919050565b7f4e487b7100000000000000000000000000000000000000000000000000000000600052602260045260246000fd5b620005098162000465565b81146200051557600080fd5b50565b615aa980620005286000396000f3fe608060405234801561001057600080fd5b50600436106101f05760003560e01c806389344d1f1161010f578063c87b56dd116100a2578063da3ec8f911610071578063da3ec8f9146105e2578063e67ed45414610600578063e985e9c51461061c578063f340fa011461064c576101f0565b8063c87b56dd1461055c578063caacac961461058c578063d082e381146105a8578063d547741f146105c6576101f0565b8063a22cb465116100de578063a22cb465146104ea578063a62e555c14610506578063b2016bd414610522578063b88d4fde14610540576101f0565b806389344d1f1461046257806391d148541461047e57806395d89b41146104ae578063a217fddf146104cc576101f0565b80632f2ff15d1161018757806359802f781161015657806359802f78146103c85780636352211e146103e45780636d43ecc61461041457806370a0823114610432576101f0565b80632f2ff15d1461034457806336568abe1461036057806342842e0e1461037c5780635101126414610398576101f0565b8063150b7a02116101c3578063150b7a021461028f57806323b872dd146102bf578063248a9ca3146102db578063265aa6211461030b576101f0565b806301ffc9a7146101f557806306fdde0314610225578063081812fc14610243578063095ea7b314610273575b600080fd5b61020f600480360381019061020a919061442e565b61067c565b60405161021c919061513d565b60405180910390f35b61022d61068e565b60405161023a91906151a9565b60405180910390f35b61025d600480360381019061025891906144ff565b610720565b60405161026a9190615076565b60405180910390f35b61028d60048036038101906102889190614364565b6107a5565b005b6102a960048036038101906102a491906142ad565b6108bd565b6040516102b69190615173565b60405180910390f35b6102d960048036038101906102d4919061425e565b6108d1565b005b6102f560048036038101906102f091906143c9565b610931565b6040516103029190615158565b60405180910390f35b610325600480360381019061032091906144ff565b610951565b60405161033b9a999897969594939291906154e6565b60405180910390f35b61035e600480360381019061035991906143f2565b610b16565b005b61037a600480360381019061037591906143f2565b610b3f565b005b6103966004803603810190610391919061425e565b610bc2565b005b6103b260048036038101906103ad9190614480565b610be2565b6040516103bf91906154cb565b60405180910390f35b6103e260048036038101906103dd91906144ff565b610dd7565b005b6103fe60048036038101906103f991906144ff565b6111a0565b60405161040b9190615076565b60405180910390f35b61041c611252565b6040516104299190615076565b60405180910390f35b61044c600480360381019061044791906141f9565b611278565b60405161045991906154cb565b60405180910390f35b61047c6004803603810190610477919061458d565b611330565b005b610498600480360381019061049391906143f2565b611821565b6040516104a5919061513d565b60405180910390f35b6104b661188c565b6040516104c391906151a9565b60405180910390f35b6104d461191e565b6040516104e19190615158565b60405180910390f35b61050460048036038101906104ff9190614328565b611925565b005b610520600480360381019061051b91906144ff565b611aa6565b005b61052a611ec6565b604051610537919061518e565b60405180910390f35b61055a600480360381019061055591906142ad565b611eec565b005b610576600480360381019061057191906144ff565b611f4e565b60405161058391906151a9565b60405180910390f35b6105a660048036038101906105a19190614551565b6120a0565b005b6105b06125a7565b6040516105bd91906154cb565b60405180910390f35b6105e060048036038101906105db91906143f2565b6125ad565b005b6105ea6125d6565b6040516105f7919061518e565b60405180910390f35b61061a600480360381019061061591906144ff565b6125fc565b005b61063660048036038101906106319190614222565b612c7a565b604051610643919061513d565b60405180910390f35b610666600480360381019061066191906141f9565b612d0e565b60405161067391906154cb565b60405180910390f35b600061068782612d26565b9050919050565b60606000805461069d90615887565b80601f01602080910402602001604051908101604052809291908181526020018280546106c990615887565b80156107165780601f106106eb57610100808354040283529160200191610716565b820191906000526020600020905b8154815290600101906020018083116106f957829003601f168201915b5050505050905090565b600061072b82612da0565b61076a576040517f08c379a0000000000000000000000000000000000000000000000000000000008152600401610761906153eb565b60405180910390fd5b6004600083815260200190815260200160002060009054906101000a900473ffffffffffffffffffffffffffffffffffffffff169050919050565b60006107b0826111a0565b90508073ffffffffffffffffffffffffffffffffffffffff168373ffffffffffffffffffffffffffffffffffffffff161415610821576040517f08c379a00000000000000000000000000000000000000000000000000000000081526004016108189061544b565b60405180910390fd5b8073ffffffffffffffffffffffffffffffffffffffff16610840612e0c565b73ffffffffffffffffffffffffffffffffffffffff16148061086f575061086e81610869612e0c565b612c7a565b5b6108ae576040517f08c379a00000000000000000000000000000000000000000000000000000000081526004016108a5906152eb565b60405180910390fd5b6108b88383612e14565b505050565b600063150b7a0260e01b9050949350505050565b6108e26108dc612e0c565b82612ecd565b610921576040517f08c379a00000000000000000000000000000000000000000000000000000000081526004016109189061548b565b60405180910390fd5b61092c838383612fab565b505050565b600060076000838152602001908152602001600020600101549050919050565b600c60205280600052604060002060009150905080600001549080600101805461097a90615887565b80601f01602080910402602001604051908101604052809291908181526020018280546109a690615887565b80156109f35780601f106109c8576101008083540402835291602001916109f3565b820191906000526020600020905b8154815290600101906020018083116109d657829003601f168201915b505050505090806002018054610a0890615887565b80601f0160208091040260200160405190810160405280929190818152602001828054610a3490615887565b8015610a815780601f10610a5657610100808354040283529160200191610a81565b820191906000526020600020905b815481529060010190602001808311610a6457829003601f168201915b5050505050908060030160009054906101000a900473ffffffffffffffffffffffffffffffffffffffff16908060040154908060050160009054906101000a900460ff16908060050160019054906101000a900460ff16908060050160029054906101000a900460ff16908060050160039054906101000a900460ff16908060050160049054906101000a900460ff1690508a565b610b1f82610931565b610b3081610b2b612e0c565b613207565b610b3a83836132a4565b505050565b610b47612e0c565b73ffffffffffffffffffffffffffffffffffffffff168173ffffffffffffffffffffffffffffffffffffffff1614610bb4576040517f08c379a0000000000000000000000000000000000000000000000000000000008152600401610bab906154ab565b60405180910390fd5b610bbe8282613385565b5050565b610bdd83838360405180602001604052806000815250611eec565b505050565b60006001600854610bf39190615664565b60088190555060006008549050610c0a3382613467565b610c148184613485565b6040518061014001604052808281526020018681526020018481526020013373ffffffffffffffffffffffffffffffffffffffff16815260200185815260200160001515815260200160001515815260200160001515815260200160001515815260200160001515815250600c6000838152602001908152602001600020600082015181600001556020820151816001019080519060200190610cb8929190613fde565b506040820151816002019080519060200190610cd5929190613fde565b5060608201518160030160006101000a81548173ffffffffffffffffffffffffffffffffffffffff021916908373ffffffffffffffffffffffffffffffffffffffff1602179055506080820151816004015560a08201518160050160006101000a81548160ff02191690831515021790555060c08201518160050160016101000a81548160ff02191690831515021790555060e08201518160050160026101000a81548160ff0219169083151502179055506101008201518160050160036101000a81548160ff0219169083151502179055506101208201518160050160046101000a81548160ff021916908315150217905550905050809150509392505050565b6000600c60008381526020019081526020016000206040518061014001604052908160008201548152602001600182018054610e1290615887565b80601f0160208091040260200160405190810160405280929190818152602001828054610e3e90615887565b8015610e8b5780601f10610e6057610100808354040283529160200191610e8b565b820191906000526020600020905b815481529060010190602001808311610e6e57829003601f168201915b50505050508152602001600282018054610ea490615887565b80601f0160208091040260200160405190810160405280929190818152602001828054610ed090615887565b8015610f1d5780601f10610ef257610100808354040283529160200191610f1d565b820191906000526020600020905b815481529060010190602001808311610f0057829003601f168201915b505050505081526020016003820160009054906101000a900473ffffffffffffffffffffffffffffffffffffffff1673ffffffffffffffffffffffffffffffffffffffff1673ffffffffffffffffffffffffffffffffffffffff168152602001600482015481526020016005820160009054906101000a900460ff161515151581526020016005820160019054906101000a900460ff161515151581526020016005820160029054906101000a900460ff161515151581526020016005820160039054906101000a900460ff161515151581526020016005820160049054906101000a900460ff161515151581525050905060018161012001901515908115158152505080600c600084815260200190815260200160002060008201518160000155602082015181600101908051906020019061105b929190613fde565b506040820151816002019080519060200190611078929190613fde565b5060608201518160030160006101000a81548173ffffffffffffffffffffffffffffffffffffffff021916908373ffffffffffffffffffffffffffffffffffffffff1602179055506080820151816004015560a08201518160050160006101000a81548160ff02191690831515021790555060c08201518160050160016101000a81548160ff02191690831515021790555060e08201518160050160026101000a81548160ff0219169083151502179055506101008201518160050160036101000a81548160ff0219169083151502179055506101208201518160050160046101000a81548160ff02191690831515021790555090505061119c33600b60009054906101000a900473ffffffffffffffffffffffffffffffffffffffff1684610bc2565b5050565b6000806002600084815260200190815260200160002060009054906101000a900473ffffffffffffffffffffffffffffffffffffffff169050600073ffffffffffffffffffffffffffffffffffffffff168173ffffffffffffffffffffffffffffffffffffffff161415611249576040517f08c379a00000000000000000000000000000000000000000000000000000000081526004016112409061532b565b60405180910390fd5b80915050919050565b600b60009054906101000a900473ffffffffffffffffffffffffffffffffffffffff1681565b60008073ffffffffffffffffffffffffffffffffffffffff168273ffffffffffffffffffffffffffffffffffffffff1614156112e9576040517f08c379a00000000000000000000000000000000000000000000000000000000081526004016112e09061530b565b60405180910390fd5b600360008373ffffffffffffffffffffffffffffffffffffffff1673ffffffffffffffffffffffffffffffffffffffff168152602001908152602001600020549050919050565b6000600c6000848152602001908152602001600020604051806101400160405290816000820154815260200160018201805461136b90615887565b80601f016020809104026020016040519081016040528092919081815260200182805461139790615887565b80156113e45780601f106113b9576101008083540402835291602001916113e4565b820191906000526020600020905b8154815290600101906020018083116113c757829003601f168201915b505050505081526020016002820180546113fd90615887565b80601f016020809104026020016040519081016040528092919081815260200182805461142990615887565b80156114765780601f1061144b57610100808354040283529160200191611476565b820191906000526020600020905b81548152906001019060200180831161145957829003601f168201915b505050505081526020016003820160009054906101000a900473ffffffffffffffffffffffffffffffffffffffff1673ffffffffffffffffffffffffffffffffffffffff1673ffffffffffffffffffffffffffffffffffffffff168152602001600482015481526020016005820160009054906101000a900460ff161515151581526020016005820160019054906101000a900460ff161515151581526020016005820160029054906101000a900460ff161515151581526020016005820160039054906101000a900460ff161515151581526020016005820160049054906101000a900460ff161515151581525050905081816080015110156115af576040517f08c379a00000000000000000000000000000000000000000000000000000000081526004016115a69061526b565b60405180910390fd5b806101000151156115f5576040517f08c379a00000000000000000000000000000000000000000000000000000000081526004016115ec9061536b565b60405180910390fd5b60018161010001901515908115158152505060018160e001901515908115158152505080600c6000858152602001908152602001600020600082015181600001556020820151816001019080519060200190611652929190613fde565b50604082015181600201908051906020019061166f929190613fde565b5060608201518160030160006101000a81548173ffffffffffffffffffffffffffffffffffffffff021916908373ffffffffffffffffffffffffffffffffffffffff1602179055506080820151816004015560a08201518160050160006101000a81548160ff02191690831515021790555060c08201518160050160016101000a81548160ff02191690831515021790555060e08201518160050160026101000a81548160ff0219169083151502179055506101008201518160050160036101000a81548160ff0219169083151502179055506101208201518160050160046101000a81548160ff021916908315150217905550905050600a60009054906101000a900473ffffffffffffffffffffffffffffffffffffffff1673ffffffffffffffffffffffffffffffffffffffff166323b872dd333084608001516040518463ffffffff1660e01b81526004016117c993929190615091565b602060405180830381600087803b1580156117e357600080fd5b505af11580156117f7573d6000803e3d6000fd5b505050506040513d601f19601f8201168201806040525081019061181b91906143a0565b50505050565b60006007600084815260200190815260200160002060000160008373ffffffffffffffffffffffffffffffffffffffff1673ffffffffffffffffffffffffffffffffffffffff16815260200190815260200160002060009054906101000a900460ff16905092915050565b60606001805461189b90615887565b80601f01602080910402602001604051908101604052809291908181526020018280546118c790615887565b80156119145780601f106118e957610100808354040283529160200191611914565b820191906000526020600020905b8154815290600101906020018083116118f757829003601f168201915b5050505050905090565b6000801b81565b61192d612e0c565b73ffffffffffffffffffffffffffffffffffffffff168273ffffffffffffffffffffffffffffffffffffffff16141561199b576040517f08c379a0000000000000000000000000000000000000000000000000000000008152600401611992906152ab565b60405180910390fd5b80600560006119a8612e0c565b73ffffffffffffffffffffffffffffffffffffffff1673ffffffffffffffffffffffffffffffffffffffff16815260200190815260200160002060008473ffffffffffffffffffffffffffffffffffffffff1673ffffffffffffffffffffffffffffffffffffffff16815260200190815260200160002060006101000a81548160ff0219169083151502179055508173ffffffffffffffffffffffffffffffffffffffff16611a55612e0c565b73ffffffffffffffffffffffffffffffffffffffff167f17307eab39ab6107e8899845ad3d59bd9653f200f220920489ca2b5937696c3183604051611a9a919061513d565b60405180910390a35050565b611aba6000801b611ab5612e0c565b611821565b611af9576040517f08c379a0000000000000000000000000000000000000000000000000000000008152600401611af09061522b565b60405180910390fd5b6000600c60008381526020019081526020016000206040518061014001604052908160008201548152602001600182018054611b3490615887565b80601f0160208091040260200160405190810160405280929190818152602001828054611b6090615887565b8015611bad5780601f10611b8257610100808354040283529160200191611bad565b820191906000526020600020905b815481529060010190602001808311611b9057829003601f168201915b50505050508152602001600282018054611bc690615887565b80601f0160208091040260200160405190810160405280929190818152602001828054611bf290615887565b8015611c3f5780601f10611c1457610100808354040283529160200191611c3f565b820191906000526020600020905b815481529060010190602001808311611c2257829003601f168201915b505050505081526020016003820160009054906101000a900473ffffffffffffffffffffffffffffffffffffffff1673ffffffffffffffffffffffffffffffffffffffff1673ffffffffffffffffffffffffffffffffffffffff168152602001600482015481526020016005820160009054906101000a900460ff161515151581526020016005820160019054906101000a900460ff161515151581526020016005820160029054906101000a900460ff161515151581526020016005820160039054906101000a900460ff161515151581526020016005820160049054906101000a900460ff161515151581525050905060008161012001901515908115158152505080600c6000848152602001908152602001600020600082015181600001556020820151816001019080519060200190611d7d929190613fde565b506040820151816002019080519060200190611d9a929190613fde565b5060608201518160030160006101000a81548173ffffffffffffffffffffffffffffffffffffffff021916908373ffffffffffffffffffffffffffffffffffffffff1602179055506080820151816004015560a08201518160050160006101000a81548160ff02191690831515021790555060c08201518160050160016101000a81548160ff02191690831515021790555060e08201518160050160026101000a81548160ff0219169083151502179055506101008201518160050160036101000a81548160ff0219169083151502179055506101208201518160050160046101000a81548160ff021916908315150217905550905050611ec2600b60009054906101000a900473ffffffffffffffffffffffffffffffffffffffff16826060015184610bc2565b5050565b600960009054906101000a900473ffffffffffffffffffffffffffffffffffffffff1681565b611efd611ef7612e0c565b83612ecd565b611f3c576040517f08c379a0000000000000000000000000000000000000000000000000000000008152600401611f339061548b565b60405180910390fd5b611f48848484846134f9565b50505050565b6060611f5982612da0565b611f98576040517f08c379a0000000000000000000000000000000000000000000000000000000008152600401611f8f906153cb565b60405180910390fd5b6000600660008481526020019081526020016000208054611fb890615887565b80601f0160208091040260200160405190810160405280929190818152602001828054611fe490615887565b80156120315780601f1061200657610100808354040283529160200191612031565b820191906000526020600020905b81548152906001019060200180831161201457829003601f168201915b505050505090506000612042613555565b905060008151141561205857819250505061209b565b60008251111561208d578082604051602001612075929190615018565b6040516020818303038152906040529250505061209b565b6120968461356c565b925050505b919050565b6120b46000801b6120af612e0c565b611821565b6120f3576040517f08c379a00000000000000000000000000000000000000000000000000000000081526004016120ea9061522b565b60405180910390fd5b6000600c6000848152602001908152602001600020604051806101400160405290816000820154815260200160018201805461212e90615887565b80601f016020809104026020016040519081016040528092919081815260200182805461215a90615887565b80156121a75780601f1061217c576101008083540402835291602001916121a7565b820191906000526020600020905b81548152906001019060200180831161218a57829003601f168201915b505050505081526020016002820180546121c090615887565b80601f01602080910402602001604051908101604052809291908181526020018280546121ec90615887565b80156122395780601f1061220e57610100808354040283529160200191612239565b820191906000526020600020905b81548152906001019060200180831161221c57829003601f168201915b505050505081526020016003820160009054906101000a900473ffffffffffffffffffffffffffffffffffffffff1673ffffffffffffffffffffffffffffffffffffffff1673ffffffffffffffffffffffffffffffffffffffff168152602001600482015481526020016005820160009054906101000a900460ff161515151581526020016005820160019054906101000a900460ff161515151581526020016005820160029054906101000a900460ff161515151581526020016005820160039054906101000a900460ff161515151581526020016005820160049054906101000a900460ff1615151515815250509050818160a0019015159081151581525050811561241057600181610120019015159081151581525050600a60009054906101000a900473ffffffffffffffffffffffffffffffffffffffff1673ffffffffffffffffffffffffffffffffffffffff1663095ea7b3826060015183608001516040518363ffffffff1660e01b81526004016123b8929190615114565b602060405180830381600087803b1580156123d257600080fd5b505af11580156123e6573d6000803e3d6000fd5b505050506040513d601f19601f8201168201806040525081019061240a91906143a0565b50612454565b600081610120019015159081151581525050612453600b60009054906101000a900473ffffffffffffffffffffffffffffffffffffffff16826060015185610bc2565b5b80600c600085815260200190815260200160002060008201518160000155602082015181600101908051906020019061248e929190613fde565b5060408201518160020190805190602001906124ab929190613fde565b5060608201518160030160006101000a81548173ffffffffffffffffffffffffffffffffffffffff021916908373ffffffffffffffffffffffffffffffffffffffff1602179055506080820151816004015560a08201518160050160006101000a81548160ff02191690831515021790555060c08201518160050160016101000a81548160ff02191690831515021790555060e08201518160050160026101000a81548160ff0219169083151502179055506101008201518160050160036101000a81548160ff0219169083151502179055506101208201518160050160046101000a81548160ff021916908315150217905550905050505050565b60085481565b6125b682610931565b6125c7816125c2612e0c565b613207565b6125d18383613385565b505050565b600a60009054906101000a900473ffffffffffffffffffffffffffffffffffffffff1681565b6000600c6000838152602001908152602001600020604051806101400160405290816000820154815260200160018201805461263790615887565b80601f016020809104026020016040519081016040528092919081815260200182805461266390615887565b80156126b05780601f10612685576101008083540402835291602001916126b0565b820191906000526020600020905b81548152906001019060200180831161269357829003601f168201915b505050505081526020016002820180546126c990615887565b80601f01602080910402602001604051908101604052809291908181526020018280546126f590615887565b80156127425780601f1061271757610100808354040283529160200191612742565b820191906000526020600020905b81548152906001019060200180831161272557829003601f168201915b505050505081526020016003820160009054906101000a900473ffffffffffffffffffffffffffffffffffffffff1673ffffffffffffffffffffffffffffffffffffffff1673ffffffffffffffffffffffffffffffffffffffff168152602001600482015481526020016005820160009054906101000a900460ff161515151581526020016005820160019054906101000a900460ff161515151581526020016005820160029054906101000a900460ff161515151581526020016005820160039054906101000a900460ff161515151581526020016005820160049054906101000a900460ff16151515158152505090508060800151600960009054906101000a900473ffffffffffffffffffffffffffffffffffffffff1673ffffffffffffffffffffffffffffffffffffffff166370a08231336040518263ffffffff1660e01b81526004016128949190615076565b60206040518083038186803b1580156128ac57600080fd5b505afa1580156128c0573d6000803e3d6000fd5b505050506040513d601f19601f820116820180604052508101906128e49190614528565b11612924576040517f08c379a000000000000000000000000000000000000000000000000000000000815260040161291b9061538b565b60405180910390fd5b8060a00151612968576040517f08c379a000000000000000000000000000000000000000000000000000000000815260040161295f9061524b565b60405180910390fd5b8060c00151156129ad576040517f08c379a00000000000000000000000000000000000000000000000000000000081526004016129a49061546b565b60405180910390fd5b60018160c001901515908115158152505080600c60008481526020019081526020016000206000820151816000015560208201518160010190805190602001906129f8929190613fde565b506040820151816002019080519060200190612a15929190613fde565b5060608201518160030160006101000a81548173ffffffffffffffffffffffffffffffffffffffff021916908373ffffffffffffffffffffffffffffffffffffffff1602179055506080820151816004015560a08201518160050160006101000a81548160ff02191690831515021790555060c08201518160050160016101000a81548160ff02191690831515021790555060e08201518160050160026101000a81548160ff0219169083151502179055506101008201518160050160036101000a81548160ff0219169083151502179055506101208201518160050160046101000a81548160ff021916908315150217905550905050600960009054906101000a900473ffffffffffffffffffffffffffffffffffffffff1673ffffffffffffffffffffffffffffffffffffffff166323b872dd333084608001516040518463ffffffff1660e01b8152600401612b6f93929190615091565b602060405180830381600087803b158015612b8957600080fd5b505af1158015612b9d573d6000803e3d6000fd5b505050506040513d601f19601f82011682018060405250810190612bc191906143a0565b50600a60009054906101000a900473ffffffffffffffffffffffffffffffffffffffff1673ffffffffffffffffffffffffffffffffffffffff1663a9059cbb3383608001516040518363ffffffff1660e01b8152600401612c23929190615114565b602060405180830381600087803b158015612c3d57600080fd5b505af1158015612c51573d6000803e3d6000fd5b505050506040513d601f19601f82011682018060405250810190612c7591906143a0565b505050565b6000600560008473ffffffffffffffffffffffffffffffffffffffff1673ffffffffffffffffffffffffffffffffffffffff16815260200190815260200160002060008373ffffffffffffffffffffffffffffffffffffffff1673ffffffffffffffffffffffffffffffffffffffff16815260200190815260200160002060009054906101000a900460ff16905092915050565b600d6020528060005260406000206000915090505481565b60007f7965db0b000000000000000000000000000000000000000000000000000000007bffffffffffffffffffffffffffffffffffffffffffffffffffffffff1916827bffffffffffffffffffffffffffffffffffffffffffffffffffffffff19161480612d995750612d9882613613565b5b9050919050565b60008073ffffffffffffffffffffffffffffffffffffffff166002600084815260200190815260200160002060009054906101000a900473ffffffffffffffffffffffffffffffffffffffff1673ffffffffffffffffffffffffffffffffffffffff1614159050919050565b600033905090565b816004600083815260200190815260200160002060006101000a81548173ffffffffffffffffffffffffffffffffffffffff021916908373ffffffffffffffffffffffffffffffffffffffff160217905550808273ffffffffffffffffffffffffffffffffffffffff16612e87836111a0565b73ffffffffffffffffffffffffffffffffffffffff167f8c5be1e5ebec7d5bd14f71427d1e84f3dd0314c0f7b2291e5b200ac8c7c3b92560405160405180910390a45050565b6000612ed882612da0565b612f17576040517f08c379a0000000000000000000000000000000000000000000000000000000008152600401612f0e906152cb565b60405180910390fd5b6000612f22836111a0565b90508073ffffffffffffffffffffffffffffffffffffffff168473ffffffffffffffffffffffffffffffffffffffff161480612f9157508373ffffffffffffffffffffffffffffffffffffffff16612f7984610720565b73ffffffffffffffffffffffffffffffffffffffff16145b80612fa25750612fa18185612c7a565b5b91505092915050565b8273ffffffffffffffffffffffffffffffffffffffff16612fcb826111a0565b73ffffffffffffffffffffffffffffffffffffffff1614613021576040517f08c379a00000000000000000000000000000000000000000000000000000000081526004016130189061540b565b60405180910390fd5b600073ffffffffffffffffffffffffffffffffffffffff168273ffffffffffffffffffffffffffffffffffffffff161415613091576040517f08c379a00000000000000000000000000000000000000000000000000000000081526004016130889061528b565b60405180910390fd5b61309c8383836136f5565b6130a7600082612e14565b6001600360008573ffffffffffffffffffffffffffffffffffffffff1673ffffffffffffffffffffffffffffffffffffffff16815260200190815260200160002060008282546130f79190615745565b925050819055506001600360008473ffffffffffffffffffffffffffffffffffffffff1673ffffffffffffffffffffffffffffffffffffffff168152602001908152602001600020600082825461314e9190615664565b92505081905550816002600083815260200190815260200160002060006101000a81548173ffffffffffffffffffffffffffffffffffffffff021916908373ffffffffffffffffffffffffffffffffffffffff160217905550808273ffffffffffffffffffffffffffffffffffffffff168473ffffffffffffffffffffffffffffffffffffffff167fddf252ad1be2c89b69c2b068fc378daa952ba7f163c4a11628f55a4df523b3ef60405160405180910390a4505050565b6132118282611821565b6132a0576132368173ffffffffffffffffffffffffffffffffffffffff1660146136fa565b6132448360001c60206136fa565b60405160200161325592919061503c565b6040516020818303038152906040526040517f08c379a000000000000000000000000000000000000000000000000000000000815260040161329791906151a9565b60405180910390fd5b5050565b6132ae8282611821565b6133815760016007600084815260200190815260200160002060000160008373ffffffffffffffffffffffffffffffffffffffff1673ffffffffffffffffffffffffffffffffffffffff16815260200190815260200160002060006101000a81548160ff021916908315150217905550613326612e0c565b73ffffffffffffffffffffffffffffffffffffffff168173ffffffffffffffffffffffffffffffffffffffff16837f2f8788117e7eff1d82e926ec794901d17c78024a50270940304540a733656f0d60405160405180910390a45b5050565b61338f8282611821565b156134635760006007600084815260200190815260200160002060000160008373ffffffffffffffffffffffffffffffffffffffff1673ffffffffffffffffffffffffffffffffffffffff16815260200190815260200160002060006101000a81548160ff021916908315150217905550613408612e0c565b73ffffffffffffffffffffffffffffffffffffffff168173ffffffffffffffffffffffffffffffffffffffff16837ff6391f5c32d9c69d2a47ea670b442974b53935d1edc7fd64eb21e047a839171b60405160405180910390a45b5050565b6134818282604051806020016040528060008152506139f4565b5050565b61348e82612da0565b6134cd576040517f08c379a00000000000000000000000000000000000000000000000000000000081526004016134c49061534b565b60405180910390fd5b806006600084815260200190815260200160002090805190602001906134f4929190613fde565b505050565b613504848484612fab565b61351084848484613a4f565b61354f576040517f08c379a0000000000000000000000000000000000000000000000000000000008152600401613546906151eb565b60405180910390fd5b50505050565b606060405180602001604052806000815250905090565b606061357782612da0565b6135b6576040517f08c379a00000000000000000000000000000000000000000000000000000000081526004016135ad9061542b565b60405180910390fd5b60006135c0613555565b905060008151116135e0576040518060200160405280600081525061360b565b806135ea84613be6565b6040516020016135fb929190615018565b6040516020818303038152906040525b915050919050565b60007f80ac58cd000000000000000000000000000000000000000000000000000000007bffffffffffffffffffffffffffffffffffffffffffffffffffffffff1916827bffffffffffffffffffffffffffffffffffffffffffffffffffffffff191614806136de57507f5b5e139f000000000000000000000000000000000000000000000000000000007bffffffffffffffffffffffffffffffffffffffffffffffffffffffff1916827bffffffffffffffffffffffffffffffffffffffffffffffffffffffff1916145b806136ee57506136ed82613d93565b5b9050919050565b505050565b60606000600283600261370d91906156eb565b6137179190615664565b67ffffffffffffffff811115613756577f4e487b7100000000000000000000000000000000000000000000000000000000600052604160045260246000fd5b6040519080825280601f01601f1916602001820160405280156137885781602001600182028036833780820191505090505b5090507f3000000000000000000000000000000000000000000000000000000000000000816000815181106137e6577f4e487b7100000000000000000000000000000000000000000000000000000000600052603260045260246000fd5b60200101907effffffffffffffffffffffffffffffffffffffffffffffffffffffffffffff1916908160001a9053507f780000000000000000000000000000000000000000000000000000000000000081600181518110613870577f4e487b7100000000000000000000000000000000000000000000000000000000600052603260045260246000fd5b60200101907effffffffffffffffffffffffffffffffffffffffffffffffffffffffffffff1916908160001a905350600060018460026138b091906156eb565b6138ba9190615664565b90505b60018111156139a6577f3031323334353637383961626364656600000000000000000000000000000000600f861660108110613922577f4e487b7100000000000000000000000000000000000000000000000000000000600052603260045260246000fd5b1a60f81b82828151811061395f577f4e487b7100000000000000000000000000000000000000000000000000000000600052603260045260246000fd5b60200101907effffffffffffffffffffffffffffffffffffffffffffffffffffffffffffff1916908160001a905350600485901c94508061399f9061585d565b90506138bd565b50600084146139ea576040517f08c379a00000000000000000000000000000000000000000000000000000000081526004016139e1906151cb565b60405180910390fd5b8091505092915050565b6139fe8383613dfd565b613a0b6000848484613a4f565b613a4a576040517f08c379a0000000000000000000000000000000000000000000000000000000008152600401613a41906151eb565b60405180910390fd5b505050565b6000613a708473ffffffffffffffffffffffffffffffffffffffff16613fcb565b15613bd9578373ffffffffffffffffffffffffffffffffffffffff1663150b7a02613a99612e0c565b8786866040518563ffffffff1660e01b8152600401613abb94939291906150c8565b602060405180830381600087803b158015613ad557600080fd5b505af1925050508015613b0657506040513d601f19601f82011682018060405250810190613b039190614457565b60015b613b89573d8060008114613b36576040519150601f19603f3d011682016040523d82523d6000602084013e613b3b565b606091505b50600081511415613b81576040517f08c379a0000000000000000000000000000000000000000000000000000000008152600401613b78906151eb565b60405180910390fd5b805181602001fd5b63150b7a0260e01b7bffffffffffffffffffffffffffffffffffffffffffffffffffffffff1916817bffffffffffffffffffffffffffffffffffffffffffffffffffffffff191614915050613bde565b600190505b949350505050565b60606000821415613c2e576040518060400160405280600181526020017f30000000000000000000000000000000000000000000000000000000000000008152509050613d8e565b600082905060005b60008214613c60578080613c49906158b9565b915050600a82613c5991906156ba565b9150613c36565b60008167ffffffffffffffff811115613ca2577f4e487b7100000000000000000000000000000000000000000000000000000000600052604160045260246000fd5b6040519080825280601f01601f191660200182016040528015613cd45781602001600182028036833780820191505090505b5090505b60008514613d8757600182613ced9190615745565b9150600a85613cfc9190615902565b6030613d089190615664565b60f81b818381518110613d44577f4e487b7100000000000000000000000000000000000000000000000000000000600052603260045260246000fd5b60200101907effffffffffffffffffffffffffffffffffffffffffffffffffffffffffffff1916908160001a905350600a85613d8091906156ba565b9450613cd8565b8093505050505b919050565b60007f01ffc9a7000000000000000000000000000000000000000000000000000000007bffffffffffffffffffffffffffffffffffffffffffffffffffffffff1916827bffffffffffffffffffffffffffffffffffffffffffffffffffffffff1916149050919050565b600073ffffffffffffffffffffffffffffffffffffffff168273ffffffffffffffffffffffffffffffffffffffff161415613e6d576040517f08c379a0000000000000000000000000000000000000000000000000000000008152600401613e64906153ab565b60405180910390fd5b613e7681612da0565b15613eb6576040517f08c379a0000000000000000000000000000000000000000000000000000000008152600401613ead9061520b565b60405180910390fd5b613ec2600083836136f5565b6001600360008473ffffffffffffffffffffffffffffffffffffffff1673ffffffffffffffffffffffffffffffffffffffff1681526020019081526020016000206000828254613f129190615664565b92505081905550816002600083815260200190815260200160002060006101000a81548173ffffffffffffffffffffffffffffffffffffffff021916908373ffffffffffffffffffffffffffffffffffffffff160217905550808273ffffffffffffffffffffffffffffffffffffffff16600073ffffffffffffffffffffffffffffffffffffffff167fddf252ad1be2c89b69c2b068fc378daa952ba7f163c4a11628f55a4df523b3ef60405160405180910390a45050565b600080823b905060008111915050919050565b828054613fea90615887565b90600052602060002090601f01602090048101928261400c5760008555614053565b82601f1061402557805160ff1916838001178555614053565b82800160010185558215614053579182015b82811115614052578251825591602001919060010190614037565b5b5090506140609190614064565b5090565b5b8082111561407d576000816000905550600101614065565b5090565b600061409461408f846155c1565b615590565b9050828152602081018484840111156140ac57600080fd5b6140b784828561581b565b509392505050565b60006140d26140cd846155f1565b615590565b9050828152602081018484840111156140ea57600080fd5b6140f584828561581b565b509392505050565b60008135905061410c81615a00565b92915050565b60008135905061412181615a17565b92915050565b60008151905061413681615a17565b92915050565b60008135905061414b81615a2e565b92915050565b60008135905061416081615a45565b92915050565b60008151905061417581615a45565b92915050565b600082601f83011261418c57600080fd5b813561419c848260208601614081565b91505092915050565b600082601f8301126141b657600080fd5b81356141c68482602086016140bf565b91505092915050565b6000813590506141de81615a5c565b92915050565b6000815190506141f381615a5c565b92915050565b60006020828403121561420b57600080fd5b6000614219848285016140fd565b91505092915050565b6000806040838503121561423557600080fd5b6000614243858286016140fd565b9250506020614254858286016140fd565b9150509250929050565b60008060006060848603121561427357600080fd5b6000614281868287016140fd565b9350506020614292868287016140fd565b92505060406142a3868287016141cf565b9150509250925092565b600080600080608085870312156142c357600080fd5b60006142d1878288016140fd565b94505060206142e2878288016140fd565b93505060406142f3878288016141cf565b925050606085013567ffffffffffffffff81111561431057600080fd5b61431c8782880161417b565b91505092959194509250565b6000806040838503121561433b57600080fd5b6000614349858286016140fd565b925050602061435a85828601614112565b9150509250929050565b6000806040838503121561437757600080fd5b6000614385858286016140fd565b9250506020614396858286016141cf565b9150509250929050565b6000602082840312156143b257600080fd5b60006143c084828501614127565b91505092915050565b6000602082840312156143db57600080fd5b60006143e98482850161413c565b91505092915050565b6000806040838503121561440557600080fd5b60006144138582860161413c565b9250506020614424858286016140fd565b9150509250929050565b60006020828403121561444057600080fd5b600061444e84828501614151565b91505092915050565b60006020828403121561446957600080fd5b600061447784828501614166565b91505092915050565b60008060006060848603121561449557600080fd5b600084013567ffffffffffffffff8111156144af57600080fd5b6144bb868287016141a5565b93505060206144cc868287016141cf565b925050604084013567ffffffffffffffff8111156144e957600080fd5b6144f5868287016141a5565b9150509250925092565b60006020828403121561451157600080fd5b600061451f848285016141cf565b91505092915050565b60006020828403121561453a57600080fd5b6000614548848285016141e4565b91505092915050565b6000806040838503121561456457600080fd5b6000614572858286016141cf565b925050602061458385828601614112565b9150509250929050565b600080604083850312156145a057600080fd5b60006145ae858286016141cf565b92505060206145bf858286016141cf565b9150509250929050565b6145d281615779565b82525050565b6145e18161578b565b82525050565b6145f081615797565b82525050565b6145ff816157a1565b82525050565b600061461082615621565b61461a8185615637565b935061462a81856020860161582a565b614633816159ef565b840191505092915050565b614647816157f7565b82525050565b60006146588261562c565b6146628185615648565b935061467281856020860161582a565b61467b816159ef565b840191505092915050565b60006146918261562c565b61469b8185615659565b93506146ab81856020860161582a565b80840191505092915050565b60006146c4602083615648565b91507f537472696e67733a20686578206c656e67746820696e73756666696369656e746000830152602082019050919050565b6000614704603283615648565b91507f4552433732313a207472616e7366657220746f206e6f6e20455243373231526560008301527f63656976657220696d706c656d656e74657200000000000000000000000000006020830152604082019050919050565b600061476a601c83615648565b91507f4552433732313a20746f6b656e20616c7265616479206d696e746564000000006000830152602082019050919050565b60006147aa601f83615648565b91507f41727468506f6f6c3a20596f7520617265206e6f74207468652061646d696e006000830152602082019050919050565b60006147ea603983615648565b91507f546f6b656e20466163746f72792038333a204e6f7420416e2041757468656e7460008301527f6963204469616d6f6e6420526570726573656e746174696f6e000000000000006020830152604082019050919050565b6000614850603383615648565b91507f546f6b656e20466163746f7279203131323a204e6f7420456e6f75676820526560008301527f6564656d61626c6520436f6c6c61746572616c000000000000000000000000006020830152604082019050919050565b60006148b6602483615648565b91507f4552433732313a207472616e7366657220746f20746865207a65726f2061646460008301527f72657373000000000000000000000000000000000000000000000000000000006020830152604082019050919050565b600061491c601983615648565b91507f4552433732313a20617070726f766520746f2063616c6c6572000000000000006000830152602082019050919050565b600061495c602c83615648565b91507f4552433732313a206f70657261746f7220717565727920666f72206e6f6e657860008301527f697374656e7420746f6b656e00000000000000000000000000000000000000006020830152604082019050919050565b60006149c2603883615648565b91507f4552433732313a20617070726f76652063616c6c6572206973206e6f74206f7760008301527f6e6572206e6f7220617070726f76656420666f7220616c6c00000000000000006020830152604082019050919050565b6000614a28602a83615648565b91507f4552433732313a2062616c616e636520717565727920666f7220746865207a6560008301527f726f2061646472657373000000000000000000000000000000000000000000006020830152604082019050919050565b6000614a8e602983615648565b91507f4552433732313a206f776e657220717565727920666f72206e6f6e657869737460008301527f656e7420746f6b656e00000000000000000000000000000000000000000000006020830152604082019050919050565b6000614af4602e83615648565b91507f45524337323155524953746f726167653a2055524920736574206f66206e6f6e60008301527f6578697374656e7420746f6b656e0000000000000000000000000000000000006020830152604082019050919050565b6000614b5a602b83615648565b91507f546f6b656e20466163746f7279203131333a20416c7265616479204469616d6f60008301527f6e642052656564656d65640000000000000000000000000000000000000000006020830152604082019050919050565b6000614bc0602f83615648565b91507f546f6b656e20466163746f72792038323a20496e737566666963656e7420436f60008301527f6c6c61746572616c20416d6f756e7400000000000000000000000000000000006020830152604082019050919050565b6000614c26602083615648565b91507f4552433732313a206d696e7420746f20746865207a65726f20616464726573736000830152602082019050919050565b6000614c66603183615648565b91507f45524337323155524953746f726167653a2055524920717565727920666f722060008301527f6e6f6e6578697374656e7420746f6b656e0000000000000000000000000000006020830152604082019050919050565b6000614ccc602c83615648565b91507f4552433732313a20617070726f76656420717565727920666f72206e6f6e657860008301527f697374656e7420746f6b656e00000000000000000000000000000000000000006020830152604082019050919050565b6000614d32602983615648565b91507f4552433732313a207472616e73666572206f6620746f6b656e2074686174206960008301527f73206e6f74206f776e00000000000000000000000000000000000000000000006020830152604082019050919050565b6000614d98602f83615648565b91507f4552433732314d657461646174613a2055524920717565727920666f72206e6f60008301527f6e6578697374656e7420746f6b656e00000000000000000000000000000000006020830152604082019050919050565b6000614dfe602183615648565b91507f4552433732313a20617070726f76616c20746f2063757272656e74206f776e6560008301527f72000000000000000000000000000000000000000000000000000000000000006020830152604082019050919050565b6000614e64602b83615648565b91507f546f6b656e20466163746f72792038343a20416c72656164792041646465642060008301527f4c69717569646174696f6e0000000000000000000000000000000000000000006020830152604082019050919050565b6000614eca603183615648565b91507f4552433732313a207472616e736665722063616c6c6572206973206e6f74206f60008301527f776e6572206e6f7220617070726f7665640000000000000000000000000000006020830152604082019050919050565b6000614f30601783615659565b91507f416363657373436f6e74726f6c3a206163636f756e74200000000000000000006000830152601782019050919050565b6000614f70601183615659565b91507f206973206d697373696e6720726f6c65200000000000000000000000000000006000830152601182019050919050565b6000614fb0602f83615648565b91507f416363657373436f6e74726f6c3a2063616e206f6e6c792072656e6f756e636560008301527f20726f6c657320666f722073656c6600000000000000000000000000000000006020830152604082019050919050565b615012816157ed565b82525050565b60006150248285614686565b91506150308284614686565b91508190509392505050565b600061504782614f23565b91506150538285614686565b915061505e82614f63565b915061506a8284614686565b91508190509392505050565b600060208201905061508b60008301846145c9565b92915050565b60006060820190506150a660008301866145c9565b6150b360208301856145c9565b6150c06040830184615009565b949350505050565b60006080820190506150dd60008301876145c9565b6150ea60208301866145c9565b6150f76040830185615009565b81810360608301526151098184614605565b905095945050505050565b600060408201905061512960008301856145c9565b6151366020830184615009565b9392505050565b600060208201905061515260008301846145d8565b92915050565b600060208201905061516d60008301846145e7565b92915050565b600060208201905061518860008301846145f6565b92915050565b60006020820190506151a3600083018461463e565b92915050565b600060208201905081810360008301526151c3818461464d565b905092915050565b600060208201905081810360008301526151e4816146b7565b9050919050565b60006020820190508181036000830152615204816146f7565b9050919050565b600060208201905081810360008301526152248161475d565b9050919050565b600060208201905081810360008301526152448161479d565b9050919050565b60006020820190508181036000830152615264816147dd565b9050919050565b6000602082019050818103600083015261528481614843565b9050919050565b600060208201905081810360008301526152a4816148a9565b9050919050565b600060208201905081810360008301526152c48161490f565b9050919050565b600060208201905081810360008301526152e48161494f565b9050919050565b60006020820190508181036000830152615304816149b5565b9050919050565b6000602082019050818103600083015261532481614a1b565b9050919050565b6000602082019050818103600083015261534481614a81565b9050919050565b6000602082019050818103600083015261536481614ae7565b9050919050565b6000602082019050818103600083015261538481614b4d565b9050919050565b600060208201905081810360008301526153a481614bb3565b9050919050565b600060208201905081810360008301526153c481614c19565b9050919050565b600060208201905081810360008301526153e481614c59565b9050919050565b6000602082019050818103600083015261540481614cbf565b9050919050565b6000602082019050818103600083015261542481614d25565b9050919050565b6000602082019050818103600083015261544481614d8b565b9050919050565b6000602082019050818103600083015261546481614df1565b9050919050565b6000602082019050818103600083015261548481614e57565b9050919050565b600060208201905081810360008301526154a481614ebd565b9050919050565b600060208201905081810360008301526154c481614fa3565b9050919050565b60006020820190506154e06000830184615009565b92915050565b6000610140820190506154fc600083018d615009565b818103602083015261550e818c61464d565b90508181036040830152615522818b61464d565b9050615531606083018a6145c9565b61553e6080830189615009565b61554b60a08301886145d8565b61555860c08301876145d8565b61556560e08301866145d8565b6155736101008301856145d8565b6155816101208301846145d8565b9b9a5050505050505050505050565b6000604051905081810181811067ffffffffffffffff821117156155b7576155b66159c0565b5b8060405250919050565b600067ffffffffffffffff8211156155dc576155db6159c0565b5b601f19601f8301169050602081019050919050565b600067ffffffffffffffff82111561560c5761560b6159c0565b5b601f19601f8301169050602081019050919050565b600081519050919050565b600081519050919050565b600082825260208201905092915050565b600082825260208201905092915050565b600081905092915050565b600061566f826157ed565b915061567a836157ed565b9250827fffffffffffffffffffffffffffffffffffffffffffffffffffffffffffffffff038211156156af576156ae615933565b5b828201905092915050565b60006156c5826157ed565b91506156d0836157ed565b9250826156e0576156df615962565b5b828204905092915050565b60006156f6826157ed565b9150615701836157ed565b9250817fffffffffffffffffffffffffffffffffffffffffffffffffffffffffffffffff048311821515161561573a57615739615933565b5b828202905092915050565b6000615750826157ed565b915061575b836157ed565b92508282101561576e5761576d615933565b5b828203905092915050565b6000615784826157cd565b9050919050565b60008115159050919050565b6000819050919050565b60007fffffffff0000000000000000000000000000000000000000000000000000000082169050919050565b600073ffffffffffffffffffffffffffffffffffffffff82169050919050565b6000819050919050565b600061580282615809565b9050919050565b6000615814826157cd565b9050919050565b82818337600083830152505050565b60005b8381101561584857808201518184015260208101905061582d565b83811115615857576000848401525b50505050565b6000615868826157ed565b9150600082141561587c5761587b615933565b5b600182039050919050565b6000600282049050600182168061589f57607f821691505b602082108114156158b3576158b2615991565b5b50919050565b60006158c4826157ed565b91507fffffffffffffffffffffffffffffffffffffffffffffffffffffffffffffffff8214156158f7576158f6615933565b5b600182019050919050565b600061590d826157ed565b9150615918836157ed565b92508261592857615927615962565b5b828206905092915050565b7f4e487b7100000000000000000000000000000000000000000000000000000000600052601160045260246000fd5b7f4e487b7100000000000000000000000000000000000000000000000000000000600052601260045260246000fd5b7f4e487b7100000000000000000000000000000000000000000000000000000000600052602260045260246000fd5b7f4e487b7100000000000000000000000000000000000000000000000000000000600052604160045260246000fd5b6000601f19601f8301169050919050565b615a0981615779565b8114615a1457600080fd5b50565b615a208161578b565b8114615a2b57600080fd5b50565b615a3781615797565b8114615a4257600080fd5b50565b615a4e816157a1565b8114615a5957600080fd5b50565b615a65816157ed565b8114615a7057600080fd5b5056fea2646970667358221220e417601559b20f5ff9ac329b92805c7ad085077664fe7e7422aa17af21009d8364736f6c63430008000033",
  "immutableReferences": {},
  "source": "// SPDX-License-Identifier: MIT\npragma solidity ^0.8.0;\n\nimport \"@openzeppelin/contracts/token/ERC721/extensions/ERC721URIStorage.sol\";\nimport \"@openzeppelin/contracts/utils/Counters.sol\";\nimport \"@openzeppelin/contracts/access/AccessControl.sol\";\nimport \"./interfaces/IERC20.sol\";\nimport \"@openzeppelin/contracts/token/ERC721/IERC721Receiver.sol\";\nimport {SafeMath} from \"./utils/SafeMath.sol\";\n\ncontract TokenFactory is  ERC721URIStorage, IERC721Receiver, AccessControl {\n    using SafeMath for uint256;\n\n    uint256 public tokenCounter;\n    IERC20 public collateralToken;\n    IERC20 public rftToken;\n\n    address public Validator;\n\n    struct Diamond {\n        uint256 id;\n        string name;\n        string ipfsHash;\n        address owner;\n        uint256 price;\n        bool authenticate;\n        bool collateralLocked;\n        bool liquidityRemoved;\n        bool reedemDiamond;\n        bool nftLocked;\n    }\n\n    mapping(uint256 => Diamond) public nfts;\n    mapping(address => uint256) public deposit;\n\n    modifier onlyAdmin() {\n        require(\n            hasRole(DEFAULT_ADMIN_ROLE, _msgSender()),\n            'ArthPool: You are not the admin'\n        );\n        _;\n    }\n\n    constructor(IERC20 _tokenAddress, IERC20 _usdt)  ERC721(\"Diamond\", \"DMG\") {\n        tokenCounter = 0;\n        rftToken = _tokenAddress;\n        collateralToken = _usdt;\n        _setupRole(DEFAULT_ADMIN_ROLE, _msgSender());\n        Validator = msg.sender;\n    }\n\n    function createCollectible(\n        string memory _name,\n        uint256 _diamondPrice,\n        string memory tokenURI\n    ) public returns (uint256) {\n        tokenCounter = tokenCounter + 1;\n        uint256 newItemId = tokenCounter;\n\n        _safeMint(msg.sender, newItemId);\n        _setTokenURI(newItemId, tokenURI);\n\n        nfts[newItemId] = Diamond(\n            newItemId,\n            _name,\n            tokenURI,\n            msg.sender,\n            _diamondPrice,\n            false,\n            false,\n            false,\n            false,\n            false\n        );\n\n        return newItemId;\n    }\n\n    function requestDiamondLiquidity(uint256 _diamondId)\n        public\n    {   \n        Diamond memory _diamond = nfts[_diamondId];\n        _diamond.nftLocked = true;\n        nfts[_diamondId] = _diamond;\n\n        safeTransferFrom(msg.sender, address(Validator), _diamondId);\n    }\n\n    function approveDiamondAuthencity(uint256 _diamondId, bool _authencity) \n        public\n        onlyAdmin\n    {\n        Diamond memory _diamond = nfts[_diamondId];\n        _diamond.authenticate = _authencity;\n        \n        if (_authencity) {\n            _diamond.nftLocked = true;\n            rftToken.approve(_diamond.owner, _diamond.price);\n        } else {\n            _diamond.nftLocked = false;\n            safeTransferFrom(address(Validator), _diamond.owner, _diamondId);\n        }\n\n        nfts[_diamondId] = _diamond;\n    }\n\n    function addDiamondLiquidity(uint256 _diamondId) \n        public \n    {   \n        Diamond memory _diamond = nfts[_diamondId];\n        \n        require(collateralToken.balanceOf(msg.sender) > _diamond.price, 'Token Factory 82: Insufficent Collateral Amount');\n        require(_diamond.authenticate, 'Token Factory 83: Not An Authentic Diamond Representation');\n        require(!_diamond.collateralLocked, 'Token Factory 84: Already Added Liquidation');\n\n        _diamond.collateralLocked = true;\n        nfts[_diamondId] = _diamond;\n\n        collateralToken.transferFrom(msg.sender, address(this), _diamond.price);\n        rftToken.transfer(msg.sender, _diamond.price);\n    }\n\n    // return collateral\n    function reedemDiamond(uint256 _diamondId, uint256 _amount) public {\n        Diamond memory _diamond = nfts[_diamondId];\n        require(_diamond.price >= _amount, 'Token Factory 112: Not Enough Reedemable Collateral');\n        require(!_diamond.reedemDiamond, 'Token Factory 113: Already Diamond Reedemed');\n        \n        _diamond.reedemDiamond = true;\n        _diamond.liquidityRemoved = true;\n        nfts[_diamondId] = _diamond;\n\n        rftToken.transferFrom(msg.sender, address(this), _diamond.price);\n    }\n\n    // return NFT\n    function repayDiamond(uint256 _diamondId) \n        public \n        onlyAdmin\n    {   \n        Diamond memory _diamond = nfts[_diamondId];\n        _diamond.nftLocked = false;\n        nfts[_diamondId] = _diamond;\n\n        safeTransferFrom(address(Validator), _diamond.owner, _diamondId);\n    }\n\n    function onERC721Received(address, address, uint256, bytes memory) public virtual override returns (bytes4) {\n        return this.onERC721Received.selector;\n    }\n\n    function supportsInterface(bytes4 interfaceId) public view virtual override(ERC721, AccessControl) returns (bool) {\n        return super.supportsInterface(interfaceId);\n    }\n}\n",
  "sourcePath": "/Users/newsgate/Work/RFT-Batch-NFT/src/contracts/TokenFactory.sol",
  "compiler": {
    "name": "solc",
    "version": "0.8.0+commit.c7dfd78e.Emscripten.clang"
  },
  "schemaVersion": "3.2.3",
  "updatedAt": "2021-06-15T20:46:44.482Z",
  "networkType": "ethereum",
  "devdoc": {
    "kind": "dev",
    "methods": {
      "approve(address,uint256)": {
        "details": "See {IERC721-approve}."
      },
      "balanceOf(address)": {
        "details": "See {IERC721-balanceOf}."
      },
      "getApproved(uint256)": {
        "details": "See {IERC721-getApproved}."
      },
      "getRoleAdmin(bytes32)": {
        "details": "Returns the admin role that controls `role`. See {grantRole} and {revokeRole}. To change a role's admin, use {_setRoleAdmin}."
      },
      "grantRole(bytes32,address)": {
        "details": "Grants `role` to `account`. If `account` had not been already granted `role`, emits a {RoleGranted} event. Requirements: - the caller must have ``role``'s admin role."
      },
      "hasRole(bytes32,address)": {
        "details": "Returns `true` if `account` has been granted `role`."
      },
      "isApprovedForAll(address,address)": {
        "details": "See {IERC721-isApprovedForAll}."
      },
      "name()": {
        "details": "See {IERC721Metadata-name}."
      },
      "ownerOf(uint256)": {
        "details": "See {IERC721-ownerOf}."
      },
      "renounceRole(bytes32,address)": {
        "details": "Revokes `role` from the calling account. Roles are often managed via {grantRole} and {revokeRole}: this function's purpose is to provide a mechanism for accounts to lose their privileges if they are compromised (such as when a trusted device is misplaced). If the calling account had been granted `role`, emits a {RoleRevoked} event. Requirements: - the caller must be `account`."
      },
      "revokeRole(bytes32,address)": {
        "details": "Revokes `role` from `account`. If `account` had been granted `role`, emits a {RoleRevoked} event. Requirements: - the caller must have ``role``'s admin role."
      },
      "safeTransferFrom(address,address,uint256)": {
        "details": "See {IERC721-safeTransferFrom}."
      },
      "safeTransferFrom(address,address,uint256,bytes)": {
        "details": "See {IERC721-safeTransferFrom}."
      },
      "setApprovalForAll(address,bool)": {
        "details": "See {IERC721-setApprovalForAll}."
      },
      "symbol()": {
        "details": "See {IERC721Metadata-symbol}."
      },
      "tokenURI(uint256)": {
        "details": "See {IERC721Metadata-tokenURI}."
      },
      "transferFrom(address,address,uint256)": {
        "details": "See {IERC721-transferFrom}."
      }
    },
    "version": 1
  },
  "userdoc": {
    "kind": "user",
    "methods": {},
    "version": 1
  }
}